:100000000C942A000C94CC020C9447000C944700EA
:100010000C9447000C9447000C9455020C94470034
:100020000C9447000C947B020C9447000C944700FE
:100030000C9447000C9447000C9447000C94470024
:100040000C9447000C9447000C9447000C94470014
:100050000C94470011241FBECFE5D8E0DEBFCDBF12
:1000600010E0A0E6B0E0EAE4FEE002C005900D92E8
:10007000A037B107D9F720E0A0E7B0E001C01D929A
:10008000AD37B207E1F70E9449000C9423070C94A6
:100090000000CDB7DEB761970FB6F894DEBF0FBE94
:1000A000CDBF40E060E080E00E940C0340E061E0F2
:1000B00080E00E940C0340E062E080E00E940C03BC
:1000C00040E063E080E00E940C0342E060E081E0F9
:1000D0000E940C0342E061E081E00E940C0342E0D8
:1000E00062E081E00E940C0342E063E081E00E9454
:1000F0000C0341E064E081E00E940C0341E065E014
:1001000081E00E940C0340E066E081E00E940C0365
:1001100041E067E081E00E940C0342E060E082E0A1
:100120000E940C0342E061E082E00E940C0341E087
:1001300062E082E00E940C0342E063E082E00E9401
:100140000C0342E064E082E00E940C0342E065E0C0
:1001500082E00E940C0341E066E082E00E940C0312
:1001600041E067E082E00E940C0340E060E083E051
:100170000E940C0341E061E083E00E940C0340E038
:1001800062E083E00E940C0342E063E083E00E94AF
:100190000C0342E064E083E00E940C0342E065E06F
:1001A00083E00E940C0340E066E083E00E940C03C1
:1001B00041E067E083E00E940C0341E064E081E0FD
:1001C0000E94770340E062E082E00E94770340E013
:1001D00066E082E00E94770340E067E082E00E94F0
:1001E000770340E067E083E00E9477030E946F019D
:1001F0000E94310184E690E00E9411040E949F0257
:100200000E94E501789410E07E018FEFE81AF80A69
:100210000E94C702082FD92E0E9437021F928F9387
:10022000DF920F9380E690E09F938F93FF92EF927F
:100230000E944A0460E080E00E94BC01C7010E9465
:10024000CA0182E390E00E9411041F5F0FB6F89488
:10025000DEBF0FBECDBF1530D9F60E94B20210E04E
:10026000D7CF66E081E00C94F002CF93DF93D82FD4
:10027000C62F0E94DE03892B41F00E94EC03C1E0EF
:10028000D0E0CE01DF91CF9108958EE30E94F2037A
:10029000892B99F78D2F0E940204892B71F78C2FDF
:1002A0000E940204EC01892B41F70E94EC03E9CF84
:1002B00091E020917000211101C090E0682F892FFA
:1002C000880F880F880F0C943501682F809170007B
:1002D000811519F088E40C94350180E4FCCF10926C
:1002E000710081E08093700060EA76E890E00E94FF
:1002F000B803019719F481E090E008952FE788E3AF
:1003000091E0215080409040E1F700C0000080E380
:100310000E945801892B79F780E30E945801892BAC
:1003200051F780E30E945801892B29F788E30E9446
:100330005801892B01F78CE00E945801892BD9F6CE
:1003400086E00E945801892BB1F681E00E94580195
:10035000892B89F6EFE9FFE03197F1F700C0000043
:1003600082E00E945801009731F6EFE9FFE03197F3
:10037000F1F700C000000895823048F4603138F48D
:10038000813009F4605C862F80680C94580181E00C
:1003900090E008950F931F93CF938C01C0E0892BB9
:1003A00059F481E090E0CF911F910F9108950E9440
:1003B0006501892BB1F7CF5FF801EC0FF11D80814A
:1003C0008111F5CF80E090E0EECF8E98969A1FBC19
:1003D00083E48EBD89B7846289BF0895CF93DF938C
:1003E0002091770030917800AC01421B530B9A01A9
:1003F0004091720050E060E070E0E0917700F09191
:1004000078008E179F0758F4FB01C1E0D0E0403020
:1004100054076407740709F4C0E04C1B5D0BBA0174
:10042000A90140937300509374006093750070931A
:100430007600909378008093770010927200DF919D
:10044000CF910895809172008F5F809372008091A8
:100450007200853058F01092730010927400109260
:1004600075001092760084E0809372000895F894ED
:100470002091730030917400409175005091760086
:100480007894203032074207520769F060E07DE23D
:1004900081E391E00E942804C901DA0110979105D7
:1004A00019F08FEF089580E008951F920F920FB614
:1004B0000F9211242F933F934F935F936F937F93EA
:1004C0008F939F93AF93BF93EF93FF9386B597B5A9
:1004D0000E94EE01FF91EF91BF91AF919F918F919B
:1004E0007F916F915F914F913F912F910F900FBE30
:1004F0000F901F9018951F920F920FB60F92112414
:100500002F933F934F935F936F937F938F939F931B
:10051000AF93BF93EF93FF930E942202FF91EF915D
:10052000BF91AF919F918F917F916F915F914F910B
:100530003F912F910F900FBE0F901F9018958A98A2
:10054000929A85B7836085BF8BB780648BBF08950F
:1005500080917B0090917C00019690937C00809329
:100560007B000895F89420917B0030917C001092DC
:100570007C0010927B00789440EF429FC001439F23
:10058000900D11248093790090937A0008958091C2
:10059000790090917A0008951F920F920FB60F92F2
:1005A00011242F933F934F935F936F937F938F9378
:1005B0009F93AF93BF93EF93FF930E94A802FF9185
:1005C000EF91BF91AF919F918F917F916F915F91CB
:1005D0004F913F912F910F900FBE0F901F90189544
:1005E0008430B8F49FEF960F973098F43D9897B108
:1005F0009F738295880F880F807C892B87B986B17D
:10060000887F86B986B1862B86B9379A80E090E0DC
:10061000089581E090E00895843008F059C0683072
:1006200008F056C0433008F053C021E030E0F90133
:1006300001C0EE0F6A95EAF7823041F18330B9F1DB
:10064000813099F0413031F48AB38E2B8ABB80E03F
:1006500090E008959AB38E2F809598239ABB4230EC
:10066000E9F58BB38E2B8BBBF2CF413021F487B3EE
:100670008E2B87BBECCF97B38E2F8095982397BB9B
:10068000423079F588B38E2B88BBE1CF413021F41D
:1006900084B38E2B84BBDBCF94B38E2F80959823AD
:1006A00094BB423009F585B38E2B85BBD0CF41304A
:1006B00021F481B38E2B81BBCACF91B38E2F80954D
:1006C000982391BB423039F482B38E2B82BBBFCFCB
:1006D00081E090E0089592B38923F8CF9BB38923FA
:1006E000C2CF98B38923D0CF95B38923DECF84308E
:1006F000E0F56830D0F54230C0F521E030E0F90196
:1007000001C0EE0F6A95EAF76E2F8230D1F0833088
:1007100011F1813061F08BB3413029F48E2B8BBB0A
:1007200080E090E00895609568236BBBF9CF88B3B3
:10073000413019F48E2B88BBF3CF6095682368BBDA
:10074000EFCF85B3413019F48E2B85BBE9CF60958F
:10075000682365BBE5CF82B3413019F48E2B82BB91
:10076000DFCF6095682362BBDBCF81E090E0089526
:100770009B01AC012115310541055105E1F060E017
:1007800072E18AE790E00E942804C901DA014097EB
:10079000A109B109AC01BD017695679557954795BB
:1007A0009230A105B10538F440B911B884E086BF94
:1007B00080E090E0089581E090E0089584EA86BFAB
:1007C00006B607FEFDCF91B1987F21E030E098306A
:1007D00009F420E0C901089584E986BF06B604FC47
:1007E000FDCF0895880F83B984E886BF06B607FE5B
:1007F000FDCF91B1987F21E030E0983109F420E0FD
:10080000C901089583B984E886BF06B607FEFDCF07
:1008100091B1987F21E030E0983209F420E0C901DD
:1008200008959C0182E088BF93B7987F936093BF3F
:100830002115310531F483B7887F83BF80E090E0D4
:1008400008952150310908B601FEFDCF88BFF0CFD1
:10085000A1E21A2EAA1BBB1BFD010DC0AA1FBB1FC4
:10086000EE1FFF1FA217B307E407F50720F0A21B36
:10087000B30BE40BF50B661F771F881F991F1A94A3
:1008800069F760957095809590959B01AC01BD01CD
:10089000CF010895AEE0B0E0E0E5F4E00C94FC0692
:1008A00086E08C838B899C8989839A838FEF9FE76D
:1008B0008D839E83CE014796AC016D897E894697D4
:1008C0000E946D04EF81F8852B893C89E20FF31FAC
:1008D00010822E96E2E00C941807ABE0B0E0E3E75C
:1008E000F4E00C94EF065C016B017A01FC011682C6
:1008F0001782838181FFC9C1F5012381F60123FDA0
:10090000859123FF81916F01803009F429C18532DF
:1009100039F423FD959123FF91916F01953229F4CC
:10092000B50190E00E945E06E7CF30E0712C512CBB
:1009300000E0003210F59B32C9F050F49032B9F06B
:100940009332C9F09E3269F506FD0AC1006405C004
:100950009D3279F0903399F40160F60123FD959171
:1009600023FF91916F019111E4CF24C002600460D4
:10097000F4CF0860F2CF0061F0CF07FD1BC0892FD4
:1009800080538A30F8F69AE006FF05C0799E800D04
:100990001124782EE2CF599E800D1124582E00622A
:1009A000DCCF9C3611F40068D8CF9C3409F448C0E1
:1009B000983699F2892F8F7D8554833008F442C090
:1009C000933609F464C0933709F468C0933509F489
:1009D00074C0943619F0993609F0A0C0F70107FFEA
:1009E00096C081919191A191B1917F010F76B7FF4E
:1009F00008C0B095A095909581959F4FAF4FBF4F80
:100A000000682AE030E04E014FEF841A940AA401F6
:100A1000BC01CD010E948E068819882E06FFC1C038
:100A2000802F8E7F871408F0BBC004FF0CC102FD2D
:100A300000C10E7E972C802F867809F4BDC0FEC0C1
:100A400031E08BCF3030F9F088E0E80EF11C8FE315
:100A5000898381E0682E712C4E018FEF881A980AE5
:100A60000F7703FD03C065147104B8F161147604B7
:100A7000D9F5511409F440CFB50180E290E00E940D
:100A80005E065A94F6CF84E0E80EF11CE0CFF70141
:100A90008081898382E0E80EF11CDBCFF701819031
:100AA00091907F01672D70E006FD02C06FEF7FEF30
:100AB000C4010E9453063C01D3CFF701819091906D
:100AC0007F01672D70E006FD02C06FEF7FEFC4016C
:100AD0000E9448063C010068C4CFB50180E290E066
:100AE0000E945E065A94BFCFF40107FD859107FF6F
:100AF00081914F01B50190E00E945E0681E05110A6
:100B000001C080E0581A81E0681A7108AFCF819166
:100B10009191A92FAA0FAA0BBA2F67CF102F953743
:100B2000B9F41F7E2AE030E0F70117FF34C061916D
:100B30007191819191917F014E014FEF841A940A36
:100B4000A4010E948E068819882E1F77012F66CF78
:100B5000197F903799F058F4983599F09F36C1F085
:100B6000F501868197812B96EFE00C940B0798375F
:100B7000B9F704FD04C020E130E0D6CF1061146065
:100B8000FACF04FF02C0102F166020E132E0CCCF74
:100B900028E030E0C9CF6191719180E090E0CBCF47
:100BA000082F982C04FF47CFFE01E80DF11D80812E
:100BB000803309F041C0097E03FD0CC000FF4FC027
:100BC000782C951418F4750C7918952C951408F058
:100BD00048C0952C951408F044C0591804FF43C030
:100BE000B50180E390E00E945E0602FF09C088E53F
:100BF00090E001FD02C088E790E0B5010E945E062A
:100C00008714E0F13E018FEF681A780A882D815031
:100C10004E0192E0890E911C880E911CF401829184
:100C20004F01B50190E00E945E0686149704B1F76B
:100C300020CF972C082FB8CF02FD02C09394BCCFD1
:100C400093949394B9CF972C082FF5CEB50180E2F9
:100C500090E00E945E0663946514C0F3B7CF692CE0
:100C6000FBCF512CBBCF802F867851F280E201FD63
:100C70008BE207FD8DE2B50190E0C0CFB50180E3C6
:100C800090E00E945E067A94BBCF8FEF9FEF6BCF10
:100C9000FC010590615070400110D8F78095909547
:100CA0008E0F9F1F0895FC0161507040019001104C
:100CB000D8F7809590958E0F9F1F08950F931F93DF
:100CC000CF93DF93182F092FEB018B8181FD09C092
:100CD0000FEF1FEF812F902FDF91CF911F910F9179
:100CE000089582FF14C02E813F818C819D81281739
:100CF00039073CF4E881F981CF0101968883998313
:100D000010838E819F8101968E839F83E3CFE88538
:100D1000F985812F0995892BA1F3DACFFA01AA274A
:100D2000283051F1203181F1E8946F936E7F6E5F2E
:100D30007F4F8F4F9F4FAF4FB1E03ED0B4E03CD0DC
:100D4000670F781F891F9A1FA11D680F791F8A1FBF
:100D5000911DA11D6A0F711D811D911DA11D20D026
:100D600009F468943F912AE0269F11243019305DE0
:100D70003193DEF6CF010895462F4770405D4193D1
:100D8000B3E00FD0C9F7F6CF462F4F70405D4A331E
:100D900018F0495D31FD4052419302D0A9F7EACFE6
:100DA000B4E0A6959795879577956795BA95C9F715
:100DB00000976105710508959B01AC010A2E069408
:100DC0005795479537952795BA95C9F7620F731FC1
:100DD000841F951FA01D08952F923F924F925F92FE
:100DE0006F927F928F929F92AF92BF92CF92DF923B
:100DF000EF92FF920F931F93CF93DF93CDB7DEB7A0
:100E0000CA1BDB0B0FB6F894DEBF0FBECDBF099433
:100E10002A88398848885F846E847D848C849B848A
:100E2000AA84B984C884DF80EE80FD800C811B8198
:100E3000AA81B981CE0FD11D0FB6F894DEBF0FBEC7
:0A0E4000CDBFED010895F894FFCF37
:100E4A0052504D3A2575205350443A2575202000BA
:00000001FF
