:100000000C942A000C9447000C9447000C94470071
:100010000C9447000C9447000C94BD010C944700CD
:100020000C9447000C94E1010C9447000C94470099
:100030000C9447000C9447000C9447000C94470024
:100040000C9447000C9447000C9447000C94470014
:100050000C94470011241FBECFE5D8E0DEBFCDBF12
:1000600010E0A0E6B0E0EAEDF5E002C005900D92E8
:10007000A837B107D9F720E0A8E7B0E001C01D928A
:10008000A538B207E1F70E9449000C94EB020C94EA
:10009000000042E060E082E00E94050242E061E090
:1000A00082E00E9405020E94D30081E00E946D015F
:1000B0000E94370160E080E00E94430180E690E00A
:1000C0000E94510160E081E00E94430189E690E0D6
:1000D0000E9451012FEF84E39CE02150804090402A
:1000E000E1F700C00000E6CFCF93DF93D82FD29581
:1000F000D07F611101C0D160C09178000E9496024A
:10010000892B41F00E94A402C1E0D0E0CE01DF9132
:10011000CF91089587E20E94AA02892B99F7CC0F0C
:10012000CC0FCC0FCD2B8C2F84600E94BA02892B70
:1001300049F70E94A40282E08A95F1F700C00E946C
:100140009602892BF9F687E20E94AA02892BD1F642
:100150008C2F0E94BA02EC01892BA1F60E94A40206
:100160008AE68A95F1F700C0D1CFCF93DF9300D014
:10017000CDB7DEB78A83698382958F700E94740041
:10018000009749F469818A818F700F900F90DF91F9
:10019000CF910C9474000F900F90DF91CF91089540
:1001A00061E00C94B5001092790081E080937800B2
:1001B00060EA76E890E00E947002019719F481E00D
:1001C00090E008952FE788E391E02150804090402F
:1001D000E1F700C0000061E083E00E947400892B19
:1001E00071F7EFE0F7E23197F1F700C0000061E04E
:1001F00083E00E947400892B11F78BE291E0019754
:10020000F1F700C0000061E083E00E947400892BD8
:10021000B1F661E082E00E947400892B81F688E2E9
:100220000E94D000892B59F68CE00E94D000892BC7
:1002300031F686E00E94D000892B09F681E00E9409
:10024000D000892B09F0BBCFEFE9FFE03197F1F740
:1002500000C0000082E00E94D000009709F0AFCFFC
:10026000EFE9FFE03197F1F700C00000089581E069
:100270000E94D000009731F4EFE9FFE03197F1F7E9
:1002800000C000000895823048F4603138F48130B5
:1002900009F4605C862F80680C94D00081E090E0C7
:1002A00008950F931F93CF938C01C0E0892B61F4C5
:1002B00081E090E0CF911F910F91089560E00E943E
:1002C000B500892BA9F7CF5FF801EC0FF11D8081F4
:1002D0008111F4CF80E090E0EDCF823028F480935C
:1002E000780080E090E0089581E090E0089526B5E0
:1002F00037B508B602FE0EC037FD0CC080917C00F9
:1003000090917D00019690937D0080937C0088B74A
:10031000846088BF80917C0090917D0040917A003C
:1003200050917B00DC0190E080E0841B950BA109DB
:10033000B109820F931FA11DB11D30937B00209343
:100340007A0010927D0010927C0080937E00909342
:100350007F00A0938000B093810081E080938200B1
:1003600010928400109283000895EAE7F0E0828101
:10037000938101969383828308951F920F920FB603
:100380000F9211242F933F934F935F936F937F931B
:100390008F939F93AF93BF93EF93FF930E94770147
:1003A000FF91EF91BF91AF919F918F917F916F914D
:1003B0005F914F913F912F910F900FBE0F901F9023
:1003C00018951F920F920FB60F9211242F933F93FF
:1003D0004F935F936F937F938F939F93AF93BF934D
:1003E000EF93FF930E94B501FF91EF91BF91AF9101
:1003F0009F918F917F916F915F914F913F912F913D
:100400000F900FBE0F901F901895843008F059C0C0
:10041000683008F056C0433008F053C021E030E0A7
:10042000F90101C0EE0F6A95EAF7823041F183309D
:10043000B9F1813099F0413031F48AB38E2B8ABB07
:1004400080E090E008959AB38E2F809598239ABB10
:100450004230E9F58BB38E2B8BBBF2CF413021F4C8
:1004600087B38E2B87BBECCF97B38E2F80959823C5
:1004700097BB423079F588B38E2B88BBE1CF4130F2
:1004800021F484B38E2B84BBDBCF94B38E2F809565
:10049000982394BB423009F585B38E2B85BBD0CF12
:1004A000413021F481B38E2B81BBCACF91B38E2F03
:1004B0008095982391BB423039F482B38E2B82BB56
:1004C000BFCF81E090E0089592B38923F8CF9BB32A
:1004D0008923C2CF98B38923D0CF95B38923DECFA8
:1004E0009B01AC012115310541055105E1F060E0AA
:1004F00072E18AE790E00E94C902C901DA014097DF
:10050000A109B109AC01BD0176956795579547954D
:100510009230A105B10538F440B911B884E086BF26
:1005200080E090E0089581E090E0089584EA86BF3D
:1005300006B607FEFDCF91B1987F21E030E09830FC
:1005400009F420E0C901089584E986BF06B604FCD9
:10055000FDCF0895880F83B984E886BF06B607FEED
:10056000FDCF91B1987F21E030E0983109F420E08F
:10057000C901089583B984E886BF06B607FEFDCF9A
:1005800091B1987F21E030E0983209F420E0C90170
:100590000895A1E21A2EAA1BBB1BFD010DC0AA1FC4
:1005A000BB1FEE1FFF1FA217B307E407F50720F0DC
:1005B000A21BB30BE40BF50B661F771F881F991F57
:1005C0001A9469F760957095809590959B01AC01A0
:0A05D000BD01CF010895F894FFCF9C
:1005DA004C43442054455354005344413D43312035
:0805EA0053434C3D4330000077
:00000001FF
