:100000000C942A000C9447000C9447000C94470071
:100010000C9447000C9447000C9491030C944700F7
:100020000C9447000C94B5030C9447000C944700C3
:100030000C9447000C9447000C9447000C94470024
:100040000C9447000C9447000C9447000C94470014
:100050000C94470011241FBECFE5D8E0DEBFCDBF12
:1000600010E0A0E6B0E0E8E8F0E102C005900D92F3
:10007000AE37B107D9F720E0AEE7B0E001C01D927E
:10008000A03BB207E1F70E9449000C9442080C948F
:100090000000CDB7DEB7C254D0400FB6F894DEBF33
:1000A0000FBECDBF40E060E080E00E940D0440E064
:1000B00061E080E00E940D0440E062E080E00E9488
:1000C0000D0440E063E080E00E940D0442E060E047
:1000D00081E00E940D0442E061E081E00E940D0495
:1000E00042E062E081E00E940D0442E063E081E0D2
:1000F0000E940D0441E064E081E00E940D0441E0B3
:1001000065E081E00E940D0440E066E081E00E942D
:100110000D0441E067E081E00E940D0442E060E0F0
:1001200082E00E940D0442E061E082E00E940D0442
:1001300041E062E082E00E940D0442E063E082E080
:100140000E940D0442E064E082E00E940D0442E05F
:1001500065E082E00E940D0441E066E082E00E94DA
:100160000D0441E067E082E00E940D0440E060E0A1
:1001700083E00E940D0441E061E083E00E940D04F1
:1001800042E062E083E00E940D0442E063E083E02D
:100190000E940D0442E064E083E00E940D0442E00E
:1001A00065E083E00E940D0440E066E083E00E9489
:1001B0000D0441E067E083E00E940D0441E064E04B
:1001C00081E00E94780440E062E082E00E947804CE
:1001D00040E066E082E00E94780440E067E082E070
:1001E0000E94780440E067E083E00E9478048E017A
:1001F0000F5F1F4FF80180E211928A95E9F70E9484
:10020000A6020E945A0184E690E00E941205C02EC8
:10021000B12E81E1D82E8E010E5C1F4F7E0181E24E
:10022000E80EF11C8C2D9B2D0E945E018F818F9317
:100230008E818F938D811F928F9380E690E09F93A4
:100240008F931F92DF921F930F930E945A058A8506
:100250001F928F9389858F9388858F938FE690E087
:100260009F938F931F92DF92FF92EF920E945A0505
:10027000A701B80180E00E941A0384EF91E00E9478
:1002800012050FB6F894DEBF0FBECDBFCBCF0097DF
:1002900019F08F3F934049F4FB0190819F5F9A30A2
:1002A00030F480E0FB019083089590E0FACF81E084
:1002B0009AE0F8CF66E081E00C94D9032F923F9248
:1002C0004F925F926F927F928F929F92AF92BF9266
:1002D000CF92DF92EF92FF920F931F93CF93DF9312
:1002E000CDB7DEB72A970FB6F894DEBF0FBECDBFED
:1002F0008C011F8218861D821E821B821C8219821D
:100300001A82CE010796BC0180E00E94F503CE015F
:100310000596BC0181E00E94F503CE010396BC0165
:1003200082E00E94F503BE016F5F7F4F83E00E9471
:10033000F503AF80B88461E870E0C5010E94470111
:10034000382ECD80DE8060E870E0C6010E94470153
:10035000282EEB80FC806FE770E0C7010E94470108
:10036000898789809A806EE770E0C4010E94470106
:100370008A87F80186899789232D213051F0222D13
:10038000213039F02985213021F02A85213009F0EA
:10039000A1C08061F801868B978B2091820030E0AC
:1003A000C901880F991FFC01ED56FF4FA082B18251
:1003B0008D579F4FFC01C082D1822F5F3F4F277026
:1003C00020938200E3E9F0E0A3E8B0E083EA90E064
:1003D000C12CD12C56012501350141915191440E7A
:1003E000551E611C711C4D915D91A40EB51EC11C62
:1003F000D11C8E179F0789F7311014C043E0769403
:100400006794579447944A95D1F79201A4E6B0E0D7
:100410000E9429052FEF33E040E050E00E943805AC
:10042000F8012483211017C033E0D694C794B79401
:10043000A7943A95D1F79501AAEAB0E00E94290560
:100440002FEF33E040E050E00E9438052852304062
:10045000F801258336838985811113C0B70180E0B7
:1004600090E09F709061660F771F881F991FD8F7E3
:100470002FEF33E040E050E00E943805F801278379
:1004800030878A8581110DC09401A4E6B0E00E94F6
:1004900029052FEF33E040E050E00E943805F801D5
:1004A00021872A960FB6F894DEBF0FBECDBFDF912D
:1004B000CF911F910F91FF90EF90DF90CF90BF9061
:1004C000AF909F908F907F906F905F904F903F90F4
:1004D0002F9008958F7E5ECFCF93DF93D82FC62FB6
:1004E0000E94DF04892B41F00E94ED04C1E0D0E0BE
:1004F000CE01DF91CF9108958EE30E94F304892B02
:1005000099F78D2F0E940305892B71F78C2F0E947C
:100510000305EC01892B41F70E94ED04E9CF91E03E
:100520002091A300211101C090E0682F892F880F2E
:10053000880F880F0C946C02682F8091A30081159E
:1005400019F088E40C946C0280E4FCCF1092A400B3
:1005500081E08093A30060EA76E890E00E94B9040D
:10056000019719F481E090E008952FE788E391E086
:10057000215080409040E1F700C0000080E30E94DD
:100580008F02892B79F780E30E948F02892B51F724
:1005900080E30E948F02892B29F788E30E948F0253
:1005A000892B01F78CE00E948F02892BD9F686E017
:1005B0000E948F02892BB1F681E00E948F02892B65
:1005C00089F6EFE9FFE03197F1F700C0000082E023
:1005D0000E948F02009731F6EFE9FFE03197F1F7C3
:1005E00000C00000089581E00E948F02009731F45E
:1005F000EFE9FFE03197F1F700C0000008950F9395
:100600001F93CF938C01C0E0892B59F481E090E0D7
:10061000CF911F910F9108950E949C02892BB1F7F1
:10062000CF5FF801EC0FF11D80818111F5CF80E0E3
:1006300090E0EECFEF92FF920F931F93CF93C82FCE
:100640007B018A01853040F081E090E0CF911F91DD
:100650000F91FF90EF900895672BB1F3452BA1F315
:100660000E94F302892B81F780E80E948F02892B78
:1006700059F7C7010E94FF02892B31F780EC0E94D5
:100680008F02892B09F7C8010E94FF020097E1F64B
:10069000C093A400DBCF26B537B508B602FE0EC066
:1006A00037FD0CC08091A7009091A800019690930F
:1006B000A8008093A70088B7846088BF8091A700B6
:1006C0009091A8004091A5005091A600DC0190E017
:1006D00080E0841B950BA109B109820F931FA11D16
:1006E000B11D3093A6002093A5001092A80010928F
:1006F000A7008093A9009093AA00A093AB00B093A9
:10070000AC0081E08093AD001092AF001092AE007B
:100710000895E5EAF0E082819381019693838283D4
:1007200008951F920F920FB60F9211242F933F93AB
:100730004F935F936F937F938F939F93AF93BF93E9
:10074000EF93FF930E944B03FF91EF91BF91AF9105
:100750009F918F917F916F915F914F913F912F91D9
:100760000F900FBE0F901F9018951F920F920FB60B
:100770000F9211242F933F934F935F936F937F9327
:100780008F939F93AF93BF93EF93FF930E9489033F
:10079000FF91EF91BF91AF919F918F917F916F9159
:1007A0005F914F913F912F910F900FBE0F901F902F
:1007B00018958430B8F49FEF960F973098F43D98D1
:1007C00097B19F738295880F880F807C892B87B99A
:1007D00086B1887F86B986B1862B86B9379A80E044
:1007E00090E0089581E090E00895883098F46115D4
:1007F000710581F097B1907E982B97B9369A36990A
:10080000FECF349A84B125B1FB018083218380E03F
:1008100090E0089581E090E00895843008F059C098
:10082000683008F056C0433008F053C021E030E093
:10083000F90101C0EE0F6A95EAF7823041F1833089
:10084000B9F1813099F0413031F48AB38E2B8ABBF3
:1008500080E090E008959AB38E2F809598239ABBFC
:100860004230E9F58BB38E2B8BBBF2CF413021F4B4
:1008700087B38E2B87BBECCF97B38E2F80959823B1
:1008800097BB423079F588B38E2B88BBE1CF4130DE
:1008900021F484B38E2B84BBDBCF94B38E2F809551
:1008A000982394BB423009F585B38E2B85BBD0CFFE
:1008B000413021F481B38E2B81BBCACF91B38E2FEF
:1008C0008095982391BB423039F482B38E2B82BB42
:1008D000BFCF81E090E0089592B38923F8CF9BB316
:1008E0008923C2CF98B38923D0CF95B38923DECF94
:1008F0008430E0F56830D0F54230C0F521E030E0DA
:10090000F90101C0EE0F6A95EAF76E2F8230D1F03F
:10091000833011F1813061F08BB3413029F48E2B9B
:100920008BBB80E090E00895609568236BBBF9CFA6
:1009300088B3413019F48E2B88BBF3CF60956823C0
:1009400068BBEFCF85B3413019F48E2B85BBE9CF5F
:100950006095682365BBE5CF82B3413019F48E2BD7
:1009600082BBDFCF6095682362BBDBCF81E090E084
:1009700008959B01AC012115310541055105E1F0B8
:1009800060E072E18AE790E00E943805C901DA016F
:100990004097A109B109AC01BD01769567955795BE
:1009A00047959230A105B10538F440B911B884E0FB
:1009B00086BF80E090E0089581E090E0089584EAA9
:1009C00086BF06B607FEFDCF91B1987F21E030E0EB
:1009D000983009F420E0C901089584E986BF06B67D
:1009E00004FCFDCF0895880F83B984E886BF06B65E
:1009F00007FEFDCF91B1987F21E030E0983109F4F6
:100A000020E0C901089583B984E886BF06B607FED1
:100A1000FDCF91B1987F21E030E0983209F420E0D9
:100A2000C90108959C0182E088BF93B7987F9360C5
:100A300093BF2115310531F483B7887F83BF80E0F0
:100A400090E008952150310908B601FEFDCF88BF1E
:100A5000F0CFA29FB001B39FC001A39F700D811D75
:100A60001124911DB29F700D811D1124911D0895B7
:100A7000A1E21A2EAA1BBB1BFD010DC0AA1FBB1FA2
:100A8000EE1FFF1FA217B307E407F50720F0A21B14
:100A9000B30BE40BF50B661F771F881F991F1A9481
:100AA00069F760957095809590959B01AC01BD01AB
:100AB000CF010895AEE0B0E0E0E6F5E00C941B084D
:100AC00086E08C838B899C8989839A838D899E8912
:100AD000813020E8920710F080E090E801978D8344
:100AE0009E83CE014996AC016F89788D48970E940C
:100AF0008C054D815E8157FD0BC0EF81F8854E1747
:100B00005F070CF4FA012B893C89E20FF31F108276
:100B10002E96E2E00C943708ABE0B0E0E2E9F5E0B5
:100B20000C940E085C016B017A01FC01168217829D
:100B3000838181FFC9C1F5012381F60123FD8591E0
:100B400023FF81916F01803009F429C1853239F486
:100B500023FD959123FF91916F01953229F4B50101
:100B600090E00E947D07E7CF30E0712C512C00E02F
:100B7000003210F59B32C9F050F49032B9F0933244
:100B8000C9F09E3269F506FD0AC1006405C09D32B8
:100B900079F0903399F40160F60123FD959123FFDC
:100BA00091916F019111E4CF24C002600460F4CFF1
:100BB0000860F2CF0061F0CF07FD1BC0892F805382
:100BC0008A30F8F69AE006FF05C0799E800D112460
:100BD000782EE2CF599E800D1124582E0062DCCF72
:100BE0009C3611F40068D8CF9C3409F448C098367C
:100BF00099F2892F8F7D8554833008F442C0933653
:100C000009F464C0933709F468C0933509F474C0DB
:100C1000943619F0993609F0A0C0F70107FF96C085
:100C200081919191A191B1917F010F76B7FF08C099
:100C3000B095A095909581959F4FAF4FBF4F00689D
:100C40002AE030E04E014FEF841A940AA401BC015F
:100C5000CD010E94AD078819882E06FFC1C0802FE4
:100C60008E7F871408F0BBC004FF0CC102FD00C1D9
:100C70000E7E972C802F867809F4BDC0FEC031E02F
:100C80008BCF3030F9F088E0E80EF11C8FE38983D8
:100C900081E0682E712C4E018FEF881A980A0F7729
:100CA00003FD03C065147104B8F161147604D9F52D
:100CB000511409F440CFB50180E290E00E947D0715
:100CC0005A94F6CF84E0E80EF11CE0CFF701808162
:100CD000898382E0E80EF11CDBCFF70181909190CF
:100CE0007F01672D70E006FD02C06FEF7FEFC4014A
:100CF0000E9472073C01D3CFF701819091907F0150
:100D0000672D70E006FD02C06FEF7FEFC4010E9407
:100D100067073C010068C4CFB50180E290E00E9403
:100D20007D075A94BFCFF40107FD859107FF81919C
:100D30004F01B50190E00E947D0781E0511001C094
:100D400080E0581A81E0681A7108AFCF81919191C3
:100D5000A92FAA0FAA0BBA2F67CF102F9537B9F476
:100D60001F7E2AE030E0F70117FF34C061917191D6
:100D7000819191917F014E014FEF841A940AA40151
:100D80000E94AD078819882E1F77012F66CF197F23
:100D9000903799F058F4983599F09F36C1F0F501E5
:100DA000868197812B96EFE00C942A089837B9F743
:100DB00004FD04C020E130E0D6CF10611460FACF0A
:100DC00004FF02C0102F166020E132E0CCCF28E0F3
:100DD00030E0C9CF6191719180E090E0CBCF082FD6
:100DE000982C04FF47CFFE01E80DF11D8081803370
:100DF00009F041C0097E03FD0CC000FF4FC0782CF4
:100E0000951418F4750C7918952C951408F048C0B1
:100E1000952C951408F044C0591804FF43C0B5013F
:100E200080E390E00E947D0702FF09C088E590E022
:100E300001FD02C088E790E0B5010E947D0787149C
:100E4000E0F13E018FEF681A780A882D81504E013B
:100E500092E0890E911C880E911CF40182914F0141
:100E6000B50190E00E947D0786149704B1F720CF6A
:100E7000972C082FB8CF02FD02C09394BCCF939457
:100E80009394B9CF972C082FF5CEB50180E290E06E
:100E90000E947D0763946514C0F3B7CF692CFBCF24
:100EA000512CBBCF802F867851F280E201FD8BE27E
:100EB00007FD8DE2B50190E0C0CFB50180E390E081
:100EC0000E947D077A94BBCF8FEF9FEF6BCFFC0121
:100ED0000590615070400110D8F7809590958E0F65
:100EE0009F1F0895FC016150704001900110D8F7D8
:100EF000809590958E0F9F1F08950F931F93CF930A
:100F0000DF93182F092FEB018B8181FD09C00FEFB3
:100F10001FEF812F902FDF91CF911F910F91089597
:100F200082FF14C02E813F818C819D812817390753
:100F30003CF4E881F981CF0101968883998310837D
:100F40008E819F8101968E839F83E3CFE885F9850B
:100F5000812F0995892BA1F3DACFFA01AA2728302E
:100F600051F1203181F1E8946F936E7F6E5F7F4F76
:100F70008F4F9F4FAF4FB1E03ED0B4E03CD0670FF2
:100F8000781F891F9A1FA11D680F791F8A1F911D45
:100F9000A11D6A0F711D811D911DA11D20D009F495
:100FA00068943F912AE0269F11243019305D3193D7
:100FB000DEF6CF010895462F4770405D4193B3E0C0
:100FC0000FD0C9F7F6CF462F4F70405D4A3318F067
:100FD000495D31FD4052419302D0A9F7EACFB4E018
:100FE000A6959795879577956795BA95C9F70097D0
:100FF0006105710508959B01AC010A2E0694579571
:10100000479537952795BA95C9F7620F731F841FC7
:10101000951FA01D08952F923F924F925F926F925D
:101020007F928F929F92AF92BF92CF92DF92EF9278
:10103000FF920F931F93CF93DF93CDB7DEB7CA1BF9
:10104000DB0B0FB6F894DEBF0FBECDBF09942A8824
:10105000398848885F846E847D848C849B84AA84CC
:10106000B984C884DF80EE80FD800C811B81AA8159
:10107000B981CE0FD11D0FB6F894DEBF0FBECDBF24
:08108000ED010895F894FFCF83
:10108800463A253364252520433A253364430042F4
:0E10980061743A257556204F696C3A25750033
:00000001FF
