:100000000C942A000C9447000C9447000C94470071
:100010000C9447000C9447000C9493020C944700F6
:100020000C9447000C94B7020C9447000C944700C2
:100030000C9447000C9447000C9447000C94470024
:100040000C9447000C9447000C9447000C94470014
:100050000C94470011241FBECFE5D8E0DEBFCDBF12
:1000600010E0A0E6B0E0EEEBF8E002C005900D92E3
:10007000AC3AB107D9F720E0ACEAB0E001C01D927C
:10008000AE3BB207E1F70E9449000C945D040C946A
:1000900000000F92CDB7DEB740E060E080E00E9444
:1000A000F70240E061E080E00E94F70240E062E099
:1000B00080E00E94F70240E063E080E00E94F702E7
:1000C00042E060E081E00E94F70242E061E081E00E
:1000D0000E94F70242E062E081E00E94F70242E003
:1000E00063E081E00E94F70241E064E081E00E9469
:1000F000F70241E065E081E00E94F70240E066E03F
:1001000081E00E94F70241E067E081E00E94F7028F
:1001100042E060E082E00E94F70242E061E082E0BB
:100120000E94F70241E062E082E00E94F70242E0B2
:1001300063E082E00E94F70242E064E082E00E9415
:10014000F70242E065E082E00E94F70241E066E0EB
:1001500082E00E94F70241E067E082E00E94F7023D
:1001600040E060E083E00E94F70241E061E083E06C
:100170000E94F70240E062E083E00E94F70242E062
:1001800063E083E00E94F70242E064E083E00E94C3
:10019000F70242E065E083E00E94F70240E066E09B
:1001A00083E00E94F70241E067E083E00E94F702EB
:1001B00041E064E081E00E94620340E062E082E0AE
:1001C0000E94620340E066E082E00E94620340E039
:1001D00067E082E00E94620340E067E083E00E9403
:1001E00062030E94D7010E94990184E690E00E9478
:1001F00024040E94380100E010E0FF24F394CE01B3
:100200000196AC0165E083E00E94A3032981C80147
:1002100001963F2D313051F4211108C08C01049713
:1002200010F000E010E0C8010E943F01F9800E9438
:10023000550160E080E00E942402F801EE0FFF1FEC
:10024000E05AFF4F808191810E94320284E690E063
:100250000E942404D4CF8FE783BD8CE685BD81E066
:100260008093AC00089515BC13BC1092AC000895A7
:1002700041E067E083E00E94F7020C943301209193
:10028000AF003091B0002817390771F08093AF00AC
:100290009093B0001092AD001092AE00892B11F433
:1002A0000C9433010C942B0108952091AF003091F0
:1002B000B00021153105E1F18091AD009091AE00C3
:1002C00001968093AD009093AE0022303105A1F0ED
:1002D0002330310541F12130310519F48530910584
:1002E00011F40C943301C29718F10E942B01109263
:1002F000AD001092AE0008958333910530F48091E3
:10030000AC00811115C00C942B018733910549F382
:100310008639910568F00E942B0182E38093AD003D
:100320001092AE00089584309105D9F20997DCCF80
:10033000089566E081E00C94DB02CF93DF93D82F21
:10034000C62F0E94F103892B41F00E94FF03C1E0F8
:10035000D0E0CE01DF91CF9108958EE30E94050495
:10036000892B99F78D2F0E941504892B71F78C2FFB
:100370000E941504EC01892B41F70E94FF03E9CF8D
:1003800091E02091B100211101C090E0682F892FE8
:10039000880F880F880F0C949D01682F8091B10001
:1003A000811519F088E40C949D0180E4FCCF109233
:1003B000B20081E08093B10060EA76E890E00E94AC
:1003C000CB03019719F481E090E008952FE788E3CB
:1003D00091E0215080409040E1F700C0000080E3B0
:1003E0000E94C001892B79F780E30E94C001892B0C
:1003F00051F780E30E94C001892B29F788E30E940E
:10040000C001892B01F78CE00E94C001892BD9F62D
:1004100086E00E94C001892BB1F681E00E94C001F4
:10042000892B89F6EFE9FFE03197F1F700C0000072
:1004300082E00E94C001009731F6EFE9FFE03197BA
:10044000F1F700C000000895823048F4603138F4BC
:10045000813009F4605C862F80680C94C00181E0D3
:1004600090E008950F931F93CF938C01C0E0892BE8
:1004700059F481E090E0CF911F910F9108950E946F
:10048000CD01892BB1F7CF5FF801EC0FF11D808111
:100490008111F5CF80E090E0EECF26B537B508B6F4
:1004A00002FE0EC037FD0CC08091B5009091B600E1
:1004B00001969093B6008093B50088B7846088BF9A
:1004C0008091B5009091B6004091B3005091B40076
:1004D000DC0190E080E0841B950BA109B109820F3B
:1004E000931FA11DB11D3093B4002093B30010924F
:1004F000B6001092B5008093B7009093B800A09317
:10050000B900B093BA0081E08093BB001092BD00A7
:100510001092BC000895E3EBF0E082819381019694
:100520009383828308951F920F920FB60F92112426
:100530002F933F934F935F936F937F938F939F93EB
:10054000AF93BF93EF93FF930E944D02FF91EF9102
:10055000BF91AF919F918F917F916F915F914F91DB
:100560003F912F910F900FBE0F901F9018951F92E3
:100570000F920FB60F9211242F933F934F935F93D7
:100580006F937F938F939F93AF93BF93EF93FF935B
:100590000E948B02FF91EF91BF91AF919F918F913C
:1005A0007F916F915F914F913F912F910F900FBE6F
:1005B0000F901F9018958430B8F49FEF960F9730E6
:1005C00098F43D9897B19F738295880F880F807C2F
:1005D000892B87B986B1887F86B986B1862B86B983
:1005E000379A80E090E0089581E090E008958430AB
:1005F00008F059C0683008F056C0433008F053C0C6
:1006000021E030E0F90101C0EE0F6A95EAF782308F
:1006100041F18330B9F1813099F0413031F48AB33E
:100620008E2B8ABB80E090E008959AB38E2F809540
:1006300098239ABB4230E9F58BB38E2B8BBBF2CF5C
:10064000413021F487B38E2B87BBECCF97B38E2F2D
:100650008095982397BB423079F588B38E2B88BB61
:10066000E1CF413021F484B38E2B84BBDBCF94B334
:100670008E2F8095982394BB423009F585B38E2B3D
:1006800085BBD0CF413021F481B38E2B81BBCACF43
:1006900091B38E2F8095982391BB423039F482B369
:1006A0008E2B82BBBFCF81E090E0089592B3892367
:1006B000F8CF9BB38923C2CF98B38923D0CF95B30A
:1006C0008923DECF8430E0F56830D0F54230C0F5C4
:1006D00021E030E0F90101C0EE0F6A95EAF76E2FD4
:1006E0008230D1F0833011F1813061F08BB3413031
:1006F00029F48E2B8BBB80E090E0089560956823F1
:100700006BBBF9CF88B3413019F48E2B88BBF3CF84
:100710006095682368BBEFCF85B3413019F48E2B09
:1007200085BBE9CF6095682365BBE5CF82B34130D7
:1007300019F48E2B82BBDFCF6095682362BBDBCFC1
:1007400081E090E00895FA01843010F5683000F5FA
:100750003097F1F021E030E0A90101C0440F6A9523
:10076000EAF7642F823081F0833081F0813051F0DC
:1007700089B3862391E0811101C090E0908380E0ED
:1007800090E0089586B3F5CF83B3F3CF80B3F1CF74
:1007900081E090E008959B01AC01211531054105F0
:1007A0005105E1F060E072E18AE790E00E943B04CD
:1007B000C901DA014097A109B109AC01BD017695E3
:1007C0006795579547959230A105B10538F440B922
:1007D00011B884E086BF80E090E0089581E090E069
:1007E000089584EA86BF06B607FEFDCF91B1987FD3
:1007F00021E030E0983009F420E0C901089584E94F
:1008000086BF06B604FCFDCF0895880F83B984E83F
:1008100086BF06B607FEFDCF91B1987F21E030E09C
:10082000983109F420E0C901089583B984E886BFAE
:1008300006B607FEFDCF91B1987F21E030E09832F7
:1008400009F420E0C90108959C0182E088BF93B7B4
:10085000987F936093BF2115310531F483B7887F6A
:1008600083BF80E090E008952150310908B601FE71
:10087000FDCF88BFF0CFA1E21A2EAA1BBB1BFD0142
:100880000DC0AA1FBB1FEE1FFF1FA217B307E4076F
:10089000F50720F0A21BB30BE40BF50B661F771FC7
:1008A000881F991F1A9469F76095709580959095A7
:0E08B0009B01AC01BD01CF010895F894FFCF6C
:1008BE00680079008A009B004368696D653A204F95
:1008CE004646202020202020004368696D653A208E
:1008DE004F5645525350454544004368696D653A3D
:1008EE00204C494D505F484F4D45004368696D653A
:0C08FE003A205455524E5F5449434B00C1
:00000001FF
