:100000000C942A000C9456030C9447000C946A023A
:100010000C9447000C9447000C9447000C94470044
:100020000C9447000C9446020C9449000C94470031
:100030000C9447000C9447000C9447000C94470024
:100040000C9447000C9447000C9447000C94470014
:100050000C94470011241FBECFE5D8E0DEBFCDBF12
:1000600010E0A0E6B0E0EAE4F8E002C005900D92EE
:10007000AC37B107D9F720E0ACE7B0E001C01D9282
:10008000AA3EB207E1F70E9491000C9423040C945D
:1000900000000F920FB60F921F9211245F936F937F
:1000A0007F938F939F93AF93BF9380919000909194
:1000B0009100019690939100809390008091900020
:1000C0009091910064E670E00E94ED03892B19F491
:1000D00081E080938F0080919000909191006AEF71
:1000E00070E00E94ED03892B19F481E080938E006B
:1000F000809190009091910064EF71E00E94ED0377
:10010000892B19F481E080938D00BF91AF919F916D
:100110008F917F916F915F911F900F900FBE0F9005
:10012000189500D000D0CDB7DEB7E0EBF0E080E26C
:10013000DF011D928A95E9F783E494E480939200AD
:100140009093930081E08093940010929500109218
:1001500096001092970010929800109299001092B9
:100160009A0010929B0010929C0010929D00109299
:100170009E0088E780939F001092A0008AE0809301
:10018000A1009EE69093A2008093A30080EE9EE2E1
:100190008093A4009093A50088E99AE38093A60039
:1001A0009093A70084E08093A80080ED97E080936F
:1001B000A9009093AA0082E08093AB001092AC005B
:1001C0001092AD001092AE001092AF0060E875E2A0
:1001D00080E090E00E949D0388E083BF8CE78CBFA5
:1001E00083B7836083BF89B7826089BF0E94090299
:1001F0000E9468030E94990380E690E00E94CB036E
:1002000080918F00811541F010928F0062E970E0BB
:1002100080EB90E00E94C60280918E00811541F033
:1002200010928E0062E970E080EB90E00E9474030F
:1002300080918D00811509F476C010928D00CE0159
:1002400001960E94F6018AE690E00E94CB0330916D
:10025000B0002091B10010928C0045E0832F922FC6
:100260006AE070E00E94ED034150E42FF0E0E957AE
:10027000FF4F805D8083832F922F362F272F0A9781
:1002800068F7CF010E94CB038FE690E00E94CB037A
:100290003091B2002091B30010928C0045E0832F82
:1002A000922F6AE070E00E94ED034150E42FF0E0ED
:1002B000E957FF4F805D8083832F922F362F272FA2
:1002C0000A9768F7CF010E94CB0385E790E00E9470
:1002D000CB03E980FA800B811C81109286008AE0B2
:1002E000D82EB701C8012AE030E040E050E00E947B
:1002F0000104F42FE52FDA948D2D90E084589F4F60
:10030000605DDC016C93A701B80179010F2F1E2FEE
:100310004A3051056105710520F70E94CB0387E63D
:1003200090E00E94CB0300006BCF4FB7F894209170
:10033000D0003091D100280F391F3093D100209385
:10034000D0008091D0009091D100883E934010F46D
:100350004FBF08958091D0009091D100885E934066
:100360009093D1008093D0008091D6009091D700D7
:10037000A091D800B091D9008F3F9F4FAF4FBF4F92
:1003800099F08091D6009091D700A091D800B091BB
:10039000D9000196A11DB11D8093D6009093D7007E
:1003A000A093D800B093D9008091D2009091D3004F
:1003B000A091D400B091D5008F3F9F4FAF4FBF4F5A
:1003C00009F4BFCF8091D2009091D300A091D400C6
:1003D000B091D5000196A11DB11D8093D2009093DC
:1003E000D300A093D400B093D500ABCF009781F099
:1003F0002FB7F8944091D6005091D7006091D80063
:100400007091D900FC0140835183628373832FBFB5
:100410000895BA98C2981092E7001092E6001092E0
:10042000E5001092E4001092E0001092E1001092BA
:10043000E2001092E3001092DF001092DD001092B3
:10044000DE0081E08093DC001092DB001092DA0085
:100450001FBC83E08EBD84E088BF89B7846089BFFC
:100460001DBC1CBC84B7806484BF8AB780628ABF0D
:100470008BB780628BBF08958091E4009091E50076
:1004800001969093E5008093E40008951F920F92E7
:100490000FB60F9211242F933F934F935F936F9357
:1004A0007F938F939F93AF93BF93EF93FF930E949C
:1004B0003C02FF91EF91BF91AF919F918F917F91FE
:1004C0006F915F914F913F912F910F900FBE0F90C1
:1004D0001F9018951F921FB61F9211242F933F93C0
:1004E0004F935F938F939F93AF93BF932CB53DB57D
:1004F0008091DC008115B1F01092DC003093E700B0
:100500002093E6001092E5001092E400BF91AF91B5
:100510009F918F915F914F913F912F911F901FBE9F
:100520001F9018958091E4009091E5004091E600BD
:100530005091E700DC0190E080E0841B950BA1095D
:10054000B109820F931FA11DB11D3093E7002093C5
:10055000E6001092E5001092E4008093E000909392
:10056000E100A093E200B093E30081E08093DF001C
:100570001092DD001092DE008091DA009091DB0095
:1005800001969093DB008093DA00C0CFEF92FF9248
:100590000F931F93CF93DF938C017B01892B09F479
:1005A0007EC06115710509F47AC0FB018689811549
:1005B00009F475C09FB7F8944091E0005091E100B4
:1005C0006091E2007091E3008091DF001092DF0003
:1005D000C091DA00D091DB001092DB001092DA00BB
:1005E0009FBF811509F448C041155105610571058A
:1005F00009F442C09A01AB0183E0220F331F441F6C
:10060000551F8A95D1F760E477E78BE190E00E946F
:100610000104F8012B3F31054105510550F52083B8
:100620003183828993898217930710F4228B338B4D
:100630001092DD001092DE00209789F1F7016689A3
:1006400070E08789908D0E94ED03C536D10510F0CA
:10065000C4E6D0E06C9FC0016D9F900D7C9F900D13
:100660001124DF91CF911F910F91FF90EF900C9487
:10067000950110821182DCCF8091DD009091DE0027
:100680008F3F980721F4F80110821182D5CF01968F
:100690008093DD009093DE000A9770F2F4CFDF9133
:1006A000CF911F910F91FF90EF9008958F938FB787
:1006B0008F939F938091E8009091E9000196909329
:1006C000E9008093E8009F918F918FBF8F911895DB
:1006D0008A98929A85B78C7F85BF85B7836085BFDE
:1006E0008BB780648BBF0895CF93DF93EC01FB0140
:1006F000892BE1F03097D1F0818D8115B9F08FB75A
:10070000F8942091E8003091E9001092E9001092ED
:10071000E8008FBFA0EFB0E00E94DE03218D30E043
:1007200040E050E00E9401042A833B83DF91CF9197
:100730000895789480E090E00895009770406040BC
:1007400009F19B01AC0164E0220F331F441F551FC8
:100750006A95D1F760E072E18AE790E00E940104B7
:10076000C901DA010197A109B1099031A105B105CB
:1007700048F490BD89B986E880BD88E18AB980E0F7
:1007800090E0089581E090E008955D9BFECF8CB9E4
:1007900080E090E00895CF93DF93EC01892B31F452
:1007A00081E090E008C021960E94C50388818111F4
:1007B000FACF80E090E0DF91CF910895A29FB00141
:1007C000B39FC001A39F700D811D1124911DB29F85
:1007D000700D811D1124911D0895AA1BBB1B51E1B1
:1007E00007C0AA1FBB1FA617B70710F0A61BB70BA1
:1007F000881F991F5A95A9F780959095BC01CD0146
:100800000895A1E21A2EAA1BBB1BFD010DC0AA1F51
:10081000BB1FEE1FFF1FA217B307E407F50720F069
:10082000A21BB30BE40BF50B661F771F881F991FE4
:100830001A9469F760957095809590959B01AC012D
:0A084000BD01CF010895F894FFCF29
:10084A00424F4F54204F4B0D0A005350443D002055
:0C085A0052504D3D00204F444F3D000027
:00000001FF
