:100000000C942A000C94970C0C9447000C94AB0BA6
:100010000C9447000C9447000C9447000C94470044
:100020000C9447000C94870B0C9466000C944700CA
:100030000C9447000C9447000C9447000C94470024
:100040000C9447000C9447000C9447000C94470014
:100050000C94470011241FBECFE5D8E0DEBFCDBF12
:1000600011E0A0E6B0E0ECEAF4E202C005900D92E7
:10007000AA39B107D9F722E0AAE9B1E001C01D927F
:10008000A631B207E1F70E946C000C944C120C945C
:100090000000CF93C82F81E00E94900E892BA1F41D
:1000A0008C2F0E947F0E0E949E0E41E062E082E053
:1000B0000E94790D85E08A95F1F7000040E062E04A
:1000C00082E0CF910C94790DCF9108958F9381E0C8
:1000D00080939E018F911895CDB7DEB7CB55D04058
:1000E0000FB6F894DEBF0FBECDBF83E494E48983DE
:1000F0009A8381E08B831C821D821E821F82188658
:1001000019861A861B861C861D8688E78E871F86A1
:100110008AE0888B9EE6998B8A8B80EE9EE28B8BA1
:100120009C8B88E99AE38D8B9E8B84E08F8B80ED8E
:1001300097E0888F998F82E08A8F1B8E1C8E1D8E90
:100140001E8E40E060E080E00E940E0D40E061E025
:1001500080E00E940E0D40E062E080E00E940E0D03
:1001600040E063E080E00E940E0D42E060E081E04C
:100170000E940E0D42E061E081E00E940E0D40E021
:1001800062E081E00E940E0D42E063E081E00E94A7
:100190000E0D41E064E081E00E940E0D41E065E05B
:1001A00081E00E940E0D40E066E081E00E940E0DAD
:1001B00041E067E081E00E940E0D42E060E082E0F5
:1001C0000E940E0D42E061E082E00E940E0D41E0CF
:1001D00062E082E00E940E0D42E063E082E00E9455
:1001E0000E0D42E064E082E00E940E0D42E065E008
:1001F00082E00E940E0D41E066E082E00E940E0D5A
:1002000041E067E082E00E940E0D40E060E083E0A4
:100210000E940E0D41E061E083E00E940E0D40E07F
:1002200062E083E00E940E0D42E063E083E00E9402
:100230000E0D42E064E083E00E940E0D42E065E0B6
:1002400083E00E940E0D40E066E083E00E940E0D08
:1002500041E067E083E00E940E0D41E064E081E050
:100260000E94790D40E062E082E00E94790D40E05A
:1002700066E082E00E94790D40E067E082E00E9443
:10028000790D40E067E083E00E94790D88E083BF4C
:100290008DE48CBF12BE89B7826089BF83B7856049
:1002A00083BF81E00E943F0E0E949B0A80E00E9473
:1002B0000F0B0E94E80A0E94850880E00E94490016
:1002C0000E9452090E94F0050E94DE080E944A0B1B
:1002D0000E94A90C0E943B0E0E947F068C010E9486
:1002E0008506F801138E2A961FAE2A9781E067963D
:1002F0008FAF67972B961FAE2B9764968FAF64973F
:100300002C961FAE2C9765968FAF65976A968FAF28
:100310006A972D961FAE2D9766968FAF6697612CC4
:10032000712C230126961FAE269768961FAE6897FC
:10033000120128961FAE1EAE289763968FAF639763
:100340002F968FAF2F97882E620172015E018FE189
:10035000A80EB11CCE01C0966B968FAF6B976C96B2
:100360009FAF6C9780919E018030E1F310929E01C7
:1003700041E066E082E00E94790DCE018C5B9F4FE8
:10038000AC0163E083E00E94BA0DCE018D5B9F4F0C
:10039000AC0164E083E00E94BA0DCE018E5B9F4FFA
:1003A000AC0165E083E00E94BA0DCE018F5B9F4FE8
:1003B000AC0163E081E00E94BA0D25968FAD2597D0
:1003C00066969FAD669789133EC02D968FAD2D978B
:1003D000833009F442C08F5F2D968FAF2D97833005
:1003E000E1F12E968FAE2E9724968FAD24976596C9
:1003F0009FAD6597891338C02C968FAD2C978330AD
:10040000D1F18F5F2C968FAF2C978330A1F123967B
:100410008FAD239764969FAD6497891333C02B9655
:100420008FAD2B97833009F453C08F5F2B968FAF1E
:100430002B97833009F44CC02F968FAD2F972996B8
:100440008FAF29972BC066968FAF66972E968FAE8B
:100450002E972D961FAE2D97C7CF66968FAD6697B8
:100460002E968FAF2E97C0CF65968FAF65972C963F
:100470001FAE2C97CCCF65968FAD65976A968FAFE0
:100480006A97C5CF64968FAF64972F968FAD2F97DD
:1004900029968FAF29972B961FAE2B9722968FAD5B
:1004A000229767969FAD6797891316C02A968FADDE
:1004B0002A97833049F08F5F2A968FAF2A976396E9
:1004C0009FAC6397833089F467969FAC67970DC0A4
:1004D00064968FAD6497B3CF67968FAF6797639637
:1004E0009FAC63972A961FAE2A972E968FAD2E97B4
:1004F000811125C081E069968FAF6997882D813081
:1005000019F069961FAE699728962EAD3FAD2897D2
:100510002F3F320731F0C901019628969FAF8EAF69
:10052000289768968FAD6897811107C028968EAD81
:100530009FAD2897883C9040E8F5812C0BC06996C8
:100540001FAE6997812C68961FAE689728961FAEDC
:100550001EAE289781E02F969FAD2F97913009F01E
:1005600080E091E029962FAD2997211190E0892311
:10057000911027C09FEF2916320409F42AC39FEF78
:10058000291A390A26969FAD2697911110C098EC2A
:100590002916310460F0F80116861786108A118A30
:1005A000612C712C230191E026969FAF2697811133
:1005B00020C028C08824839481E068968FAF689714
:1005C000C9CF63969FAD63979111FDC291E02696C6
:1005D0002FAD26972927922F982B26969FAF2697E7
:1005E000212C312C903071F026961FAE2697212CAD
:1005F000312CF801838D90E0019665E070E00E9457
:10060000140F838F8FEFC81AD80AE80AF80A81E01E
:100610002F968FAF2F976A968FAD6A97803019F01B
:100620002F961FAE2F971F8EC5010E949908892B08
:1006300039F48F8D8F73F801918D907C892B818F88
:10064000C8010E94B607F801418D20813181868959
:10065000978944FF8FC02B30310508F48BC0806828
:1006600045FF8AC02630310508F486C0916043FFFB
:1006700085C02630310508F481C09260F801868B70
:10068000978B4E855F8560919D01611179C04217FE
:10069000530708F07DC021E020939D018064F8019C
:1006A000868B978B2F962FAD2F97482D69966FAD20
:1006B0006997C8010E949306F801828D90916100AC
:1006C000891731F0813011F4128A138A8093610006
:1006D00080919A0190919B0101968D32910508F0CD
:1006E00059C080939A0190939B01C0FC0E944C06D4
:1006F000B601C70125E030E040E050E00E94280F3D
:1007000000977040614079F4F801828D833009F4DC
:1007100072C008F04BC0823009F44EC080E0F8018E
:10072000808F0E944900B601C7012AE030E040E016
:1007300050E00E94280F00977040624009F06FC09F
:10074000CE010196BC01C8010E94070CF80180810E
:1007500091818B3F910538F42C853D852817390709
:1007600010F48C879D87F801928D911146C080E02E
:1007700090E051C08F7774CF9E7F79CF9D7F7ECFE1
:10078000455050402417350708F088CF10929D013E
:100790008F7B85CF10929A0110929B0181E09091FE
:1007A0009C01911180E080939C019FCF843011F0D7
:1007B000873011F486E0B3CF40919C01F80126897F
:1007C000378925FB882780F921FD826022FD84601E
:1007D00023FD886024FD8061F801918D92FD806881
:1007E000403009F49CCF90FB222725F9822B91FF02
:1007F00096CF806494CF8FEF92CF818D837031F04C
:1008000081E020919C01211101C080E0963009F027
:1008100091C082E090E00E94E5080E94FB08B601CA
:10082000C70129E130E040E050E00E94280F63302A
:1008300071058707970709F08AC0CE010196BC01B0
:10084000C8010E94B50CB601C70122E330E040E0C8
:1008500050E00E94280F00977040644019F4C801CE
:100860000E945609B601C70124E630E040E050E09E
:100870000E94280F009770406640E1F5F801828DD4
:10088000803081F0848D958DA68DB78D0196A11D48
:10089000B11D848F958FA68FB78F8FEF481A580A96
:1008A000680A780A20E030E04114540464047404B7
:1008B000F1F0F8012685378540895189A4E2B0E03E
:1008C0000E94500F62966CAF7DAF8EAF9FAF629764
:1008D000AAE09201A3010E94500F9B01AC01629615
:1008E0006CAD7DAD8EAD9FAD62970E94280FF80173
:1008F000248B358BB601C70124EF31E040E050E096
:100900000E94280F00977040684011F40E94F6057D
:1009100040E066E082E00E94790D63969FAE6397A7
:1009200029968FAD29972F968FAF2F972E968FAC44
:100930002E9718CD90919D01903019F081E090E0B4
:100940006ACF803009F413CF83E090E064CF009742
:100950007040654009F077CFFE01F09681E1119279
:100960008A95E9F7F50181E111928A95E9F780917D
:100970006000F801928D2F96AFAE2F978B2C9111BE
:100980000AC0811160CF0E940F0B0E94E80A81E02B
:100990008093600058CF803029F081E00E940F0BD7
:1009A00010926000F801828D8330F1F463E670E00C
:1009B0006B968FAD6B976C969FAD6C970E945B0F9B
:1009C0006EE670E02F968FAD2F97982D0E945B0FEB
:1009D000A5016B966FAD6B976C967FAD6C97F80128
:1009E000838D0E94190B2FCF863031F58BE790E075
:1009F0009F938F931F9251E1852E8F926C968FADAE
:100A00006C978F936B968FAD6B978F930E94640F4B
:100A1000F80183818F9382818F9381818F9380816D
:100A20008F938DE890E09F938F931F928F92BF9248
:100A3000AF920E94640FA4C0838D813051F58189EB
:100A40008F9380898F9387858F9386858F938BE98A
:100A500090E09F938F931F9241E1842E8F92CE015D
:100A6000C0969F93CE01805D8F930E94640FF80122
:100A700083898F9382898F9385898F9384898F93BC
:100A800086EA90E09F938F931F928F92BF92AF92CE
:100A9000D0CF823021F586818F9385818F9383819A
:100AA0008F9382818F9384EB90E09F938F931F921B
:100AB00031E1832E8F92CE01C0969F93CE01805D4F
:100AC0008F930E94640FF80181856AE00E94080FED
:100AD0001F929F931F928F9381EC90E0D3CF83302E
:100AE00031F580858F9387818F938EEC90E09F9373
:100AF0008F931F9221E1822E8F92CE01C0969F93F9
:100B0000CE01805D8F930E94640FF80185858F93DD
:100B100084858F9383858F9382858F9388ED90E072
:100B20009F938F931F928F92BF92AF9282CF9081AB
:100B30002181843059F583818F9382818F932F9304
:100B40009F938DE890E09F938F931F9291E1892E60
:100B50008F92CE01C0969F93CE01805D8F930E94AD
:100B6000640FF80187898F9386898F9382EE90E0D6
:100B70009F938F931F928F92BF92AF920E94640FA8
:100B80000FB6F894DEBF0FBECDBF22CF2F939F9339
:100B90008EEE90E09F938F931F9281E1882E8F922B
:100BA000CE01C0969F93CE01805D8F930E94640F0B
:100BB000F80184811F928F9383818F9382818F9319
:100BC0008BEF90E0ADCF26961FAE2697212C312CCF
:100BD000EECC26969FAD2697903009F4DCCCE7CC7E
:100BE00060E875E280E090E00C94A20E0F931F93F2
:100BF000CF93DF93CDB7DEB7C058D1090FB6F894C5
:100C0000DEBF0FBECDBF0E947F06FC01892BC1F164
:100C100087898F9386898F9385858F9384858F931A
:100C200083858F9382858F9381851F928F93808593
:100C30008F9387818F9386818F9385818F93848112
:100C40001F928F9383818F9382818F9381818F9362
:100C500080818F9389E091E09F938F931F9280E82A
:100C60008F938E010F5F1F4F1F930F930E94640F8E
:100C7000C8010E94DD0E0FB6F894DEBF0FBECDBFD7
:100C8000C058DF4F0FB6F894DEBF0FBECDBFDF9167
:100C9000CF911F910F910895CF93DF930F92CDB70E
:100CA000DEB719820E94F00E892B71F4CE010196F5
:100CB0000E94D00E892B41F48981803569F040F47F
:100CC000813389F08D34A1F00F90DF91CF91089599
:100CD0008D3671F08037C1F781E090E00E94820686
:100CE00081E691E002C08CE491E00E94DD0EECCF41
:100CF00080E090E00E9482068DE791E0F6CF8FE9D8
:100D000091E008958093BA010895FC01818D8F735D
:100D1000818F128E1092C1011092C2011092BF01F8
:100D20001092C00108951F93CF93DF9300D00F92CC
:100D3000CDB7DEB78A839B83162F2983DC015A96B1
:100D40008C915A97411559F0811531F15A961C92A0
:100D50000F900F900F90DF91CF911F9108958530E4
:100D600079F48A819B810E9452080197039740F48D
:100D700086E0EA81FB81828F818D8068818FE8CF58
:100D8000AA81BB815A96EC91E83008F08AC0F0E065
:100D9000E25BFD4E0C944A0FEA81FB81818D8F7BD3
:100DA000818F81E01115A1F2828FD2CF111581F2CE
:100DB00083E0AA81BB815A968C931092C101109254
:100DC000C201C6CF8091C1019091C201019680936A
:100DD000C1019093C2018C32914008F4B9CF82E0F6
:100DE000EA81FB81E1CFF981F11509F4B1CF84E00B
:100DF000AA81BB815A968C931092C1011092C201B4
:100E00001092BF011092C001A3CF8091C1019091B7
:100E1000C20101968093C1019093C201EA81FB81D6
:100E200022813381253F3140C0F02091BF013091B4
:100E3000C0012F5F3F4F2093BF013093C001223389
:100E4000310578F085E0AA81BB815A968C938E910A
:100E50005997806459968C937BCF1092BF01109262
:100E6000C001843F9140B9CFEA81FB8182819381A7
:100E70008C32914028F68091BF019091C00101967B
:100E80008093BF019093C0018436910508F460CF30
:100E900087E0AA81BB815A968C938E9159978F7B5C
:100EA000D9CFEA81FB81128E53CF4FB7F8942091AE
:100EB000C3013091C401280F391F3093C40120931E
:100EC000C3018091C3019091C401883E934010F406
:100ED0004FBF08958091C3019091C401885E9340F3
:100EE0009093C4018093C3018091C9019091CA017C
:100EF000A091CB01B091CC018F3F9F4FAF4FBF4F1F
:100F000099F08091C9019091CA01A091CB01B09153
:100F1000CC010196A11DB11D8093C9019093CA0116
:100F2000A093CB01B093CC018091C5019091C601F3
:100F3000A091C701B091C8018F3F9F4FAF4FBF4FE6
:100F400009F4BFCF8091C5019091C601A091C7015E
:100F5000B091C8010196A11DB11D8093C501909368
:100F6000C601A093C701B093C801ABCFFC01218D8E
:100F700026FF41C081858A30F0F58091D60190919D
:100F8000D70101968093D6019093D701889718F0E6
:100F900081E08093D901858196818F36910584F116
:100FA0008091D4019091D50101968093D4019093C2
:100FB000D501CC9718F081E08093D8018781908586
:100FC00026FF23C08C30910500F58091D2019091CD
:100FD000D30101968093D2019093D3018436910579
:100FE00018F081E08093D1011092CF011092D001CE
:100FF0001092CE0129C01092D6011092D701CBCF0A
:101000001092D4011092D501D9CF1092D201109232
:10101000D3018E30910540F31092D101409728F40E
:101020001092CF011092D0010FC08091CF0190910A
:10103000D00101968093CF019093D0018436910521
:1010400018F081E08093CE0184818A30F0F481E051
:101050008093CD01268937898091D9018115D1F0FE
:1010600022608091D8018115B9F028608091D1016A
:101070009091CE01892B91F024608091CD01811552
:1010800079F02062268B378B08958E3018F31092FA
:10109000CD01E0CF2D7FE5CF277FE8CF2B7FEDCFB0
:1010A0002F7DF0CFFC012689378921FD16C022FD56
:1010B00017C023FD18C024FD19C025FD1AC026FD48
:1010C0001BC027FD1CC030FD1DC080E0932F927017
:1010D00031FF02C089E090E0089581E090E008953A
:1010E00082E090E0089583E090E0089584E090E04D
:1010F000089585E090E0089586E090E0089587E007
:1011000090E0089588E090E0089541E064E081E097
:101110000E940E0D8130910559F041E064E081E0BC
:101120000E94790D21E0019709F020E0822F90E0E4
:1011300008950F931F93CF93DF930F92CDB7DEB730
:101140008C01892B71F080E00E94900E019749F08C
:1011500040E064E081E00E94790D019751F40E9423
:101160009E0E81E090E00F90DF91CF911F910F9143
:10117000089541E064E081E00E94790D019779F3E0
:10118000BE016F5F7F4F8FEF0E94700E019739F3A2
:101190000E949E0E89818095F801808380E090E016
:1011A000E2CF8FE783BD8CE685BD81E08093DA01D5
:1011B000089515BC13BC1092DA01089541E067E070
:1011C00083E00E940E0D0C94D9082091DD0130912E
:1011D000DE012817390771F08093DD019093DE015D
:1011E0001092DB011092DC01892B11F40C94D908C8
:1011F0000C94D10808952091DD013091DE01211574
:101200003105E1F18091DB019091DC010196809341
:10121000DB019093DC0122303105A1F02330310550
:1012200041F12130310519F48530910511F40C9408
:10123000D908C29718F10E94D1081092DB011092D0
:10124000DC0108958333910530F48091DA01811136
:1012500015C00C94D1088733910549F3863991055F
:1012600068F00E94D10882E38093DB011092DC01D8
:10127000089584309105D9F20997DCCF089500973D
:1012800019F08F3F934049F4FB0190819F5F9A30A2
:1012900030F480E0FB019083089590E0FACF81E084
:1012A0009AE0F8CF66E081E00C94DA0C4F925F92FE
:1012B0006F927F928F929F92AF92BF92CF92DF9266
:1012C000EF92FF920F931F93CF93DF93CDB7DEB7CB
:1012D0002C970FB6F894DEBF0FBECDBF8C011F82D6
:1012E00018861D821E821B821C8219821A82BE01F0
:1012F000695F7F4F80E00E94F60CBE016B5F7F4FFD
:1013000081E00E94F60CBE016D5F7F4F82E00E947B
:10131000F60CBE016F5F7F4F83E00E94F60C8F805A
:10132000988462EE71E0C4010E943F098987AD8014
:10133000BE8061EE71E0C5010E943F098A87EB80A3
:10134000FC8060EE71E0C7010E943F098B87C98075
:10135000DA806FED71E0C6010E943F098C87F801C9
:1013600086899789F985F13051F02A85213039F045
:10137000EB85E13021F0FC85F13009F0A0C08061FF
:10138000F801868B978B8091E30190E09C01220FFE
:10139000331FF901EC50FE4F808291822C513E4F59
:1013A000F901A082B182019687708093E301E4EF96
:1013B000F1E0A4EEB1E084E092E0A12CB12C450173
:1013C0002401340141915191440E551E611C711C40
:1013D0004D915D91840E951EA11CB11C8E179F0727
:1013E00089F7F985F11114C043E076946794579416
:1013F00047944A95D1F79201A4E6B0E00E94F90E15
:101400002FEF33E040E050E00E94280FF8012483E2
:10141000FA85F11117C033E0B694A7949794879496
:101420003A95D1F79401AAEAB0E00E94F90E2FEFA5
:1014300033E040E050E00E94280F28523109F801C3
:1014400025833683FB85F11113C0B70180E090E05E
:1014500024E0660F771F881F991F2A95D1F72FEF79
:1014600033E040E050E00E94280FF80127833087E6
:10147000FC85F1110DC09601A4E6B0E00E94F90EC2
:101480002FEF33E040E050E00E94280FF801218761
:101490002C960FB6F894DEBF0FBECDBFDF91CF9173
:1014A0001F910F91FF90EF90DF90CF90BF90AF9082
:1014B0009F908F907F906F905F904F9008958F7E58
:1014C0005FCFCF93DF93D82FC62F0E94080E892BB2
:1014D00041F00E94160EC1E0D0E0CE01DF91CF9125
:1014E00008958EE30E941C0E892B99F78D2F0E9480
:1014F0002C0E892B71F78C2F0E942C0EEC01892B5E
:1015000041F70E94160EE9CF91E0209104022111CB
:1015100001C090E0682F892F880F880F880F0C94E6
:10152000610A682F80910402811519F088E40C94F7
:10153000610A80E4FCCF1092050281E080930402EE
:1015400060EA76E890E00E94E20D019719F481E0EC
:1015500090E008952FE788E391E02150804090408B
:10156000E1F700C0000080E30E94840A892B79F72C
:1015700080E30E94840A892B51F780E30E94840A49
:10158000892B29F788E30E94840A892B01F78CE0D4
:101590000E94840A892BD9F686E00E94840A892B4E
:1015A000B1F681E00E94840A892B89F6EFE9FFE019
:1015B0003197F1F700C0000082E00E94840A009792
:1015C00031F6EFE9FFE03197F1F700C00000089530
:1015D00081E00E94840A009731F4EFE9FFE031973F
:1015E000F1F700C0000008950F931F93CF938C0173
:1015F000C0E0892B59F481E090E0CF911F910F91C9
:1016000008950E94910A892BB1F7CF5FF801EC0F82
:10161000F11D80818111F5CF80E090E0EECF823026
:1016200028F48093040280E090E0089581E090E047
:101630000895EF92FF920F931F93CF93C82F7B01D2
:101640008A01853040F081E090E0CF911F910F91A9
:10165000FF90EF900895672BB1F3452BA1F30E9403
:10166000E80A892B81F780E80E94840A892B59F7C0
:10167000C7010E94F40A892B31F780EC0E94840A8A
:10168000892B09F7C8010E94F40A0097E1F6C0937C
:101690000502DBCFBA98C298109213021092120280
:1016A000109211021092100210920C0210920D0270
:1016B00010920E0210920F0210920B021092090269
:1016C00010920A0281E080930802109207021092A1
:1016D00006021FBC83E08EBD84E088BF89B78460AA
:1016E00089BF1DBC1CBC84B7806484BF8AB780627C
:1016F0008ABF8BB780628BBF089580911002909152
:1017000011020196909311028093100208951F9286
:101710000F920FB60F9211242F933F934F935F9325
:101720006F937F938F939F93AF93BF93EF93FF93A9
:101730000E947D0BFF91EF91BF91AF919F918F918F
:101740007F916F915F914F913F912F910F900FBEBD
:101750000F901F9018951F921FB61F9211242F9360
:101760003F934F935F938F939F93AF93BF932CB50A
:101770003DB5809108028115B1F0109208023093B6
:101780001302209312021092110210921002BF91C4
:10179000AF919F918F915F914F913F912F911F90AA
:1017A0001FBE1F90189580911002909111024091D8
:1017B000120250911302DC0190E080E0841B950B33
:1017C000A109B109820F931FA11DB11D309313020E
:1017D00020931202109211021092100280930C02B8
:1017E00090930D02A0930E02B0930F0281E08093BC
:1017F0000B021092090210920A0280910602909147
:10180000070201969093070280930602C0CFEF92E1
:10181000FF920F931F93CF93DF938C017B01892B52
:1018200009F47EC06115710509F47AC0FB0186894F
:10183000811509F475C09FB7F89440910C0250913E
:101840000D0260910E0270910F0280910B021092B6
:101850000B02C0910602D09107021092070210926B
:1018600006029FBF811509F448C041155105610565
:10187000710509F442C09A01AB0183E0220F331FC6
:10188000441F551F8A95D1F760E477E78BE190E01C
:101890000E94280FF8012B3F31054105510550F5F5
:1018A00020833183828993898217930710F4228BD6
:1018B000338B1092090210920A02209789F1F701E6
:1018C000668970E08789908D0E94140FC536D10516
:1018D00010F0C4E6D0E06C9FC0016D9F900D7C9F1E
:1018E000900D1124DF91CF911F910F91FF90EF90F8
:1018F0000C94550710821182DCCF809109029091DF
:101900000A028F3F980721F4F80110821182D5CF87
:1019100001968093090290930A020A9770F2F4CF1D
:10192000DF91CF911F910F91FF90EF9008958F93CA
:101930008FB78F939F938091140290911502019617
:1019400090931502809314029F918F918FBF8F9176
:1019500018958A98929A85B78C7F85BF85B78360E2
:1019600085BF8BB780648BBF0895CF93DF93EC0165
:10197000FB01892BE1F03097D1F0818D8115B9F011
:101980008FB7F8942091140230911502109215022D
:10199000109214028FBFA0EFB0E00E94F90E218DCB
:1019A00030E040E050E00E94280F2A833B83DF9123
:1019B000CF9108958430B8F49FEF960F973098F444
:1019C0003D9897B19F738295880F880F807C892BF3
:1019D00087B986B1887F86B986B1862B86B9379A52
:1019E00080E090E0089581E090E00895883098F4D8
:1019F0006115710581F097B1907E982B97B9369A51
:101A00003699FECF349A84B125B1FB0180832183BE
:101A100080E090E0089581E090E00895843008F03F
:101A200059C0683008F056C0433008F053C021E078
:101A300030E0F90101C0EE0F6A95EAF7823041F11A
:101A40008330B9F1813099F0413031F48AB38E2B73
:101A50008ABB80E090E008959AB38E2F80959823FA
:101A60009ABB4230E9F58BB38E2B8BBBF2CF413062
:101A700021F487B38E2B87BBECCF97B38E2F809545
:101A8000982397BB423079F588B38E2B88BBE1CF82
:101A9000413021F484B38E2B84BBDBCF94B38E2FE3
:101AA0008095982394BB423009F585B38E2B85BB76
:101AB000D0CF413021F481B38E2B81BBCACF91B3FB
:101AC0008E2F8095982391BB423039F482B38E2BB0
:101AD00082BBBFCF81E090E0089592B38923F8CF15
:101AE0009BB38923C2CF98B38923D0CF95B38923E1
:101AF000DECF8430E0F56830D0F54230C0F521E02B
:101B000030E0F90101C0EE0F6A95EAF76E2F8230DE
:101B1000D1F0833011F1813061F08BB3413029F481
:101B20008E2B8BBB80E090E00895609568236BBBA3
:101B3000F9CF88B3413019F48E2B88BBF3CF609571
:101B4000682368BBEFCF85B3413019F48E2B85BB7A
:101B5000E9CF6095682365BBE5CF82B3413019F4C6
:101B60008E2B82BBDFCF6095682362BBDBCF81E029
:101B700090E00895FA01843010F5683000F5309750
:101B8000F1F021E030E0A90101C0440F6A95EAF7C5
:101B9000642F823081F0833081F0813051F089B33D
:101BA000862391E0811101C090E0908380E090E075
:101BB000089586B3F5CF83B3F3CF80B3F1CF81E03F
:101BC00090E008959B01AC012115310541055105B7
:101BD000E1F060E072E18AE790E00E94280FC9011D
:101BE000DA014097A109B109AC01BD01769567956D
:101BF000579547959230A105B10538F440B911B811
:101C000084E086BF80E090E0089581E090E0089550
:101C100084EA86BF06B607FEFDCF91B1987F21E02A
:101C200030E0983009F420E0C901089584E986BFC6
:101C300006B604FCFDCF0895880F83B984E886BFFB
:101C400006B607FEFDCF91B1987F21E030E09831D4
:101C500009F420E0C901089583B984E886BF06B677
:101C600007FEFDCF91B1987F21E030E0983209F472
:101C700020E0C9010895789480E090E00895CF9322
:101C8000C82F843020F081E090E0CF91089541E0AA
:101C900064E081E00E940E0D0197A9F341E065E048
:101CA00081E00E940E0D019771F340E066E081E053
:101CB0000E940E0D019739F341E067E081E00E9438
:101CC0000E0D019701F341E064E081E00E94790D7F
:101CD0000197C9F27098C065CDB980E090E0D5CF8A
:101CE0006115710549F08FB9779BFECF8FB1FB016C
:101CF000808380E090E0089581E090E00895CF93A4
:101D0000DF930F92CDB7DEB78FB9779BFECF8FB140
:101D10008983898180E090E00F90DF91CF910895D1
:101D20008F3F49F0909162009F3F29F480936200B9
:101D300080E090E0089581E090E008958FEF809337
:101D40006200089500977040604009F19B01AC016A
:101D500064E0220F331F441F551F6A95D1F760E0DE
:101D600072E18AE790E00E94280FC901DA01019729
:101D7000A109B1099031A105B10548F490BD89B917
:101D800086E880BD88E18AB980E090E0089581E02E
:101D900090E008955D9BFECF8CB980E090E00895BF
:101DA000009741F05F9BFECF2CB1FC01208380E0C7
:101DB00090E0089581E090E00895CF93DF93EC01E7
:101DC000892B31F481E090E008C021960E94CA0E70
:101DD00088818111FACF80E090E0DF91CF91089562
:101DE0008BB1880F990B909597FB882780F990E02D
:101DF0000895A29FB001B39FC001A39F700D811DE4
:101E00001124911DB29F700D811D1124911D089503
:101E1000992778E0880F991F961708F0961B881F5E
:101E20007A95C9F780950895AA1BBB1B51E107C09D
:101E3000AA1FBB1FA617B70710F0A61BB70B881F5A
:101E4000991F5A95A9F780959095BC01CD010895E9
:101E5000A1E21A2EAA1BBB1BFD010DC0AA1FBB1FAE
:101E6000EE1FFF1FA217B307E407F50720F0A21B20
:101E7000B30BE40BF50B661F771F881F991F1A948D
:101E800069F760957095809590959B01AC01BD01B7
:101E9000CF010895EE0FFF1F0590F491E02D0994F6
:101EA0000E94F90EA59F900DB49F900DA49F800DE8
:101EB000911D11240895FB01DC010C945F0F01902A
:101EC0000D920020E1F70895AEE0B0E0EAE6FFE011
:101ED0000C94251286E08C838B899C8989839A8354
:101EE0008D899E89813020E8920710F080E090E88B
:101EF00001978D839E83CE014996AC016F89788DC1
:101F000048970E94960F4D815E8157FD0BC0EF816F
:101F1000F8854E175F070CF4FA012B893C89E20F14
:101F2000F31F10822E96E2E00C944112ABE0B0E079
:101F3000ECE9FFE00C9418125C016B017A01FC01E2
:101F400016821782838181FFC9C1F5012381F601C1
:101F500023FD859123FF81916F01803009F429C110
:101F6000853239F423FD959123FF91916F019532CC
:101F700029F4B50190E00E948711E7CF30E0712C81
:101F8000512C00E0003210F59B32C9F050F4903231
:101F9000B9F09332C9F09E3269F506FD0AC10064BA
:101FA00005C09D3279F0903399F40160F60123FD6C
:101FB000959123FF91916F019111E4CF24C00260AC
:101FC0000460F4CF0860F2CF0061F0CF07FD1BC0C2
:101FD000892F80538A30F8F69AE006FF05C0799E73
:101FE000800D1124782EE2CF599E800D1124582E99
:101FF0000062DCCF9C3611F40068D8CF9C3409F421
:1020000048C0983699F2892F8F7D8554833008F423
:1020100042C0933609F464C0933709F468C093351D
:1020200009F474C0943619F0993609F0A0C0F7018C
:1020300007FF96C081919191A191B1917F010F7697
:10204000B7FF08C0B095A095909581959F4FAF4F71
:10205000BF4F00682AE030E04E014FEF841A940A27
:10206000A401BC01CD010E94B7118819882E06FF7A
:10207000C1C0802F8E7F871408F0BBC004FF0CC145
:1020800002FD00C10E7E972C802F867809F4BDC01A
:10209000FEC031E08BCF3030F9F088E0E80EF11C63
:1020A0008FE3898381E0682E712C4E018FEF881AAF
:1020B000980A0F7703FD03C065147104B8F1611429
:1020C0007604D9F5511409F440CFB50180E290E0CF
:1020D0000E9487115A94F6CF84E0E80EF11CE0CFFD
:1020E000F7018081898382E0E80EF11CDBCFF701E4
:1020F000819091907F01672D70E006FD02C06FEF27
:102100007FEFC4010E947C113C01D3CFF701819085
:1021100091907F01672D70E006FD02C06FEF7FEFA9
:10212000C4010E9471113C010068C4CFB50180E276
:1021300090E00E9487115A94BFCFF40107FD85916A
:1021400007FF81914F01B50190E00E94871181E066
:10215000511001C080E0581A81E0681A7108AFCFB1
:1021600081919191A92FAA0FAA0BBA2F67CF102F97
:102170009537B9F41F7E2AE030E0F70117FF34C02D
:1021800061917191819191917F014E014FEF841A7C
:10219000940AA4010E94B7118819882E1F77012F75
:1021A00066CF197F903799F058F4983599F09F369B
:1021B000C1F0F501868197812B96EFE00C943412E3
:1021C0009837B9F704FD04C020E130E0D6CF1061A4
:1021D0001460FACF04FF02C0102F166020E132E035
:1021E000CCCF28E030E0C9CF6191719180E090E0E0
:1021F000CBCF082F982C04FF47CFFE01E80DF11D2F
:102200008081803309F041C0097E03FD0CC000FFCE
:102210004FC0782C951418F4750C7918952C9514DA
:1022200008F048C0952C951408F044C0591804FFD4
:1022300043C0B50180E390E00E94871102FF09C00E
:1022400088E590E001FD02C088E790E0B5010E94BA
:1022500087118714E0F13E018FEF681A780A882D04
:1022600081504E0192E0890E911C880E911CF40160
:1022700082914F01B50190E00E9487118614970466
:10228000B1F720CF972C082FB8CF02FD02C093944E
:10229000BCCF93949394B9CF972C082FF5CEB5016A
:1022A00080E290E00E94871163946514C0F3B7CF79
:1022B000692CFBCF512CBBCF802F867851F280E266
:1022C00001FD8BE207FD8DE2B50190E0C0CFB501C5
:1022D00080E390E00E9487117A94BBCF8FEF9FEF4D
:1022E0006BCFFC010590615070400110D8F78095CC
:1022F00090958E0F9F1F0895FC01615070400190D2
:102300000110D8F7809590958E0F9F1F08950F9319
:102310001F93CF93DF93182F092FEB018B8181FD42
:1023200009C00FEF1FEF812F902FDF91CF911F91E9
:102330000F91089582FF14C02E813F818C819D8171
:10234000281739073CF4E881F981CF010196888389
:10235000998310838E819F8101968E839F83E3CF23
:10236000E885F985812F0995892BA1F3DACFFA0148
:10237000AA27283051F1203181F1E8946F936E7FC4
:102380006E5F7F4F8F4F9F4FAF4FB1E03ED0B4E0B5
:102390003CD0670F781F891F9A1FA11D680F791FF6
:1023A0008A1F911DA11D6A0F711D811D911DA11D07
:1023B00020D009F468943F912AE0269F1124301917
:1023C000305D3193DEF6CF010895462F4770405DB2
:1023D0004193B3E00FD0C9F7F6CF462F4F70405D61
:1023E0004A3318F0495D31FD4052419302D0A9F7BC
:1023F000EACFB4E0A6959795879577956795BA95B6
:10240000C9F700976105710508959B01AC010A2E7B
:1024100006945795479537952795BA95C9F7620F52
:10242000731F841F951FA01D08952F923F924F92F6
:102430005F926F927F928F929F92AF92BF92CF9254
:10244000DF92EF92FF920F931F93CF93DF93CDB75D
:10245000DEB7CA1BDB0B0FB6F894DEBF0FBECDBFD5
:1024600009942A88398848885F846E847D848C84A6
:102470009B84AA84B984C884DF80EE80FD800C81AF
:102480001B81AA81B981CE0FD11D0FB6F894DEBF92
:102490000FBECDBFED010895F894FFCFCC06D60650
:0C24A000F306E20605073407A806F30661
:1024AC0001FFFF42554C4220434845434B00414CF1
:1024BC004C204C414D5053204F4E00212120535461
:1024CC004F5020454E47494E452021210053504442
:1024DC003A25752052504D3A257500545249503AC0
:1024EC00256C75206D004156473A2575204D415895
:1024FC003A25750052504D3A257520433A256443D0
:10250C00004F494C3A25752E257562617200424187
:10251C00543A2575206D56004F444F3A256C752062
:10252C006D005741524E3A30782530345800535094
:10253C00443A253375204B4D2F480052504D3A25C7
:10254C007520463A257525250054454C7C5350443E
:10255C003A25757C52504D3A25757C464C3A25757A
:10256C007C434C543A25647C4241543A25757C4F4B
:10257C00494C3A25757C4F444F3A256C757C574134
:10258C00524E3A3078253034580D0A00434D443AB7
:10259C0020544553545F4C414D50535F4F4E0D0AE0
:1025AC0000434D443A20504147455F4348414E4714
:1025BC0045445F544F5F545249500D0A00434D44FB
:1025CC003A20504147455F4348414E4745445F548C
:0A25DC004F5F4D41494E0D0A00000B
:00000001FF
