:100000000C942A000C9447000C9447000C94470071
:100010000C9447000C9447000C9464030C94470024
:100020000C9447000C9488030C9447000C944700F0
:100030000C9447000C9447000C9447000C94470024
:100040000C9447000C9447000C9447000C94470014
:100050000C94470011241FBECFE5D8E0DEBFCDBF12
:1000600010E0A0E6B0E0ECE7FAE002C005900D92E7
:10007000A83FB107D9F721E0A8EFB0E001C01D9279
:10008000A930B207E1F70E9449000C9434050C94A2
:100090000000CDB7DEB7E2970FB6F894DEBF0FBE13
:1000A000CDBF40E060E080E00E94C80340E061E036
:1000B00080E00E94C80340E062E080E00E94C80344
:1000C00040E063E080E00E94C80342E060E081E03D
:1000D0000E94C80342E061E081E00E94C80342E060
:1000E00062E081E00E94C80342E063E081E00E9498
:1000F000C80341E064E081E00E94C80341E065E09C
:1001000081E00E94C80340E066E081E00E94C803ED
:1001100041E067E081E00E94C80342E060E082E0E5
:100120000E94C80342E061E082E00E94C80341E00F
:1001300062E082E00E94C80342E063E082E00E9445
:10014000C80342E064E082E00E94C80342E065E048
:1001500082E00E94C80341E066E082E00E94C8039A
:1001600041E067E082E00E94C80340E060E083E095
:100170000E94C80341E061E083E00E94C80340E0C0
:1001800062E083E00E94C80342E063E083E00E94F3
:10019000C80342E064E083E00E94C80342E065E0F7
:1001A00083E00E94C80340E066E083E00E94C80349
:1001B00041E067E083E00E94C80341E064E081E041
:1001C0000E94330440E062E082E00E94330440E099
:1001D00066E082E00E94330440E067E082E00E9433
:1001E000330440E067E083E00E9433048E010F5F38
:1001F0001F4FF80180E211928A95E9F70E94A80248
:100200000E946A0284E690E00E94F504C8010E9400
:10021000670180E1E0E6F0E0DE01919601900D9249
:100220008A95E1F7E12CF12CCC24C394CE01C2963F
:10023000AC0163E083E00E947404CE01C196AC017E
:1002400064E083E00E94740439A9DAA861E08C2D8F
:10025000813009F060E081E0D11080E06823D110A6
:100260002DC08FEFE81AF80A41E088ECE816F10497
:1002700008F440E08B8D843029F5303029F180E09E
:1002800090E09B838C8321E0311120E0C8010E9423
:10029000750160E080E00E94F502EB8DC8018E0FD1
:1002A000911D8E0F911DFC0180A191A10E9403035D
:1002B0008AE090E00E94F504CD2CB8CF40E0E12C1C
:1002C000F12CD8CF8530DACF83E090E2DACFFC0191
:1002D000818D8F73818F128E1092FA001092FB0025
:1002E0001092F8001092F90008951F93CF93DF93B6
:1002F00000D00F92CDB7DEB78A839B83162F298358
:10030000DC015A968C915A97411559F0811531F1BB
:100310005A961C920F900F900F90DF91CF911F91E2
:100320000895853079F48A819B810E943702019774
:10033000039740F486E0EA81FB81828F818D80689B
:10034000818FE8CFAA81BB815A96EC91E83008F002
:100350008AC0F0E0EA5CFA4F0C942E05EA81FB813A
:10036000818D8F7B818F81E01115A1F2828FD2CF99
:10037000111581F283E0AA81BB815A968C93109269
:10038000FA001092FB00C6CF8091FA009091FB001A
:1003900001968093FA009093FB008C32914008F410
:1003A000B9CF82E0EA81FB81E1CFF981F11509F44F
:1003B000B1CF84E0AA81BB815A968C931092FA0047
:1003C0001092FB001092F8001092F900A3CF8091D8
:1003D000FA009091FB0001968093FA009093FB0045
:1003E000EA81FB8122813381253F3140C0F0209199
:1003F000F8003091F9002F5F3F4F2093F8003093C1
:10040000F9002233310578F085E0AA81BB815A9644
:100410008C938E915997806459968C937BCF1092D0
:10042000F8001092F900843F9140B9CFEA81FB8136
:10043000828193818C32914028F68091F8009091CE
:10044000F90001968093F8009093F90084369105A5
:1004500008F460CF87E0AA81BB815A968C938E9175
:1004600059978F7BD9CFEA81FB81128E53CFFC0144
:100470002689378921FD16C022FD17C023FD18C02B
:1004800024FD19C025FD1AC026FD1BC027FD1CC078
:1004900030FD1DC080E0932F927031FF02C089E0D3
:1004A00090E0089581E090E0089582E090E0089562
:1004B00083E090E0089584E090E0089585E090E086
:1004C000089586E090E0089587E090E0089588E040
:1004D00090E0089566E081E00C94AC03CF93DF9345
:1004E000D82FC62F0E94C204892B41F00E94D0044D
:1004F000C1E0D0E0CE01DF91CF9108958EE30E945C
:10050000D604892B99F78D2F0E94E604892B71F769
:100510008C2F0E94E604EC01892B41F70E94D00445
:10052000E9CF91E02091FC00211101C090E0682FFB
:10053000892F880F880F880F0C946E02682F809186
:10054000FC00811519F088E40C946E0280E4FCCF65
:100550001092FD0081E08093FC0060EA76E890E074
:100560000E949C04019719F481E090E008952FE720
:1005700088E391E0215080409040E1F700C0000006
:1005800080E30E949102892B79F780E30E94910217
:10059000892B51F780E30E949102892B29F788E388
:1005A0000E949102892B01F78CE00E949102892B15
:1005B000D9F686E00E949102892BB1F681E00E9473
:1005C0009102892B89F6EFE9FFE03197F1F700C03E
:1005D000000082E00E949102009731F6EFE9FFE00F
:1005E0003197F1F700C000000895823048F460317F
:1005F00038F4813009F4605C862F80680C94910295
:1006000081E090E008950F931F93CF938C01C0E099
:10061000892B59F481E090E0CF911F910F910895BB
:100620000E949E02892BB1F7CF5FF801EC0FF11DFC
:1006300080818111F5CF80E090E0EECF26B537B50F
:1006400008B602FE0EC037FD0CC0809100019091EB
:1006500001010196909301018093000188B78460A5
:1006600088BF80910001909101014091FE0050915E
:10067000FF00DC0190E080E0841B950BA109B1092B
:10068000820F931FA11DB11D3093FF002093FE0028
:1006900010920101109200018093020190930301D6
:1006A000A0930401B093050181E0809306011092AC
:1006B0000801109207010895EEEFF0E08281938126
:1006C00001969383828308951F920F920FB60F9223
:1006D00011242F933F934F935F936F937F938F9347
:1006E0009F93AF93BF93EF93FF930E941E03FF91DD
:1006F000EF91BF91AF919F918F917F916F915F919A
:100700004F913F912F910F900FBE0F901F90189512
:100710001F920F920FB60F9211242F933F934F9376
:100720005F936F937F938F939F93AF93BF93EF9359
:10073000FF930E945C03FF91EF91BF91AF919F9156
:100740008F917F916F915F914F913F912F910F907A
:100750000FBE0F901F9018958430B8F49FEF960F3E
:10076000973098F43D9897B19F738295880F880FC2
:10077000807C892B87B986B1887F86B986B1862B24
:1007800086B9379A80E090E0089581E090E008957E
:10079000843008F059C0683008F056C0433008F083
:1007A00053C021E030E0F90101C0EE0F6A95EAF78D
:1007B000823041F18330B9F1813099F0413031F428
:1007C0008AB38E2B8ABB80E090E008959AB38E2F77
:1007D000809598239ABB4230E9F58BB38E2B8BBB67
:1007E000F2CF413021F487B38E2B87BBECCF97B388
:1007F0008E2F8095982397BB423079F588B38E2B46
:1008000088BBE1CF413021F484B38E2B84BBDBCF96
:1008100094B38E2F8095982394BB423009F585B30D
:100820008E2B85BBD0CF413021F481B38E2B81BB81
:10083000CACF91B38E2F8095982391BB423039F463
:1008400082B38E2B82BBBFCF81E090E0089592B33C
:100850008923F8CF9BB38923C2CF98B38923D0CF04
:1008600095B38923DECF8430E0F56830D0F542308F
:10087000C0F521E030E0F90101C0EE0F6A95EAF71A
:100880006E2F8230D1F0833011F1813061F08BB363
:10089000413029F48E2B8BBB80E090E00895609569
:1008A00068236BBBF9CF88B3413019F48E2B88BB1A
:1008B000F3CF6095682368BBEFCF85B3413019F45F
:1008C0008E2B85BBE9CF6095682365BBE5CF82B3EE
:1008D000413019F48E2B82BBDFCF6095682362BB59
:1008E000DBCF81E090E00895FA01843010F56830A4
:1008F00000F53097F1F021E030E0A90101C0440F8C
:100900006A95EAF7642F823081F0833081F081307C
:1009100051F089B3862391E0811101C090E090836A
:1009200080E090E0089586B3F5CF83B3F3CF80B332
:10093000F1CF81E090E008959B01AC0121153105D4
:1009400041055105E1F060E072E18AE790E00E9424
:100950000C05C901DA014097A109B109AC01BD013B
:1009600076956795579547959230A105B10538F46E
:1009700040B911B884E086BF80E090E0089581E03E
:1009800090E0089584EA86BF06B607FEFDCF91B1D8
:10099000987F21E030E0983009F420E0C901089503
:1009A00084E986BF06B604FCFDCF0895880F83B99D
:1009B00084E886BF06B607FEFDCF91B1987F21E09F
:1009C00030E0983109F420E0C901089583B984E842
:1009D00086BF06B607FEFDCF91B1987F21E030E0DB
:1009E000983209F420E0C90108959C0182E088BF93
:1009F00093B7987F936093BF2115310531F483B786
:100A0000887F83BF80E090E008952150310908B6C7
:100A100001FEFDCF88BFF0CFA1E21A2EAA1BBB1B9F
:100A2000FD010DC0AA1FBB1FEE1FFF1FA217B307BA
:100A3000E407F50720F0A21BB30BE40BF50B661FD0
:100A4000771F881F991F1A9469F760957095809594
:100A500090959B01AC01BD01CF010895EE0FFF1FE2
:100A60000590F491E02D0994F894FFCFAE01B80100
:0C0A7000D501C401E70116028A01D5017E
:100A7C00700081009200A300B400C500D600E7000E
:100A8C0053746174653A204F464620202020202064
:100A9C000053746174653A20414343202020202088
:100AAC00200053746174653A2042554C4243484BC4
:100ABC0020200053746174653A2049474E495449CB
:100ACC004F4E200053746174653A204352414E4B93
:100ADC00494E47200053746174653A2052554E4E6E
:100AEC00494E4720200053746174653A2053544199
:100AFC004C4C454420200053746174653A204C4999
:080B0C004D505F484F4D4500BC
:00000001FF
