:100000000C942A000C9447000C9447000C94470071
:100010000C9447000C9447000C9477010C94470013
:100020000C9447000C949B010C9447000C944700DF
:100030000C9447000C9447000C9447000C94470024
:100040000C9447000C9447000C9447000C94470014
:100050000C94470011241FBECFE5D8E0DEBFCDBF12
:1000600010E0A0E6B0E0EEE4F5E002C005900D92ED
:10007000A837B107D9F720E0A8E7B0E001C01D928A
:10008000A538B207E1F70E9449000C94A5020C9430
:10009000000042E060E082E00E94BF0142E061E0D7
:1000A00082E00E94BF010E94A50081E00E9427011A
:1000B0000E94F20060E080E00E94FE0080E690E096
:1000C0000E940C0160E081E00E94FE008AE690E060
:1000D0000E940C01FFCFCF93DF93D82FC62F0E9431
:1000E0005002892B41F00E945E02C1E0D0E0CE01B7
:1000F000DF91CF9108958EE30E946402892B99F7D6
:100100008D2F0E947402892B71F78C2F0E9474022C
:10011000EC01892B41F70E945E02E9CF91E020912A
:100120007800211101C090E0682F892F880F880F77
:10013000880F0C946B00682F80917800811519F05E
:1001400088E40C946B0080E4FCCF1092790081E08D
:100150008093780060EA76E890E00E942A02019796
:1001600019F481E090E008952FE788E391E02150B1
:1001700080409040E1F700C0000080E30E948E00C4
:10018000892B79F780E30E948E00892B51F780E359
:100190000E948E00892B29F788E30E948E00892B0C
:1001A00001F78CE00E948E00892BD9F686E00E9430
:1001B0008E00892BB1F681E00E948E00892B89F692
:1001C000EFE9FFE03197F1F700C0000082E00E9404
:1001D0008E00009731F6EFE9FFE03197F1F700C0AC
:1001E0000000089581E00E948E00009731F4EFE94D
:1001F000FFE03197F1F700C000000895823048F425
:10020000603138F4813009F4605C862F80680C948A
:100210008E0081E090E008950F931F93CF938C019F
:10022000C0E0892B59F481E090E0CF911F910F91AC
:1002300008950E949B00892BB1F7CF5FF801EC0F66
:10024000F11D80818111F5CF80E090E0EECF82300A
:1002500028F48093780080E090E0089581E090E0B9
:10026000089526B537B508B602FE0EC037FD0CC09E
:1002700080917C0090917D00019690937D00809309
:100280007C0088B7846088BF80917C0090917D005D
:1002900040917A0050917B00DC0190E080E0841B6B
:1002A000950BA109B109820F931FA11DB11D3093B8
:1002B0007B0020937A0010927D0010927C00809346
:1002C0007E0090937F00A0938000B093810081E036
:1002D0008093820010928400109283000895EAE7D0
:1002E000F0E08281938101969383828308951F9227
:1002F0000F920FB60F9211242F933F934F935F935A
:100300006F937F938F939F93AF93BF93EF93FF93DD
:100310000E943101FF91EF91BF91AF919F918F9119
:100320007F916F915F914F913F912F910F900FBEF1
:100330000F901F9018951F920F920FB60F921124D5
:100340002F933F934F935F936F937F938F939F93DD
:10035000AF93BF93EF93FF930E946F01FF91EF91D3
:10036000BF91AF919F918F917F916F915F914F91CD
:100370003F912F910F900FBE0F901F9018958430D2
:1003800008F059C0683008F056C0433008F053C038
:1003900021E030E0F90101C0EE0F6A95EAF7823002
:1003A00041F18330B9F1813099F0413031F48AB3B1
:1003B0008E2B8ABB80E090E008959AB38E2F8095B3
:1003C00098239ABB4230E9F58BB38E2B8BBBF2CFCF
:1003D000413021F487B38E2B87BBECCF97B38E2FA0
:1003E0008095982397BB423079F588B38E2B88BBD4
:1003F000E1CF413021F484B38E2B84BBDBCF94B3A7
:100400008E2F8095982394BB423009F585B38E2BAF
:1004100085BBD0CF413021F481B38E2B81BBCACFB5
:1004200091B38E2F8095982391BB423039F482B3DB
:100430008E2B82BBBFCF81E090E0089592B38923D9
:10044000F8CF9BB38923C2CF98B38923D0CF95B37C
:100450008923DECF9B01AC012115310541055105F2
:10046000E1F060E072E18AE790E00E948302C90156
:10047000DA014097A109B109AC01BD0176956795F4
:10048000579547959230A105B10538F440B911B898
:1004900084E086BF80E090E0089581E090E00895D8
:1004A00084EA86BF06B607FEFDCF91B1987F21E0B2
:1004B00030E0983009F420E0C901089584E986BF4E
:1004C00006B604FCFDCF0895880F83B984E886BF83
:1004D00006B607FEFDCF91B1987F21E030E098315C
:1004E00009F420E0C901089583B984E886BF06B6FF
:1004F00007FEFDCF91B1987F21E030E0983209F4FA
:1005000020E0C9010895A1E21A2EAA1BBB1BFD0120
:100510000DC0AA1FBB1FEE1FFF1FA217B307E407E2
:10052000F50720F0A21BB30BE40BF50B661F771F3A
:10053000881F991F1A9469F760957095809590951A
:0E0540009B01AC01BD01CF010895F894FFCFDF
:10054E0048454C4C4F204C434400524541445920A1
:08055E00444953504C4159007F
:00000001FF
