:100000000C942A000C9447000C9447000C94470071
:100010000C9447000C9447000C9438030C94470050
:100020000C9447000C945C030C9447000C9447001C
:100030000C9447000C9447000C9447000C94470024
:100040000C9447000C9447000C9447000C94470014
:100050000C94470011241FBECFE5D8E0DEBFCDBF12
:1000600010E0A0E6B0E0E6E1F1E102C005900D92FB
:10007000A43DB107D9F721E0A4EDB0E001C01D9285
:10008000A130B207E1F70E9449000C9489080C9452
:100090000000CDB7DEB765970FB6F894DEBF0FBE90
:1000A000CDBF19861F8218861D821E821B821C826C
:1000B00019821A8241E062E082E00E94B40340E0CB
:1000C00062E082E00E941F0481E00E94B9040E9465
:1000D0008B010E94D7010E942C010E9415020E94F0
:1000E000620260E080E00E946E0281E690E00E9481
:1000F0007C0260E081E00E946E0280E790E00E9456
:100100007C022FEF89E698E1215080409040E1F792
:1001100000C00000B12C8FEFC82E83E0D82EE12C58
:10012000F12CBE01695F7F4F80E00E949C03BE01FD
:100130006B5F7F4F81E00E949C03BE016D5F7F4F2C
:1001400082E00E949C03BE016F5F7F4F83E00E94AC
:100150009C032F813885A4E6B0E00E944C059601EF
:10016000A7010E945B052A873B874C875D872D810D
:100170003E81AAEAB0E00E944C059601A7010E94C8
:100180005B058901085211092B813C81A0E8BEE37F
:100190000E944C059601A7010E945B052E873F87B0
:1001A000488B598B29813A81A4E6B0E00E944C0526
:1001B0009601A7010E945B052A8B3B8B4C8B5D8BC4
:1001C000CE0109960E949F010E94620260E080E0D9
:1001D0000E946E0280E890E00E947C026A8570E0D6
:1001E00080E090E00E94970283E890E00E947C0209
:1001F0006E857F8580E090E00E94970286E890E01F
:100200000E947C0260E081E00E946E0289E890E03A
:100210000E947C02B801110F880B982F0E94970250
:100220008CE890E00E947C026A8970E080E090E0B7
:100230000E9497022AE0B21659F0B3948FEF90E72C
:1002400022E0815090402040E1F700C0000069CFDB
:100250000E943201B12CF2CF60E875E280E090E0BC
:100260000C940B050F931F93CF93DF93CDB7DEB79D
:10027000C058D1090FB6F894DEBF0FBECDBF0E94A3
:100280008801FC01892BC1F187898F9386898F931F
:1002900085858F9384858F9383858F9382858F93B4
:1002A00081851F928F9380858F9387818F9386811D
:1002B0008F9385818F9384811F928F9383818F93F6
:1002C00082818F9381818F9380818F9381E990E0E8
:1002D0009F938F931F9280E88F938E010F5F1F4F24
:1002E0001F930F930E947D05C8010E9439050FB628
:1002F000F894DEBF0FBECDBFC058DF4F0FB6F894E5
:10030000DEBF0FBECDBFDF91CF911F910F9108953A
:1003100084ED90E0089541E064E081E00E94B40340
:100320008130910559F041E064E081E00E941F04B2
:1003300021E0019709F020E0822F90E008950F93CB
:100340001F93CF93DF930F92CDB7DEB78C01892B2C
:1003500071F080E00E94F904019749F040E064E008
:1003600081E00E941F04019751F40E94070581E07B
:1003700090E00F90DF91CF911F910F91089541E090
:1003800064E081E00E941F04019779F3BE016F5F72
:100390007F4F8FEF0E94EA04019739F30E9407050F
:1003A00089818095F801808380E090E0E2CF66E06B
:1003B00080E00C948003CF93DF93D82FC62F0E9448
:1003C0008604892B41F00E949404C1E0D0E0CE0164
:1003D000DF91CF9108958EE30E949A04892B99F7BB
:1003E0008D2F0E94AA04892B71F78C2F0E94AA04DA
:1003F000EC01892B41F70E949404E9CF91E0209110
:10040000F400211101C090E0682F892F880F880F18
:10041000880F0C94DB01682F8091F400811519F08E
:1004200088E40C94DB0180E4FCCF1092F50081E0BD
:100430008093F40060EA76E890E00E9460040197FF
:1004400019F481E090E008952FE788E391E02150CE
:1004500080409040E1F700C0000080E30E94FE0170
:10046000892B79F780E30E94FE01892B51F780E305
:100470000E94FE01892B29F788E30E94FE01892B47
:1004800001F78CE00E94FE01892BD9F686E00E94DC
:10049000FE01892BB1F681E00E94FE01892B89F6CD
:1004A000EFE9FFE03197F1F700C0000082E00E9421
:1004B000FE01009731F6EFE9FFE03197F1F700C058
:1004C0000000089581E00E94FE01009731F4EFE9F9
:1004D000FFE03197F1F700C000000895823048F442
:1004E000603138F4813009F4605C862F80680C94A8
:1004F000FE0181E090E008950F931F93CF938C014C
:10050000C0E0892B59F481E090E0CF911F910F91C9
:1005100008950E940B02892BB1F7CF5FF801EC0F11
:10052000F11D80818111F5CF80E090E0EECFCF9278
:10053000DF92EF92FF921F93CF93DF93CDB7DEB799
:100540002B970FB6F894DEBF0FBECDBF6B017C01B9
:1005500010E0C114D104E104F10481F480E32B968E
:100560000FB6F894DEBF0FBECDBFDF91CF911F91C4
:10057000FF90EF90DF90CF900C940B02B601C70173
:100580002AE030E040E050E00E945B05FE01319639
:10059000E10FF11D605D6083C601D70169017A0139
:1005A0001F5F0A97A105B10548F7111103C080E04C
:1005B00090E00AC01150FE013196E10FF11D8081DB
:1005C0000E940B02009789F32B960FB6F894DEBFBA
:1005D0000FBECDBFDF91CF911F91FF90EF90DF90C5
:1005E000CF90089526B537B508B602FE0EC037FD88
:1005F0000CC08091F8009091F90001969093F90059
:100600008093F80088B7846088BF8091F80090914B
:10061000F9004091F6005091F700DC0190E080E095
:10062000841B950BA109B109820F931FA11DB11D58
:100630003093F7002093F6001092F9001092F80022
:100640008093FA009093FB00A093FC00B093FD0010
:1006500081E08093FE00109200011092FF00089547
:10066000E6EFF0E08281938101969383828308957F
:100670001F920F920FB60F9211242F933F934F9317
:100680005F936F937F938F939F93AF93BF93EF93FA
:10069000FF930E94F202FF91EF91BF91AF919F9162
:1006A0008F917F916F915F914F913F912F910F901B
:1006B0000FBE0F901F9018951F920F920FB60F92BA
:1006C00011242F933F934F935F936F937F938F9357
:1006D0009F93AF93BF93EF93FF930E943003FF91DB
:1006E000EF91BF91AF919F918F917F916F915F91AA
:1006F0004F913F912F910F900FBE0F901F90189523
:100700008430B8F49FEF960F973098F43D9897B1E6
:100710009F738295880F880F807C892B87B986B15B
:10072000887F86B986B1862B86B9379A80E090E0BB
:10073000089581E090E00895883098F4611571057E
:1007400081F097B1907E982B97B9369A3699FECF63
:10075000349A84B125B1FB018083218380E090E04D
:10076000089581E090E00895843008F059C0683021
:1007700008F056C0433008F053C021E030E0F901E2
:1007800001C0EE0F6A95EAF7823041F18330B9F18A
:10079000813099F0413031F48AB38E2B8ABB80E0EE
:1007A00090E008959AB38E2F809598239ABB42309B
:1007B000E9F58BB38E2B8BBBF2CF413021F487B39D
:1007C0008E2B87BBECCF97B38E2F8095982397BB4A
:1007D000423079F588B38E2B88BBE1CF413021F4CC
:1007E00084B38E2B84BBDBCF94B38E2F809598235C
:1007F00094BB423009F585B38E2B85BBD0CF4130F9
:1008000021F481B38E2B81BBCACF91B38E2F8095FB
:10081000982391BB423039F482B38E2B82BBBFCF79
:1008200081E090E0089592B38923F8CF9BB38923A8
:10083000C2CF98B38923D0CF95B38923DECF84303C
:10084000E0F56830D0F54230C0F521E030E0F90144
:1008500001C0EE0F6A95EAF76E2F8230D1F0833037
:1008600011F1813061F08BB3413029F48E2B8BBBB9
:1008700080E090E00895609568236BBBF9CF88B362
:10088000413019F48E2B88BBF3CF6095682368BB89
:10089000EFCF85B3413019F48E2B85BBE9CF60953E
:1008A000682365BBE5CF82B3413019F48E2B82BB40
:1008B000DFCF6095682362BBDBCF81E090E00895D5
:1008C0009B01AC012115310541055105E1F060E0C6
:1008D00072E18AE790E00E945B05C901DA01409766
:1008E000A109B109AC01BD0176956795579547956A
:1008F0009230A105B10538F440B911B884E086BF43
:1009000080E090E0089581E090E0089584EA86BF59
:1009100006B607FEFDCF91B1987F21E030E0983018
:1009200009F420E0C901089584E986BF06B604FCF5
:10093000FDCF0895880F83B984E886BF06B607FE09
:10094000FDCF91B1987F21E030E0983109F420E0AB
:10095000C901089583B984E886BF06B607FEFDCFB6
:1009600091B1987F21E030E0983209F420E0C9018C
:100970000895CF93C82F843020F081E090E0CF918C
:10098000089541E064E081E00E94B4030197A9F377
:1009900041E065E081E00E94B403019771F340E01B
:1009A00066E081E00E94B403019739F341E067E01B
:1009B00081E00E94B403019701F341E064E081E02B
:1009C0000E941F040197C9F27098C065CDB980E0FC
:1009D00090E0D5CF6115710549F08FB9779BFECFB7
:1009E0008FB1FB01808380E090E0089581E090E08A
:1009F00008958F3F49F0909160009F3F29F48093C4
:100A0000600080E090E0089581E090E008958FEF2D
:100A100080936000089500977040604009F19B0149
:100A2000AC0164E0220F331F441F551F6A95D1F7B4
:100A300060E072E18AE790E00E945B05C901DA019B
:100A40000197A109B1099031A105B10548F490BD04
:100A500089B986E880BD88E18AB980E090E0089590
:100A600081E090E008955D9BFECF8CB980E090E03E
:100A70000895CF93DF93EC01892B31F481E090E06E
:100A800008C021960E94330588818111FACF80E049
:100A900090E0DF91CF910895A29FB001B39FC00174
:100AA000A39F700D811D1124911DB29F700D811D9A
:100AB0001124911D0895A1E21A2EAA1BBB1BFD0152
:100AC0000DC0AA1FBB1FEE1FFF1FA217B307E4072D
:100AD000F50720F0A21BB30BE40BF50B661F771F85
:100AE000881F991F1A9469F7609570958095909565
:100AF0009B01AC01BD01CF010895AEE0B0E0E3E899
:100B0000F5E00C94620886E08C832B893C8929836C
:100B10003A838D899E89813030E8930710F080E018
:100B200090E801978D839E83AE01475E5F4F6F898A
:100B3000788DCE0101960E94B0054D815E8157FDF2
:100B40000BC0EF81F8854E175F070CF4FA012B8973
:100B50003C89E20FF31F10822E96E2E00C947E088F
:100B6000ACE0B0E0E6EBF5E00C9455085C016B01FD
:100B70007A01FC0116821782838181FFD3C12AE0AA
:100B8000522EF5012381F60123FD859123FF8191EA
:100B90006F01811509F42CC1853239F423FD95913B
:100BA00023FF91916F01953229F4B50190E00E94E5
:100BB000AB07E7CF30E0712C00E010E0103210F509
:100BC0009B32C9F050F49032B9F09332C9F09E32A2
:100BD00061F516FD0DC1106405C09D3279F09033AA
:100BE00099F41160F60123FD959123FF91916F0116
:100BF0009111E4CF23C012601460F4CF1860F2CFDB
:100C00001061F0CF17FD1AC080ED890F8A30F8F619
:100C100016FF05C0759C800D1124782EE3CF059D2D
:100C2000800D1124082F1062DDCF9C3611F410685E
:100C3000D9CF9C3409F440C09836A1F2892F8F7D1A
:100C400085548330D8F1933609F45FC0933709F4A3
:100C50006AC0933509F476C0943619F0993609F0D4
:100C6000A2C0F70117FF98C0619171918191919194
:100C70007F011F7697FF03C00E944A0810682AE090
:100C800030E04E014FEF841A940AA4010E94EC0751
:100C9000682E681816FFD2C0812F8E7F671408F067
:100CA000CCC014FF1DC112FD11C11E7E972C812FD7
:100CB000867809F4CEC00FC131E094CF311509F127
:100CC000F8E0EF0EF11C8FE3898391E0692E712C1F
:100CD0004E018FEF881A980A1F7713FD04C0601623
:100CE000710408F43FC06114710409F042C0011599
:100CF00009F447CFB50180E290E00E94AB070150B4
:100D0000F6CF44E0E40EF11CDECFF7018081898349
:100D1000F2E0EF0EF11C81E0682E712C4E014FEFD6
:100D2000841A940AD9CFF701819091907F01672DA1
:100D300070E016FD02C06FEF7FEFC4010E94A007B4
:100D40003C01CACFF701819091907F01672D70E03F
:100D500016FD02C06FEF7FEFC4010E9495073C01B2
:100D60001068BBCFB50180E290E00E94AB07015054
:100D7000B6CFF40117FD859117FF81914F01B501A1
:100D800090E00E94AB0781E0011101C080E0081BE8
:100D9000F1E06F1A7108A7CF61917191872F880FC9
:100DA000880B982F65CF9537C9F41F7E1C872AE0E2
:100DB00030E0FC85F7FF3BC0F701619171918191B3
:100DC00091917F014E014FEF841A940AA4010E9471
:100DD000EC07682E68181C851F775CCF812F897FF0
:100DE0008C87903799F058F49835B9F09F36E1F038
:100DF000F501868197812C96EFE00C947108983765
:100E0000B9F714FD06C020E130E0D3CF9C85906196
:100E10009C87EC85E460EC87F6CF14FF02C0166077
:100E20001C8720E132E0C5CF28E030E0C2CFF701D7
:100E30006191719180E090E0C4CF182F962C14FF3F
:100E400036CFFE01E60DF11D8081803309F041C0EF
:100E5000197E13FD0EC010FF4FC0762C901618F4AB
:100E6000700E7918902E802F8919091508F480E0EA
:100E7000980E901608F042C0091914FF41C0B50140
:100E800080E390E00E94AB0712FF09C088E590E084
:100E900011FD02C088E790E0B5010E94AB0767141E
:100EA000D0F14E018FEF881A980A6A94FE013296AB
:100EB000E60DF11D3F01F30182913F01B50190E084
:100EC0000E94AB0768147904B1F711CF972C182F43
:100ED000B8CF12FD02C09394BCCF93949394B9CF32
:100EE000972C182FE4CEB50180E290E00E94AB076A
:100EF00083948016C0F3B7CF892CFBCF00E0BDCF21
:100F0000812F867861F280E211FD8BE217FD8DE280
:100F1000B50190E0C2CFB50180E390E00E94AB073D
:100F20007A94BDCF8FEF9FEF66CFFC0105906150A3
:100F300070400110D8F7809590958E0F9F1F0895EF
:100F4000FC016150704001900110D8F78095909598
:100F50008E0F9F1F0895A3E0B0E0E1EBF7E00C9443
:100F60006108182F99836A837B83DB0113968C9128
:100F700081FD09C01FEFBFEFB983812F99812396AF
:100F8000E3E00C947D0882FF1BC0EA81FB8126818F
:100F90003781848195812817390754F40190F081B5
:100FA000E02DCF010196AA81BB818D939D93108383
:100FB000EA81FB8186819781019686839783DDCFC5
:100FC000AA81BB811896ED91FD911A97BD01812FE1
:100FD0000995892B69F3CECFFA01AA27283051F160
:100FE000203181F1E8946F936E7F6E5F7F4F8F4F5A
:100FF0009F4FAF4FB1E03ED0B4E03CD0670F781FB9
:10100000891F9A1FA11D680F791F8A1F911DA11D9D
:101010006A0F711D811D911DA11D20D009F46894D6
:101020003F912AE0269F11243019305D3193DEF67E
:10103000CF010895462F4770405D4193B3E00FD034
:10104000C9F7F6CF462F4F70405D4A3318F0495D1F
:1010500031FD4052419302D0A9F7EACFB4E0A69502
:101060009795879577956795BA95C9F70097610524
:10107000710508959B01AC010A2E0694579547957A
:1010800037952795BA95C9F7620F731F841F951F6F
:10109000A01D089590958095709561957F4F8F4F15
:1010A0009F4F08952F923F924F925F926F927F923F
:1010B0008F929F92AF92BF92CF92DF92EF92FF9268
:1010C0000F931F93CF93DF93CDB7DEB7CA1BDB0B14
:1010D0000FB6F894DEBF0FBECDBF09942A883988B9
:1010E00048885F846E847D848C849B84AA84B984C0
:1010F000C884DF80EE80FD800C811B81AA81B981CC
:10110000CE0FD11D0FB6F894DEBF0FBECDBFED01DF
:061110000895F894FFCFE2
:10111600FF446173682074657374206D6F646500A5
:101126004E6F2035393520617474616368656400DB
:10113600463A002520006D5600543A0043204F3AA7
:101146000054454C7C5350443A25757C52504D3AD8
:1011560025757C464C3A25757C434C543A25647C6F
:101166004241543A25757C4F494C3A25757C4F448B
:101176004F3A256C757C5741524E3A3078253034BB
:04118600580D0A00F6
:00000001FF
