:100000000C942A000C9447000C9447000C94470071
:100010000C9447000C9447000C9494000C944700F7
:100020000C9447000C94B8000C9447000C944700C3
:100030000C9447000C9447000C9447000C94470024
:100040000C9447000C9447000C9447000C94470014
:100050000C94470011241FBECFE5D8E0DEBFCDBF12
:1000600010E0A0E6B0E0ECEBF1E002C005900D92EC
:10007000A036B107D9F720E0A0E6B0E001C01D929C
:10008000AB36B207E1F70E9449000C94DC000C94F7
:10009000000080E090E0089526B537B508B602FE6E
:1000A0000EC037FD0CC080916200909163000196F4
:1000B000909363008093620088B7846088BF8091CA
:1000C0006200909163004091600050916100DC01FA
:1000D00090E080E0841B950BA040B040820F931FFE
:1000E000A11DB11D30936100209360001092630048
:1000F000109262008093640090936500A093660064
:10010000B093670081E08093680010926A001092BB
:100110006900089580916200909163000196909328
:1001200063008093620008951F920F920FB60F92A2
:1001300011242F933F934F935F936F937F938F93EC
:100140009F93AF93BF93EF93FF930E944C00FF9157
:10015000EF91BF91AF919F918F917F916F915F913F
:100160004F913F912F910F900FBE0F901F901895B8
:100170001F920F920FB60F9211242F933F934F931C
:100180005F936F937F938F939F93AF93BF93EF93FF
:10019000FF930E948A00FF91EF91BF91AF919F91D1
:1001A0008F917F916F915F914F913F912F910F9020
:0C01B0000FBE0F901F901895F894FFCF21
:00000001FF
