:100000000C942A000C94370C0C9447000C944B0B66
:100010000C9447000C9447000C9447000C94470044
:100020000C9447000C94270B0C9466000C9447002A
:100030000C9447000C9447000C9447000C94470024
:100040000C9447000C9447000C9447000C94470014
:100050000C94470011241FBECFE5D8E0DEBFCDBF12
:1000600011E0A0E6B0E0ECEEF3E202C005900D92E4
:10007000A839B107D9F722E0A8E9B1E001C01D9283
:10008000A431B207E1F70E946C000C94EC110C94BF
:100090000000CF93C82F81E00E94300E892BA1F47D
:1000A0008C2F0E941F0E0E943E0E41E062E082E013
:1000B0000E94190D85E08A95F1F7000040E062E0AA
:1000C00082E0CF910C94190DCF9108958F9381E028
:1000D00080939C018F911895CDB7DEB7CB55D0405A
:1000E0000FB6F894DEBF0FBECDBF83E494E48983DE
:1000F0009A8381E08B831C821D821E821F82188658
:1001000019861A861B861C861D8688E78E871F86A1
:100110008AE0888B9EE6998B8A8B80EE9EE28B8BA1
:100120009C8B88E99AE38D8B9E8B84E08F8B80ED8E
:1001300097E0888F998F82E08A8F1B8E1C8E1D8E90
:100140001E8E40E060E080E00E94AE0C40E061E086
:1001500080E00E94AE0C40E062E080E00E94AE0CC5
:1001600040E063E080E00E94AE0C42E060E081E0AD
:100170000E94AE0C42E061E081E00E94AE0C40E0E3
:1001800062E081E00E94AE0C42E063E081E00E9408
:10019000AE0C41E064E081E00E94AE0C41E065E01D
:1001A00081E00E94AE0C40E066E081E00E94AE0C6F
:1001B00041E067E081E00E94AE0C42E060E082E056
:1001C0000E94AE0C42E061E082E00E94AE0C41E091
:1001D00062E082E00E94AE0C42E063E082E00E94B6
:1001E000AE0C42E064E082E00E94AE0C42E065E0CA
:1001F00082E00E94AE0C41E066E082E00E94AE0C1C
:1002000041E067E082E00E94AE0C40E060E083E005
:100210000E94AE0C41E061E083E00E94AE0C40E041
:1002200062E083E00E94AE0C42E063E083E00E9463
:10023000AE0C42E064E083E00E94AE0C42E065E078
:1002400083E00E94AE0C40E066E083E00E94AE0CCA
:1002500041E067E083E00E94AE0C41E064E081E0B1
:100260000E94190D40E062E082E00E94190D40E01A
:1002700066E082E00E94190D40E067E082E00E94A3
:10028000190D40E067E083E00E94190D88E083BF0C
:100290008DE48CBF12BE89B7826089BF83B7856049
:1002A00083BF81E00E94DF0D0E943B0A81E00E9433
:1002B000AF0A0E94250880E00E9449000E94F208CF
:1002C0000E9490050E947E080E94EA0A0E94490C42
:1002D0000E94DB0D0E941F068C010E942506F8017A
:1002E000138E2C961FAE2C9781E069968FAF69977D
:1002F0002D961FAE2D9768968FAF68972E961FAEDE
:100300002E9766968FAF66976C968FAF6C972F96E9
:100310001FAE2F9767968FAF67972B961CAE1DAEBB
:100320001EAE1FAE2B97B12C6A961FAE6A97812C1A
:10033000912C27961FAE1EAE2797682E62968FAF20
:100340006297782E640174012E018FE1480E511CD2
:100350001E0180E3280E311C80919C018030E1F366
:1003600010929C0141E066E082E00E94190DCE01EE
:100370008C5B9F4FAC0163E083E00E945A0DCE017D
:100380008D5B9F4FAC0164E083E00E945A0DCE016B
:100390008E5B9F4FAC0165E083E00E945A0DCE0159
:1003A0008F5B9F4FAC0163E081E00E945A0D259660
:1003B0008FAD259767969FAD6797891310C02F96CD
:1003C0008FAD2F97833039F08F5F2F968FAF2F9798
:1003D000A72C833059F46796AFAC679707C0679630
:1003E0008FAF6797A72C2F961FAE2F9724968FADB0
:1003F000249766969FAD6697891327C02E968FAD7A
:100400002E97833049F18F5F2E968FAF2E978330D2
:1004100019F123968FAD239768969FAD689789133E
:1004200022C02D968FAD2D97833009F467C08F5F62
:100430002D968FAF2D97833009F460C062968FADF3
:10044000629760968FAF60971AC066968FAF669777
:100450002E961FAE2E97DDCF66968FAD66976C9663
:100460008FAF6C97D6CF68968FAF689762968FAD37
:10047000629760968FAF60972D961FAE2D9722964C
:100480008FAD229769969FAD699789133BC02C96D3
:100490008FAD2C97833009F43FC08F5F2C968FAFC0
:1004A0002C978330C9F161966FAE6197A1103BC064
:1004B00081E06B968FAF6B97872D813019F06B962B
:1004C0001FAE6B9727962EAD3FAD27972F3F320774
:1004D00031F0C901019627969FAF8EAF27976A9694
:1004E0008FAD6A97811108C027968EAD9FAD279773
:1004F000883C904008F053C0712C20C068968FADA6
:1005000068979FCF69968FAF699761966FAE619735
:100510002C961FAE2C97CACF69968FAD69976196BE
:100520008FAF6197C3CF6B961FAE6B97712C6A9696
:100530001FAE6A9727961FAE1EAE279781E0629680
:100540009FAD6297913009F080E091E060962FAD09
:100550006097211190E0892361969FAD6197911179
:1005600025C09FEF8916980409F4D6C29FEF891A17
:10057000990AB11011C098EC8916910468F0F8013D
:1005800016861786108A118A2B961CAE1DAE1EAEDB
:100590001FAE2B97BB24B394811115C01DC07724C7
:1005A000739481E06A968FAF6A97C8CF6110B0C22A
:1005B00091E09B25982BB92E812C912C903061F0E5
:1005C000B12C812C912CF801838D90E0019665E08F
:1005D00070E00E94B40E838F8FEFC81AD80AE80A21
:1005E000F80A662463946C968FAD6C978111612C28
:1005F0001F8EC2010E943908892B39F48F8D8F73A9
:10060000F801918D907C892B818FC8010E9456073B
:10061000F801418D208131818689978944FF37C156
:100620002B30310508F433C1806845FF32C12630D4
:10063000310508F42EC1916043FF2DC126303105EC
:1006400008F429C19260F801868B978B4E855F85EF
:1006500060919B01611121C14217530708F025C128
:1006600021E020939B018064F801868B978B262DD7
:10067000472D6B966FAD6B97C8010E943306F8014A
:10068000828D90916000891731F0813011F4128AC7
:10069000138A80936000809198019091990101964E
:1006A0008D32910508F003C18093980190939901D0
:1006B000C0FC0E94EC05B601C70125E030E040E037
:1006C00050E00E94C80E00977040614079F4F80134
:1006D000828D833009F41CC108F0F5C0823009F422
:1006E000F8C080E0F801808F0E944900B601C70180
:1006F0002AE030E040E050E00E94C80E00977040D1
:10070000624041F5CE010196BC01C8010E94A70BD1
:10071000F801808191818B3F910538F42C853D85CE
:100720002817390710F48C879D87F801818D837015
:1007300031F081E090919A01911101C080E0F801BF
:10074000928D963009F0E6C082E090E00E94850824
:100750000E949B08B601C70129E130E040E050E06B
:100760000E94C80E633071058707970709F0E1C042
:10077000CE010196BC01C8010E94550CB601C7010B
:1007800022E330E040E050E00E94C80E0097704045
:10079000644019F4C8010E94F608B601C70124E6B6
:1007A00030E040E050E00E94C80E00977040664084
:1007B00009F04FC0F801828D8030D1F0848D958D85
:1007C000A68DB78D0196A11DB11D848F958FA68F23
:1007D000B78F2B968CAD9DADAEADBFAD2B9701966F
:1007E000A11DB11D2B968CAF9DAFAEAFBFAF2B97A8
:1007F0002B968CAD9DADAEADBFAD2B9720E030E01C
:10080000892B8A2B8B2B11F1F8012685378540899E
:100810005189A4E2B0E00E94F00E65966CAF7DAF06
:100820008EAF9FAF6597AAE02B962CAD3DAD4EAD38
:100830005FAD2B970E94F00E9B01AC0165966CADED
:100840007DAD8EAD9FAD65970E94C80EF801248BDB
:10085000358BB601C70124EF31E040E050E00E9443
:10086000C80E00977040684011F40E94960540E061
:1008700066E082E00E94190D61966FAC6197609608
:100880008FAD609762968FAF62977A2C65CD8F7728
:10089000CCCE9E7FD1CE9D7FD6CE455050402417E2
:1008A000350708F0E0CE10929B018F7BDDCE1092D1
:1008B00098011092990181E090919A01911180E044
:1008C00080939A01F5CE843011F0873011F486E0E0
:1008D00009CF40919A01F8012689378925FB88279D
:1008E00080F921FD826022FD846023FD886024FD63
:1008F0008061F801918D92FD8068403009F4F2CE5C
:1009000090FB222725F9822B91FFECCE8064EACE62
:100910008FEFE8CE90919B01903019F081E090E04C
:1009200015CF803019F083E090E010CF80E090E0A8
:100930000DCF00977040654009F020CF81E1782EFF
:10094000F101872D11928A95E9F7F201872D119215
:100950008A95E9F7F801828D833089F462E670E0C8
:10096000C1010E94FB0E6DE670E0C2010E94FB0E09
:10097000A201B101F801838D0E94B90AFFCE863031
:10098000F1F48AE790E09F938F931F927F923F92BA
:100990002F920E94040FF80183818F9382818F939D
:1009A00081818F9380818F938CE890E09F938F93C8
:1009B0001F927F925F924F920E94040F8CC0838D92
:1009C000813021F581898F9380898F9387858F93DB
:1009D00086858F938AE990E09F938F931F927F92F1
:1009E0003F922F920E94040FF80183898F9382898E
:1009F0008F9385898F9384898F9385EA90E09F9365
:100A00008F931F927F925F924F92D6CF8230F1F4F4
:100A100086818F9385818F9383818F9382818F933A
:100A200083EB90E09F938F931F927F923F922F9240
:100A30000E94040FF80181856AE00E94A80E1F92AF
:100A40009F931F928F9380EC90E0D9CF833001F574
:100A500080858F9387818F938DEC90E09F938F9308
:100A60001F927F923F922F920E94040FF80185857A
:100A70008F9384858F9383858F9382858F9387ED62
:100A800090E09F938F931F927F925F924F9294CFAB
:100A900090812181843029F583818F9382818F9386
:100AA0002F939F938CE890E09F938F931F927F9258
:100AB0003F922F920E94040FF80187898F938689B5
:100AC0008F9381EE90E09F938F931F927F925F921E
:100AD0004F920E94040F0FB6F894DEBF0FBECDBF39
:100AE00047CF2F939F938DEE90E09F938F931F920C
:100AF0007F923F922F920E94040FF80184811F92EF
:100B00008F9383818F9382818F938AEF90E0B9CF07
:100B1000B12C812C912C40CDB11409F430CD3CCDB9
:100B200060E875E280E090E00C94420E0F931F9312
:100B3000CF93DF93CDB7DEB7C058D1090FB6F89485
:100B4000DEBF0FBECDBF0E941F06FC01892BC1F185
:100B500087898F9386898F9385858F9384858F93DB
:100B600083858F9382858F9381851F928F93808554
:100B70008F9387818F9386818F9385818F938481D3
:100B80001F928F9383818F9382818F9381818F9323
:100B900080818F9388E091E09F938F931F9280E8EC
:100BA0008F938E010F5F1F4F1F930F930E94040FAF
:100BB000C8010E947D0E0FB6F894DEBF0FBECDBFF8
:100BC000C058DF4F0FB6F894DEBF0FBECDBFDF9128
:100BD000CF911F910F910895CF93DF930F92CDB7CF
:100BE000DEB719820E94900E892B71F4CE01019616
:100BF0000E94700E892B41F48981803569F040F4A0
:100C0000813389F08D34A1F00F90DF91CF91089559
:100C10008D3671F08037C1F781E090E00E942206A6
:100C200080E691E002C08BE491E00E947D0EECCF63
:100C300080E090E00E9422068CE791E0F6CF8DE9FB
:100C400091E008958093B8010895FC01818D8F7320
:100C5000818F128E1092BF011092C0011092BD01BF
:100C60001092BE0108951F93CF93DF9300D00F928F
:100C7000CDB7DEB78A839B83162F2983DC015A9672
:100C80008C915A97411559F0811531F15A961C9261
:100C90000F900F900F90DF91CF911F9108958530A5
:100CA00079F48A819B810E94F2070197039740F4AF
:100CB00086E0EA81FB81828F818D8068818FE8CF19
:100CC000AA81BB815A96EC91E83008F08AC0F0E026
:100CD000E251FE4E0C94EA0EEA81FB81818D8F7BFE
:100CE000818F81E01115A1F2828FD2CF111581F28F
:100CF00083E0AA81BB815A968C931092BF01109217
:100D0000C001C6CF8091BF019091C0010196809330
:100D1000BF019093C0018C32914008F4B9CF82E0BA
:100D2000EA81FB81E1CFF981F11509F4B1CF84E0CB
:100D3000AA81BB815A968C931092BF011092C00178
:100D40001092BD011092BE01A3CF8091BF0190917E
:100D5000C00101968093BF019093C001EA81FB819D
:100D600022813381253F3140C0F02091BD01309177
:100D7000BE012F5F3F4F2093BD013093BE01223350
:100D8000310578F085E0AA81BB815A968C938E91CB
:100D90005997806459968C937BCF1092BD01109225
:100DA000BE01843F9140B9CFEA81FB81828193816A
:100DB0008C32914028F68091BD019091BE01019640
:100DC0008093BD019093BE018436910508F460CFF5
:100DD00087E0AA81BB815A968C938E9159978F7B1D
:100DE000D9CFEA81FB81128E53CF4FB7F89420916F
:100DF000C1013091C201280F391F3093C2012093E5
:100E0000C1018091C1019091C201883E934010F4CC
:100E10004FBF08958091C1019091C201885E9340B7
:100E20009093C2018093C1018091C7019091C80144
:100E3000A091C901B091CA018F3F9F4FAF4FBF4FE3
:100E400099F08091C7019091C801A091C901B0911A
:100E5000CA010196A11DB11D8093C7019093C801DD
:100E6000A093C901B093CA018091C3019091C401BC
:100E7000A091C501B091C6018F3F9F4FAF4FBF4FAB
:100E800009F4BFCF8091C3019091C401A091C50125
:100E9000B091C6010196A11DB11D8093C30190932D
:100EA000C401A093C501B093C601ABCFFC01218D55
:100EB00026FF41C081858A30F0F58091D401909160
:100EC000D50101968093D4019093D501889718F0AD
:100ED00081E08093D701858196818F36910584F1D9
:100EE0008091D2019091D30101968093D201909389
:100EF000D301CC9718F081E08093D601878190854B
:100F000026FF23C08C30910500F58091D00190918F
:100F1000D10101968093D0019093D101843691053F
:100F200018F081E08093CF011092CD011092CE0194
:100F30001092CC0129C01092D4011092D501CBCFD0
:100F40001092D2011092D301D9CF1092D0011092F9
:100F5000D1018E30910540F31092CF01409728F4D3
:100F60001092CD011092CE010FC08091CD019091D1
:100F7000CE0101968093CD019093CE0184369105E8
:100F800018F081E08093CC0184818A30F0F481E014
:100F90008093CB01268937898091D7018115D1F0C3
:100FA00022608091D6018115B9F028608091CF012F
:100FB0009091CC01892B91F024608091CB01811517
:100FC00079F02062268B378B08958E3018F31092BB
:100FD000CB01E0CF2D7FE5CF277FE8CF2B7FEDCF73
:100FE0002F7DF0CFFC012689378921FD16C022FD17
:100FF00017C023FD18C024FD19C025FD1AC026FD09
:101000001BC027FD1CC030FD1DC080E0932F9270D7
:1010100031FF02C089E090E0089581E090E00895FA
:1010200082E090E0089583E090E0089584E090E00D
:10103000089585E090E0089586E090E0089587E0C7
:1010400090E0089588E090E0089541E064E081E058
:101050000E94AE0C8130910559F041E064E081E0DE
:101060000E94190D21E0019709F020E0822F90E005
:1010700008950F931F93CF93DF930F92CDB7DEB7F1
:101080008C01892B71F080E00E94300E019749F0AD
:1010900040E064E081E00E94190D019751F40E9444
:1010A0003E0E81E090E00F90DF91CF911F910F9164
:1010B000089541E064E081E00E94190D019779F301
:1010C000BE016F5F7F4F8FEF0E94100E019739F3C3
:1010D0000E943E0E89818095F801808380E090E037
:1010E000E2CF8FE783BD8CE685BD81E08093D80198
:1010F000089515BC13BC1092D801089541E067E033
:1011000083E00E94AE0C0C9479082091DB013091B1
:10111000DC012817390771F08093DB019093DC0123
:101120001092D9011092DA01892B11F40C947908EC
:101130000C94710808952091DB013091DC01211598
:101140003105E1F18091D9019091DA010196809306
:10115000D9019093DA0122303105A1F02330310515
:1011600041F12130310519F48530910511F40C94C9
:101170007908C29718F10E9471081092D901109253
:10118000DA0108958333910530F48091D8018111FB
:1011900015C00C9471088733910549F38639910580
:1011A00068F00E94710882E38093D9011092DA01FD
:1011B000089584309105D9F20997DCCF08950097FE
:1011C00019F08F3F934049F4FB0190819F5F9A3063
:1011D00030F480E0FB019083089590E0FACF81E045
:1011E0009AE0F8CF66E081E00C947A0C4F925F921F
:1011F0006F927F928F929F92AF92BF92CF92DF9227
:10120000EF92FF920F931F93CF93DF93CDB7DEB78B
:101210002C970FB6F894DEBF0FBECDBF8C011F8296
:1012200018861D821E821B821C8219821A82BE01B0
:10123000695F7F4F80E00E94960CBE016B5F7F4F1D
:1012400081E00E94960CBE016D5F7F4F82E00E949C
:10125000960CBE016F5F7F4F83E00E94960C8F80DB
:10126000988460EE71E0C4010E94DF088987AD8038
:10127000BE806FED71E0C5010E94DF088A87EB80B8
:10128000FC806EED71E0C7010E94DF088B87C9808A
:10129000DA806DED71E0C6010E94DF088C87F801ED
:1012A00086899789F985F13051F02A85213039F006
:1012B000EB85E13021F0FC85F13009F0A0C08061C0
:1012C000F801868B978B8091E10190E09C01220FC1
:1012D000331FF901EE50FE4F808291822E513E4F16
:1012E000F901A082B182019687708093E101E2EF5B
:1012F000F1E0A2EEB1E082E092E0A12CB12C450138
:101300002401340141915191440E551E611C711C00
:101310004D915D91840E951EA11CB11C8E179F07E7
:1013200089F7F985F11114C043E0769467945794D6
:1013300047944A95D1F79201A4E6B0E00E94990E35
:101340002FEF33E040E050E00E94C80EF801248304
:10135000FA85F11117C033E0B694A7949794879457
:101360003A95D1F79401AAEAB0E00E94990E2FEFC6
:1013700033E040E050E00E94C80E28523109F801E5
:1013800025833683FB85F11113C0B70180E090E01F
:1013900024E0660F771F881F991F2A95D1F72FEF3A
:1013A00033E040E050E00E94C80EF8012783308708
:1013B000FC85F1110DC09601A4E6B0E00E94990EE3
:1013C0002FEF33E040E050E00E94C80EF801218783
:1013D0002C960FB6F894DEBF0FBECDBFDF91CF9134
:1013E0001F910F91FF90EF90DF90CF90BF90AF9043
:1013F0009F908F907F906F905F904F9008958F7E19
:101400005FCFCF93DF93D82FC62F0E94A80D892BD3
:1014100041F00E94B60DC1E0D0E0CE01DF91CF9146
:1014200008958EE30E94BC0D892B99F78D2F0E94A1
:10143000CC0D892B71F78C2F0E94CC0DEC01892BE0
:1014400041F70E94B60DE9CF91E0209102022111EF
:1014500001C090E0682F892F880F880F880F0C94A7
:10146000010A682F80910202811519F088E40C941A
:10147000010A80E4FCCF1092030281E08093020213
:1014800060EA76E890E00E94820D019719F481E00D
:1014900090E008952FE788E391E02150804090404C
:1014A000E1F700C0000080E30E94240A892B79F74D
:1014B00080E30E94240A892B51F780E30E94240ACA
:1014C000892B29F788E30E94240A892B01F78CE0F5
:1014D0000E94240A892BD9F686E00E94240A892BCF
:1014E000B1F681E00E94240A892B89F6EFE9FFE03A
:1014F0003197F1F700C0000082E00E94240A0097B3
:1015000031F6EFE9FFE03197F1F700C000000895F0
:1015100081E00E94240A009731F4EFE9FFE031975F
:10152000F1F700C0000008950F931F93CF938C0133
:10153000C0E0892B59F481E090E0CF911F910F9189
:1015400008950E94310A892BB1F7CF5FF801EC0FA3
:10155000F11D80818111F5CF80E090E0EECF8230E7
:1015600028F48093020280E090E0089581E090E00A
:101570000895EF92FF920F931F93CF93C82F7B0193
:101580008A01853040F081E090E0CF911F910F916A
:10159000FF90EF900895672BB1F3452BA1F30E94C4
:1015A000880A892B81F780E80E94240A892B59F741
:1015B000C7010E94940A892B31F780EC0E94240A0B
:1015C000892B09F7C8010E94940A0097E1F6C0939D
:1015D0000302DBCFBA98C298109211021092100247
:1015E00010920F0210920E0210920A0210920B0239
:1015F00010920C0210920D02109209021092070232
:101600001092080281E08093060210920502109267
:1016100004021FBC83E08EBD84E088BF89B784606C
:1016200089BF1DBC1CBC84B7806484BF8AB780623C
:101630008ABF8BB780628BBF089580910E02909114
:101640000F02019690930F0280930E0208951F924D
:101650000F920FB60F9211242F933F934F935F93E6
:101660006F937F938F939F93AF93BF93EF93FF936A
:101670000E941D0BFF91EF91BF91AF919F918F91B0
:101680007F916F915F914F913F912F910F900FBE7E
:101690000F901F9018951F921FB61F9211242F9321
:1016A0003F934F935F938F939F93AF93BF932CB5CB
:1016B0003DB5809106028115B1F01092060230937B
:1016C00011022093100210920F0210920E02BF918D
:1016D000AF919F918F915F914F913F912F911F906B
:1016E0001FBE1F90189580910E0290910F0240919D
:1016F000100250911102DC0190E080E0841B950BF8
:10170000A109B109820F931FA11DB11D30931102D0
:101710002093100210920F0210920E0280930A0280
:1017200090930B02A0930C02B0930D0281E0809382
:10173000090210920702109208028091040290910F
:10174000050201969093050280930402C0CFEF92A8
:10175000FF920F931F93CF93DF938C017B01892B13
:1017600009F47EC06115710509F47AC0FB01868910
:10177000811509F475C09FB7F89440910A02509101
:101780000B0260910C0270910D028091090210927F
:101790000902C0910402D091050210920502109234
:1017A00004029FBF811509F448C041155105610528
:1017B000710509F442C09A01AB0183E0220F331F87
:1017C000441F551F8A95D1F760E477E78BE190E0DD
:1017D0000E94C80EF8012B3F31054105510550F517
:1017E00020833183828993898217930710F4228B97
:1017F000338B1092070210920802209789F1F701AB
:10180000668970E08789908D0E94B40EC536D10537
:1018100010F0C4E6D0E06C9FC0016D9F900D7C9FDE
:10182000900D1124DF91CF911F910F91FF90EF90B8
:101830000C94F50610821182DCCF80910702909102
:1018400008028F3F980721F4F80110821182D5CF4A
:10185000019680930702909308020A9770F2F4CFE2
:10186000DF91CF911F910F91FF90EF9008958F938B
:101870008FB78F939F9380911202909113020196DC
:1018800090931302809312029F918F918FBF8F913B
:1018900018958A98929A85B78C7F85BF85B78360A3
:1018A00085BF8BB780648BBF0895CF93DF93EC0126
:1018B000FB01892BE1F03097D1F0818D8115B9F0D2
:1018C0008FB7F894209112023091130210921302F4
:1018D000109212028FBFA0EFB0E00E94990E218DEE
:1018E00030E040E050E00E94C80E2A833B83DF9145
:1018F000CF9108958430B8F49FEF960F973098F405
:101900003D9897B19F738295880F880F807C892BB3
:1019100087B986B1887F86B986B1862B86B9379A12
:1019200080E090E0089581E090E00895883098F498
:101930006115710581F097B1907E982B97B9369A11
:101940003699FECF349A84B125B1FB01808321837F
:1019500080E090E0089581E090E00895843008F000
:1019600059C0683008F056C0433008F053C021E039
:1019700030E0F90101C0EE0F6A95EAF7823041F1DB
:101980008330B9F1813099F0413031F48AB38E2B34
:101990008ABB80E090E008959AB38E2F80959823BB
:1019A0009ABB4230E9F58BB38E2B8BBBF2CF413023
:1019B00021F487B38E2B87BBECCF97B38E2F809506
:1019C000982397BB423079F588B38E2B88BBE1CF43
:1019D000413021F484B38E2B84BBDBCF94B38E2FA4
:1019E0008095982394BB423009F585B38E2B85BB37
:1019F000D0CF413021F481B38E2B81BBCACF91B3BC
:101A00008E2F8095982391BB423039F482B38E2B70
:101A100082BBBFCF81E090E0089592B38923F8CFD5
:101A20009BB38923C2CF98B38923D0CF95B38923A1
:101A3000DECF8430E0F56830D0F54230C0F521E0EB
:101A400030E0F90101C0EE0F6A95EAF76E2F82309F
:101A5000D1F0833011F1813061F08BB3413029F442
:101A60008E2B8BBB80E090E00895609568236BBB64
:101A7000F9CF88B3413019F48E2B88BBF3CF609532
:101A8000682368BBEFCF85B3413019F48E2B85BB3B
:101A9000E9CF6095682365BBE5CF82B3413019F487
:101AA0008E2B82BBDFCF6095682362BBDBCF81E0EA
:101AB00090E00895FA01843010F5683000F5309711
:101AC000F1F021E030E0A90101C0440F6A95EAF786
:101AD000642F823081F0833081F0813051F089B3FE
:101AE000862391E0811101C090E0908380E090E036
:101AF000089586B3F5CF83B3F3CF80B3F1CF81E000
:101B000090E008959B01AC01211531054105510577
:101B1000E1F060E072E18AE790E00E94C80EC9013E
:101B2000DA014097A109B109AC01BD01769567952D
:101B3000579547959230A105B10538F440B911B8D1
:101B400084E086BF80E090E0089581E090E0089511
:101B500084EA86BF06B607FEFDCF91B1987F21E0EB
:101B600030E0983009F420E0C901089584E986BF87
:101B700006B604FCFDCF0895880F83B984E886BFBC
:101B800006B607FEFDCF91B1987F21E030E0983195
:101B900009F420E0C901089583B984E886BF06B638
:101BA00007FEFDCF91B1987F21E030E0983209F433
:101BB00020E0C9010895789480E090E00895CF93E3
:101BC000C82F843020F081E090E0CF91089541E06B
:101BD00064E081E00E94AE0C0197A9F341E065E06A
:101BE00081E00E94AE0C019771F340E066E081E075
:101BF0000E94AE0C019739F341E067E081E00E945A
:101C0000AE0C019701F341E064E081E00E94190D00
:101C10000197C9F27098C065CDB980E090E0D5CF4A
:101C20006115710549F08FB9779BFECF8FB1FB012C
:101C3000808380E090E0089581E090E00895CF9364
:101C4000DF930F92CDB7DEB78FB9779BFECF8FB101
:101C50008983898180E090E00F90DF91CF91089592
:101C60008F3F49F0909161009F3F29F4809361007C
:101C700080E090E0089581E090E008958FEF8093F8
:101C80006100089500977040604009F19B01AC012C
:101C900064E0220F331F441F551F6A95D1F760E09F
:101CA00072E18AE790E00E94C80EC901DA0101974B
:101CB000A109B1099031A105B10548F490BD89B9D8
:101CC00086E880BD88E18AB980E090E0089581E0EF
:101CD00090E008955D9BFECF8CB980E090E0089580
:101CE000009741F05F9BFECF2CB1FC01208380E088
:101CF00090E0089581E090E00895CF93DF93EC01A8
:101D0000892B31F481E090E008C021960E946A0E90
:101D100088818111FACF80E090E0DF91CF91089522
:101D20008BB1880F990B909597FB882780F990E0ED
:101D30000895A29FB001B39FC001A39F700D811DA4
:101D40001124911DB29F700D811D1124911D0895C4
:101D5000992778E0880F991F961708F0961B881F1F
:101D60007A95C9F780950895AA1BBB1B51E107C05E
:101D7000AA1FBB1FA617B70710F0A61BB70B881F1B
:101D8000991F5A95A9F780959095BC01CD010895AA
:101D9000A1E21A2EAA1BBB1BFD010DC0AA1FBB1F6F
:101DA000EE1FFF1FA217B307E407F50720F0A21BE1
:101DB000B30BE40BF50B661F771F881F991F1A944E
:101DC00069F760957095809590959B01AC01BD0178
:101DD000CF010895EE0FFF1F0590F491E02D0994B7
:101DE0000E94990EA59F900DB49F900DA49F800D09
:101DF000911D11240895FB01DC010C94FF0E01904C
:101E00000D920020E1F70895AEE0B0E0EAE0FFE0D7
:101E10000C94C51186E08C838B899C8989839A8375
:101E20008D899E89813020E8920710F080E090E84B
:101E300001978D839E83CE014996AC016F89788D81
:101E400048970E94360F4D815E8157FD0BC0EF8190
:101E5000F8854E175F070CF4FA012B893C89E20FD5
:101E6000F31F10822E96E2E00C94E111ABE0B0E09B
:101E7000ECE3FFE00C94B8115C016B017A01FC010A
:101E800016821782838181FFC9C1F5012381F60182
:101E900023FD859123FF81916F01803009F429C1D1
:101EA000853239F423FD959123FF91916F0195328D
:101EB00029F4B50190E00E942711E7CF30E0712CA2
:101EC000512C00E0003210F59B32C9F050F49032F2
:101ED000B9F09332C9F09E3269F506FD0AC100647B
:101EE00005C09D3279F0903399F40160F60123FD2D
:101EF000959123FF91916F019111E4CF24C002606D
:101F00000460F4CF0860F2CF0061F0CF07FD1BC082
:101F1000892F80538A30F8F69AE006FF05C0799E33
:101F2000800D1124782EE2CF599E800D1124582E59
:101F30000062DCCF9C3611F40068D8CF9C3409F4E1
:101F400048C0983699F2892F8F7D8554833008F4E4
:101F500042C0933609F464C0933709F468C09335DE
:101F600009F474C0943619F0993609F0A0C0F7014D
:101F700007FF96C081919191A191B1917F010F7658
:101F8000B7FF08C0B095A095909581959F4FAF4F32
:101F9000BF4F00682AE030E04E014FEF841A940AE8
:101FA000A401BC01CD010E9457118819882E06FF9B
:101FB000C1C0802F8E7F871408F0BBC004FF0CC106
:101FC00002FD00C10E7E972C802F867809F4BDC0DB
:101FD000FEC031E08BCF3030F9F088E0E80EF11C24
:101FE0008FE3898381E0682E712C4E018FEF881A70
:101FF000980A0F7703FD03C065147104B8F16114EA
:102000007604D9F5511409F440CFB50180E290E08F
:102010000E9427115A94F6CF84E0E80EF11CE0CF1D
:10202000F7018081898382E0E80EF11CDBCFF701A4
:10203000819091907F01672D70E006FD02C06FEFE7
:102040007FEFC4010E941C113C01D3CFF7018190A6
:1020500091907F01672D70E006FD02C06FEF7FEF6A
:10206000C4010E9411113C010068C4CFB50180E297
:1020700090E00E9427115A94BFCFF40107FD85918B
:1020800007FF81914F01B50190E00E94271181E087
:10209000511001C080E0581A81E0681A7108AFCF72
:1020A00081919191A92FAA0FAA0BBA2F67CF102F58
:1020B0009537B9F41F7E2AE030E0F70117FF34C0EE
:1020C00061917191819191917F014E014FEF841A3D
:1020D000940AA4010E9457118819882E1F77012F96
:1020E00066CF197F903799F058F4983599F09F365C
:1020F000C1F0F501868197812B96EFE00C94D41105
:102100009837B9F704FD04C020E130E0D6CF106164
:102110001460FACF04FF02C0102F166020E132E0F5
:10212000CCCF28E030E0C9CF6191719180E090E0A0
:10213000CBCF082F982C04FF47CFFE01E80DF11DEF
:102140008081803309F041C0097E03FD0CC000FF8F
:102150004FC0782C951418F4750C7918952C95149B
:1021600008F048C0952C951408F044C0591804FF95
:1021700043C0B50180E390E00E94271102FF09C02F
:1021800088E590E001FD02C088E790E0B5010E947B
:1021900027118714E0F13E018FEF681A780A882D25
:1021A00081504E0192E0890E911C880E911CF40121
:1021B00082914F01B50190E00E9427118614970487
:1021C000B1F720CF972C082FB8CF02FD02C093940F
:1021D000BCCF93949394B9CF972C082FF5CEB5012B
:1021E00080E290E00E94271163946514C0F3B7CF9A
:1021F000692CFBCF512CBBCF802F867851F280E227
:1022000001FD8BE207FD8DE2B50190E0C0CFB50185
:1022100080E390E00E9427117A94BBCF8FEF9FEF6D
:102220006BCFFC010590615070400110D8F780958C
:1022300090958E0F9F1F0895FC0161507040019092
:102240000110D8F7809590958E0F9F1F08950F93DA
:102250001F93CF93DF93182F092FEB018B8181FD03
:1022600009C00FEF1FEF812F902FDF91CF911F91AA
:102270000F91089582FF14C02E813F818C819D8132
:10228000281739073CF4E881F981CF01019688834A
:10229000998310838E819F8101968E839F83E3CFE4
:1022A000E885F985812F0995892BA1F3DACFFA0109
:1022B000AA27283051F1203181F1E8946F936E7F85
:1022C0006E5F7F4F8F4F9F4FAF4FB1E03ED0B4E076
:1022D0003CD0670F781F891F9A1FA11D680F791FB7
:1022E0008A1F911DA11D6A0F711D811D911DA11DC8
:1022F00020D009F468943F912AE0269F11243019D8
:10230000305D3193DEF6CF010895462F4770405D72
:102310004193B3E00FD0C9F7F6CF462F4F70405D21
:102320004A3318F0495D31FD4052419302D0A9F77C
:10233000EACFB4E0A6959795879577956795BA9576
:10234000C9F700976105710508959B01AC010A2E3C
:1023500006945795479537952795BA95C9F7620F13
:10236000731F841F951FA01D08952F923F924F92B7
:102370005F926F927F928F929F92AF92BF92CF9215
:10238000DF92EF92FF920F931F93CF93DF93CDB71E
:10239000DEB7CA1BDB0B0FB6F894DEBF0FBECDBF96
:1023A00009942A88398848885F846E847D848C8467
:1023B0009B84AA84B984C884DF80EE80FD800C8170
:1023C0001B81AA81B981CE0FD11D0FB6F894DEBF53
:1023D0000FBECDBFED010895F894FFCF6C067606D1
:0C23E00093068206A506D4064806930664
:1023EC00FFFF42554C4220434845434B00414C4C67
:1023FC00204C414D5053204F4E0021212053544F1F
:10240C005020454E47494E45202121005350443A17
:10241C0025752052504D3A257500545249503A2595
:10242C006C75206D004156473A2575204D41583A40
:10243C0025750052504D3A257520433A25644300CA
:10244C004F494C3A25752E257562617200424154F4
:10245C003A2575206D56004F444F3A256C75206D0A
:10246C00005741524E3A307825303458005350447E
:10247C003A253375204B4D2F480052504D3A257557
:10248C0020463A257525250054454C7C5350443A3A
:10249C0025757C52504D3A25757C464C3A25757CF9
:1024AC00434C543A25647C4241543A25757C4F493F
:1024BC004C3A25757C4F444F3A256C757C574152EC
:1024CC004E3A3078253034580D0A00434D443A20AA
:1024DC00544553545F4C414D50535F4F4E0D0A00C1
:1024EC00434D443A20504147455F4348414E474590
:1024FC00445F544F5F545249500D0A00434D443AC7
:10250C0020504147455F4348414E4745445F544F37
:08251C005F4D41494E0D0A001C
:00000001FF
