:100000000C942A000C9447000C9447000C94470071
:100010000C9447000C9447000C94BA040C944700CD
:100020000C9447000C94DE040C9447000C94470099
:100030000C9447000C9447000C9447000C94470024
:100040000C9447000C9447000C9447000C94470014
:100050000C94470011241FBECFE5D8E0DEBFCDBF12
:1000600011E0A0E6B0E0ECE0F3E102C005900D92F3
:10007000AA33B107D9F721E0AAE3B1E001C01D928C
:10008000A937B207E1F70E9449000C947A090C9451
:100090000000CDB7DEB7C355D0400FB6F894DEBF31
:1000A0000FBECDBF40E060E080E00E94360540E03A
:1000B00061E080E00E94360540E062E080E00E945E
:1000C000360540E063E080E00E94360542E060E0F3
:1000D00081E00E94360542E061E081E00E94360541
:1000E00042E062E081E00E94360542E063E081E0A8
:1000F0000E94360541E064E081E00E94360541E05F
:1001000065E081E00E94360540E066E081E00E9403
:10011000360541E067E081E00E94360542E060E09C
:1001200082E00E94360542E061E082E00E943605EE
:1001300041E062E082E00E94360542E063E082E056
:100140000E94360542E064E082E00E94360542E00B
:1001500065E082E00E94360541E066E082E00E94B0
:10016000360541E067E082E00E94360540E060E04D
:1001700083E00E94360541E061E083E00E9436059D
:1001800040E062E083E00E94360542E063E083E005
:100190000E94360542E064E083E00E94360542E0BA
:1001A00065E083E00E94360540E066E083E00E945F
:1001B000360541E067E083E00E94360541E064E0F7
:1001C00081E00E94A10540E062E082E00E94A1057A
:1001D00040E066E082E00E94A10540E067E082E046
:1001E0000E94A10540E067E083E00E94A1058E0126
:1001F0000F5F1F4FF80180E211928A95E9F70E9484
:10020000C1030E9475028FEF90E722E08150904079
:100210002040E1F700C00000C02EB12E81E1D82EB1
:100220008E010D5B1F4F7E0182E3E80EF11C8C2DC9
:100230009B2D0E9479028F818F938E818F938D8168
:100240001F928F9380E690E09F938F931F92DF928F
:100250001F930F930E9492068A851F928F93898520
:100260008F9388858F938FE690E09F938F931F9253
:10027000DF92FF92EF920E949206A701B80180E000
:100280000E94430484EF91E00E943B068C2D9B2D3D
:100290000E948B018C2D9B2D0E942F020FB6F8948B
:1002A000DEBF0FBECDBF69E271E08A30910538F440
:1002B0008458964FFC010C9483066FE770E0CE01E2
:1002C00081960E94890661E080E00E941A04CE01B6
:1002D00081960E94280484EF91E00E943B06A7CFFC
:1002E00060E970E0ECCF61EA70E0E9CF62EB70E0CA
:1002F000E6CF63EC70E0E3CF64ED70E0E0CF65EE55
:1003000070E0DDCF66EF70E0DACF67E071E0D7CF65
:1003100068E171E0D4CFFC01218D26FF43C08185C7
:100320008A3008F03FC080914301909144010196CA
:100330008093430190934401889718F081E0809363
:100340004601858196818F3690408CF180914101E4
:100350009091420101968093410190934201CC9784
:1003600018F081E0809345018781908526FF24C0A5
:10037000803E2EE2920700F580913F01909140016E
:10038000019680933F01909340018436904018F08D
:1003900081E080933E0110923C0110923D01109249
:1003A0003B012FC01092430110924401CACF10921A
:1003B000410110924201D8CF10923F0110924001AA
:1003C000853D20E3920738F310923E0189392AE3F4
:1003D000920740F4843A9843F0F210923C01109254
:1003E0003D010FC080913C0190913D0101968093A9
:1003F0003C0190933D018436904018F081E0809359
:100400003B0184818A30F0F481E080933A012689AF
:100410003789809146018030D1F02260809145017A
:100420008030B9F0286080913E0190913B01892B8A
:1004300091F0246080913A01803079F02062268B1F
:10044000378B08958E3018F310923A01E0CF2D7F4C
:10045000E5CF277FE8CF2B7FEDCF2F7DF0CFFC01BD
:100460002689378921FD16C022FD17C023FD18C03B
:1004700024FD19C025FD1AC026FD1BC027FD1CC088
:1004800030FD1DC080E0932F927031FF02C089E0E3
:1004900090E0089581E090E0089582E090E0089572
:1004A00083E090E0089584E090E0089585E090E096
:1004B000089586E090E0089587E090E0089588E050
:1004C00090E00895009719F08F3F934049F4FB01A5
:1004D00090819F5F9A3030F480E0FB019083089513
:1004E00090E0FACF81E09AE0F8CF66E081E00C94EA
:1004F00002052F923F924F925F926F927F928F925E
:100500009F92AF92BF92CF92DF92EF92FF920F93A2
:100510001F93CF93DF93CDB7DEB72A970FB6F8942A
:10052000DEBF0FBECDBF8C011F8218861D821E82CA
:100530001B821C8219821A82CE010796BC0180E0C0
:100540000E941E05CE010596BC0181E00E941E0599
:10055000CE010396BC0182E00E941E05BE016F5FC2
:100560007F4F83E00E941E05AF80B8846AE471E08B
:10057000C5010E946202382ECD80DE8069E471E000
:10058000C6010E946202282EEB80FC8068E471E0C4
:10059000C7010E946202898789809A8067E471E0BE
:1005A000C4010E9462028A87F80186899789232DF7
:1005B000213051F0222D213039F02985213021F0D0
:1005C0002A85213009F0A1C08061F801868B978BC4
:1005D00020914B0130E0C901880F991FFC01E45ABA
:1005E000FE4FA082B182845B9E4FFC01C082D1820B
:1005F0002F5F3F4F277020934B01ECE5F1E0ACE417
:10060000B1E08CE691E0C12CD12C560125013501D9
:1006100041915191440E551E611C711C4D915D918B
:10062000A40EB51EC11CD11C8E179F0789F731106F
:1006300014C043E076946794579447944A95D1F751
:100640009201A4E6B0E00E9452062FEF33E040E0B2
:1006500050E00E946106F8012483211017C033E0A6
:10066000D694C794B794A7943A95D1F79501AAEA7E
:10067000B0E00E9452062FEF33E040E050E00E94CD
:10068000610628523040F80125833683898581111F
:1006900013C0B70180E090E09F709061660F771FF4
:1006A000881F991FD8F72FEF33E040E050E00E94F9
:1006B0006106F801278330878A8581110DC0940176
:1006C000A4E6B0E00E9452062FEF33E040E050E095
:1006D0000E946106F80121872A960FB6F894DEBFC2
:1006E0000FBECDBFDF91CF911F910F91FF90EF9083
:1006F000DF90CF90BF90AF909F908F907F906F9042
:100700005F904F903F902F9008958F7E5ECFCF9354
:10071000DF93D82FC62F0E940806892B41F00E9434
:100720001606C1E0D0E0CE01DF91CF9108958EE3AF
:100730000E941C06892B99F78D2F0E942C06892B6D
:1007400071F78C2F0E942C06EC01892B41F70E9437
:100750001606E9CF91E020916C01211101C090E0D3
:10076000682F892F880F880F880F0C948703682FB4
:1007700080916C01811519F088E40C94870380E462
:10078000FCCF10926D0181E080936C0160EA76E805
:1007900090E00E94E205019719F481E090E008954D
:1007A0002FE788E391E0215080409040E1F700C0BE
:1007B000000080E30E94AA03892B79F780E30E945E
:1007C000AA03892B51F780E30E94AA03892B29F7FA
:1007D00088E30E94AA03892B01F78CE00E94AA03F8
:1007E000892BD9F686E00E94AA03892BB1F681E015
:1007F0000E94AA03892B89F6EFE9FFE03197F1F710
:1008000000C0000082E00E94AA03009731F6EFE9E1
:10081000FFE03197F1F700C00000089581E00E94E9
:10082000AA03009731F4EFE9FFE03197F1F700C038
:1008300000000895823048F4603138F4813009F4C2
:10084000605C862F80680C94AA0381E090E0089594
:100850000F931F93CF938C01C0E0892B59F481E053
:1008600090E0CF911F910F9108950E94B703892BBB
:10087000B1F7CF5FF801EC0FF11D80818111F5CF49
:1008800080E090E0EECFEF92FF920F931F93CF9313
:10089000C82F7B018A01853040F081E090E0CF9144
:1008A0001F910F91FF90EF900895672BB1F3452BA7
:1008B000A1F30E940E04892B81F780E80E94AA030D
:1008C000892B59F7C7010E942804892B31F780EC46
:1008D0000E94AA03892B09F7C8010E9428040097E7
:1008E000E1F6C0936D01DBCF26B537B508B602FE41
:1008F0000EC037FD0CC0809170019091710101967E
:10090000909371018093700188B7846088BF809153
:1009100070019091710140916E0150916F01DC0165
:1009200090E080E0841B950BA109B109820F931F11
:10093000A11DB11D30936F0120936E0110927101C2
:10094000109270018093720190937301A0937401CF
:10095000B093750181E08093760110927801109236
:1009600077010895EEE6F1E0828193810196938309
:10097000828308951F920F920FB60F9211242F9326
:100980003F934F935F936F937F938F939F93AF9317
:10099000BF93EF93FF930E947404FF91EF91BF9177
:1009A000AF919F918F917F916F915F914F913F9107
:1009B0002F910F900FBE0F901F9018951F920F92BE
:1009C0000FB60F9211242F933F934F935F936F9322
:1009D0007F938F939F93AF93BF93EF93FF930E9467
:1009E000B204FF91EF91BF91AF919F918F917F9151
:1009F0006F915F914F913F912F910F900FBE0F908C
:100A00001F9018958430B8F49FEF960F973098F4A4
:100A10003D9897B19F738295880F880F807C892BB2
:100A200087B986B1887F86B986B1862B86B9379A11
:100A300080E090E0089581E090E00895883098F497
:100A40006115710581F097B1907E982B97B9369A10
:100A50003699FECF349A84B125B1FB01808321837E
:100A600080E090E0089581E090E00895843008F0FF
:100A700059C0683008F056C0433008F053C021E038
:100A800030E0F90101C0EE0F6A95EAF7823041F1DA
:100A90008330B9F1813099F0413031F48AB38E2B33
:100AA0008ABB80E090E008959AB38E2F80959823BA
:100AB0009ABB4230E9F58BB38E2B8BBBF2CF413022
:100AC00021F487B38E2B87BBECCF97B38E2F809505
:100AD000982397BB423079F588B38E2B88BBE1CF42
:100AE000413021F484B38E2B84BBDBCF94B38E2FA3
:100AF0008095982394BB423009F585B38E2B85BB36
:100B0000D0CF413021F481B38E2B81BBCACF91B3BA
:100B10008E2F8095982391BB423039F482B38E2B6F
:100B200082BBBFCF81E090E0089592B38923F8CFD4
:100B30009BB38923C2CF98B38923D0CF95B38923A0
:100B4000DECF8430E0F56830D0F54230C0F521E0EA
:100B500030E0F90101C0EE0F6A95EAF76E2F82309E
:100B6000D1F0833011F1813061F08BB3413029F441
:100B70008E2B8BBB80E090E00895609568236BBB63
:100B8000F9CF88B3413019F48E2B88BBF3CF609531
:100B9000682368BBEFCF85B3413019F48E2B85BB3A
:100BA000E9CF6095682365BBE5CF82B3413019F486
:100BB0008E2B82BBDFCF6095682362BBDBCF81E0E9
:100BC00090E008959B01AC012115310541055105C7
:100BD000E1F060E072E18AE790E00E946106C901FD
:100BE000DA014097A109B109AC01BD01769567957D
:100BF000579547959230A105B10538F440B911B821
:100C000084E086BF80E090E0089581E090E0089560
:100C100084EA86BF06B607FEFDCF91B1987F21E03A
:100C200030E0983009F420E0C901089584E986BFD6
:100C300006B604FCFDCF0895880F83B984E886BF0B
:100C400006B607FEFDCF91B1987F21E030E09831E4
:100C500009F420E0C901089583B984E886BF06B687
:100C600007FEFDCF91B1987F21E030E0983209F482
:100C700020E0C90108959C0182E088BF93B7987F66
:100C8000936093BF2115310531F483B7887F83BF0B
:100C900080E090E008952150310908B601FEFDCFB3
:100CA00088BFF0CFA29FB001B39FC001A39F700D7A
:100CB000811D1124911DB29F700D811D1124911D64
:100CC0000895A1E21A2EAA1BBB1BFD010DC0AA1F8D
:100CD000BB1FEE1FFF1FA217B307E407F50720F0A5
:100CE000A21BB30BE40BF50B661F771F881F991F20
:100CF0001A9469F760957095809590959B01AC0169
:100D0000BD01CF010895EE0FFF1F0590F491E02D76
:100D10000994FB01DC010C948D0601900D920020DA
:100D2000E1F70895AEE0B0E0E8E9F6E00C9453098D
:100D300086E08C838B899C8989839A838D899E899F
:100D4000813020E8920710F080E090E801978D83D1
:100D50009E83CE014996AC016F89788D48970E9499
:100D6000C4064D815E8157FD0BC0EF81F8854E179B
:100D70005F070CF4FA012B893C89E20FF31F108204
:100D80002E96E2E00C946F09ABE0B0E0EAECF6E0FE
:100D90000C9446095C016B017A01FC0116821782F2
:100DA000838181FFC9C1F5012381F60123FD85916E
:100DB00023FF81916F01803009F429C1853239F414
:100DC00023FD959123FF91916F01953229F4B5018F
:100DD00090E00E94B508E7CF30E0712C512C00E084
:100DE000003210F59B32C9F050F49032B9F09332D2
:100DF000C9F09E3269F506FD0AC1006405C09D3246
:100E000079F0903399F40160F60123FD959123FF69
:100E100091916F019111E4CF24C002600460F4CF7E
:100E20000860F2CF0061F0CF07FD1BC0892F80530F
:100E30008A30F8F69AE006FF05C0799E800D1124ED
:100E4000782EE2CF599E800D1124582E0062DCCFFF
:100E50009C3611F40068D8CF9C3409F448C0983609
:100E600099F2892F8F7D8554833008F442C09336E0
:100E700009F464C0933709F468C0933509F474C069
:100E8000943619F0993609F0A0C0F70107FF96C013
:100E900081919191A191B1917F010F76B7FF08C027
:100EA000B095A095909581959F4FAF4FBF4F00682B
:100EB0002AE030E04E014FEF841A940AA401BC01ED
:100EC000CD010E94E5088819882E06FFC1C0802F39
:100ED0008E7F871408F0BBC004FF0CC102FD00C167
:100EE0000E7E972C802F867809F4BDC0FEC031E0BD
:100EF0008BCF3030F9F088E0E80EF11C8FE3898366
:100F000081E0682E712C4E018FEF881A980A0F77B6
:100F100003FD03C065147104B8F161147604D9F5BA
:100F2000511409F440CFB50180E290E00E94B50869
:100F30005A94F6CF84E0E80EF11CE0CFF7018081EF
:100F4000898382E0E80EF11CDBCFF701819091905C
:100F50007F01672D70E006FD02C06FEF7FEFC401D7
:100F60000E94AA083C01D3CFF701819091907F01A4
:100F7000672D70E006FD02C06FEF7FEFC4010E9495
:100F80009F083C010068C4CFB50180E290E00E9458
:100F9000B5085A94BFCFF40107FD859107FF8191F1
:100FA0004F01B50190E00E94B50881E0511001C0E9
:100FB00080E0581A81E0681A7108AFCF8191919151
:100FC000A92FAA0FAA0BBA2F67CF102F9537B9F404
:100FD0001F7E2AE030E0F70117FF34C06191719164
:100FE000819191917F014E014FEF841A940AA401DF
:100FF0000E94E5088819882E1F77012F66CF197F78
:10100000903799F058F4983599F09F36C1F0F50172
:10101000868197812B96EFE00C9462099837B9F797
:1010200004FD04C020E130E0D6CF10611460FACF97
:1010300004FF02C0102F166020E132E0CCCF28E080
:1010400030E0C9CF6191719180E090E0CBCF082F63
:10105000982C04FF47CFFE01E80DF11D80818033FD
:1010600009F041C0097E03FD0CC000FF4FC0782C81
:10107000951418F4750C7918952C951408F048C03F
:10108000952C951408F044C0591804FF43C0B501CD
:1010900080E390E00E94B50802FF09C088E590E077
:1010A00001FD02C088E790E0B5010E94B5088714F1
:1010B000E0F13E018FEF681A780A882D81504E01C9
:1010C00092E0890E911C880E911CF40182914F01CF
:1010D000B50190E00E94B50886149704B1F720CFBF
:1010E000972C082FB8CF02FD02C09394BCCF9394E5
:1010F0009394B9CF972C082FF5CEB50180E290E0FC
:101100000E94B50863946514C0F3B7CF692CFBCF78
:10111000512CBBCF802F867851F280E201FD8BE20B
:1011200007FD8DE2B50190E0C0CFB50180E390E00E
:101130000E94B5087A94BBCF8FEF9FEF6BCFFC0175
:101140000590615070400110D8F7809590958E0FF2
:101150009F1F0895FC016150704001900110D8F765
:10116000809590958E0F9F1F08950F931F93CF9397
:10117000DF93182F092FEB018B8181FD09C00FEF41
:101180001FEF812F902FDF91CF911F910F91089525
:1011900082FF14C02E813F818C819D8128173907E1
:1011A0003CF4E881F981CF0101968883998310830B
:1011B0008E819F8101968E839F83E3CFE885F98599
:1011C000812F0995892BA1F3DACFFA01AA272830BC
:1011D00051F1203181F1E8946F936E7F6E5F7F4F04
:1011E0008F4F9F4FAF4FB1E03ED0B4E03CD0670F80
:1011F000781F891F9A1FA11D680F791F8A1F911DD3
:10120000A11D6A0F711D811D911DA11D20D009F422
:1012100068943F912AE0269F11243019305D319364
:10122000DEF6CF010895462F4770405D4193B3E04D
:101230000FD0C9F7F6CF462F4F70405D4A3318F0F4
:10124000495D31FD4052419302D0A9F7EACFB4E0A5
:10125000A6959795879577956795BA95C9F700975D
:101260006105710508959B01AC010A2E06945795FE
:10127000479537952795BA95C9F7620F731F841F55
:10128000951FA01D08952F923F924F925F926F92EB
:101290007F928F929F92AF92BF92CF92DF92EF9206
:1012A000FF920F931F93CF93DF93CDB7DEB7CA1B87
:1012B000DB0B0FB6F894DEBF0FBECDBF09942A88B2
:1012C000398848885F846E847D848C849B84AA845A
:1012D000B984C884DF80EE80FD800C811B81AA81E7
:1012E000B981CE0FD11D0FB6F894DEBF0FBECDBFB2
:1012F000ED010895F894FFCF88015D01700173013D
:0C130000760179017C017F0182018501EA
:10130C00463A253364252520433A2533644300426D
:10131C0061743A25756D56204F696C3A25750045F8
:10132C0052523A204F696C20507265737320200022
:10133C004552523A20426174746572792020202003
:10134C00004552523A204F766572686561742120CF
:10135C002000436865636B20456E67696E652120CC
:10136C002020005761726E3A204C6F7720467565CD
:10137C006C2020005761726E3A204F766572737044
:10138C00656564200046617374656E2053656174F5
:10139C0062656C742000446F6F72206973204F700B
:1013AC00656E212020200048616E646272616B655D
:1013BC00204F4E212020200053797374656D204EF0
:1013CC006F726D616C2020200020202020202020B6
:0A13DC0020202020202020202000E7
:00000001FF
