:100000000C942A000C94820C0C9447000C94960BD0
:100010000C9447000C9447000C9447000C94470044
:100020000C9447000C94720B0C9477000C944700CE
:100030000C9447000C9447000C9447000C94470024
:100040000C9447000C9447000C9447000C94470014
:100050000C94470011241FBECFE5D8E0DEBFCDBF12
:1000600011E0A0E6B0E0E2E8F4E202C005900D92F3
:10007000A63DB107D9F722E0A6EDB1E001C01D927F
:10008000A136B207E1F70E947D000C9437120C9460
:100090000000FC018181861721F06183128280813A
:1000A00008958281833020F48F5F82838330B9F793
:1000B0006083F5CFCF93C82F81E00E947B0E892B00
:1000C000A1F48C2F0E946A0E0E94890E41E062E02A
:1000D00082E00E94640D85E08A95F1F7000040E01F
:1000E00062E082E0CF910C94640DCF9108958F93DC
:1000F00081E08093E9018F911895CDB7DEB7C754A1
:10010000D0400FB6F894DEBF0FBECDBF83E494E4B9
:1001100089839A8381E08B831C821D821E821F82C9
:10012000188619861A861B861C861D8688E78E8788
:100130001F868AE0888B9EE6998B8A8B80EE9EE2F2
:100140008B8B9C8B88E99AE38D8B9E8B84E08F8BC5
:1001500080ED97E0888F998F82E08A8F1B8E1C8EAE
:100160001D8E1E8E40E060E080E00E94F90C40E0B1
:1001700061E080E00E94F90C40E062E080E00E94D3
:10018000F90C40E063E080E00E94F90C42E060E09E
:1001900081E00E94F90C42E061E081E00E94F90CEC
:1001A00040E062E081E00E94F90C42E063E081E01F
:1001B0000E94F90C41E064E081E00E94F90C41E00A
:1001C00065E081E00E94F90C40E066E081E00E9479
:1001D000F90C41E067E081E00E94F90C42E060E048
:1001E00082E00E94F90C42E061E082E00E94F90C9A
:1001F00041E062E082E00E94F90C42E063E082E0CC
:100200000E94F90C42E064E082E00E94F90C42E0B6
:1002100065E082E00E94F90C41E066E082E00E9425
:10022000F90C41E067E082E00E94F90C40E060E0F8
:1002300083E00E94F90C41E061E083E00E94F90C48
:1002400040E062E083E00E94F90C42E063E083E07A
:100250000E94F90C42E064E083E00E94F90C42E065
:1002600065E083E00E94F90C40E066E083E00E94D4
:10027000F90C41E067E083E00E94F90C41E064E0A2
:1002800081E00E94640D40E062E082E00E94640D23
:1002900040E066E082E00E94640D40E067E082E0BA
:1002A0000E94640D40E067E083E00E94640D88E0F6
:1002B00083BF8DE48CBF12BE89B7826089BF83B7CC
:1002C000856083BF81E00E942A0E0E94860A80E03A
:1002D0000E94FA0A0E94D30A0E94730880E00E94DA
:1002E0005A000E9440090E94D2050E94CC080E9438
:1002F000350B0E94940C0E94260E0E9461068C0110
:100300000E946706F801138E1286138614861586DE
:1003100016861786108A118AA12CB12C45017E0100
:1003200080E3E80EF11C6E018FE1C80ED11C8091B4
:10033000E9018030E1F31092E90141E066E082E0FA
:100340000E94640DCE018D5B9F4FAC0163E083E0A2
:100350000E94A50DCE018E5B9F4FAC0164E083E04F
:100360000E94A50DCE018F5B9F4FAC0165E083E03D
:100370000E94A50DA70163E081E00E94A50D2496CF
:100380006FAD24978DE690E00E944900682E239679
:100390006FAD23978AE690E00E944900582E22967E
:1003A0006FAD229787E690E00E944900782E68A9F9
:1003B00084E690E00E94490091E0209163002130A2
:1003C00009F090E021E0611020E092239093D801A1
:1003D0001092D7016110C8C02091DD013091DE017B
:1003E0002F3F320731F02F5F3F4F2093DD013093D5
:1003F000DE019091DA0191110CC02091DD01309164
:10040000DE01283C304028F091E09093D701909392
:10041000DA016092630091E0511090E09093D60170
:1004200040916200709262009091D9018111A3C045
:100430002091DB013091DC012F3F320709F4AEC37C
:100440002F5F3F4F2093DB013093DC01911113C0EC
:10045000283C304088F091E09093D901F80116864D
:100460001786108A118A1092E2011092E30110920D
:10047000E4011092E50190E02FEF821A920AA20A9D
:10048000B20A8093610081E0413009F080E021E010
:10049000711020E08223892B49F0F801838D90E0D0
:1004A000019665E070E00E94FF0E838F1F8EC601EB
:1004B0000E948708892B39F48F8D8F73F801918DF5
:1004C000907C892B818F2091D6014091D70160913A
:1004D000D801C8010E947506F801828D90916000D4
:1004E000891731F0813011F4128A138A80936000E9
:1004F00080FC0E942E06B401C50125E030E040E0FA
:1005000050E00E94130F00977040614009F067C0EF
:10051000C8010E949807F801418D2689378980819A
:10052000918144FF35C08B30910590F1206845FFE3
:1005300031C08630910570F1316043FF2DC08630A7
:10054000910550F13260F801268B378B6E857F85DF
:100550005091E801511122C06817790730F581E008
:100560008093E801206422C01092DD011092DE0128
:100570001092DA014ECF20916100292B91E02111D8
:1005800090E01092DB011092DC011092D90174CF3F
:100590002F77CDCF3E7FD1CF3D7FD5CF65507040F7
:1005A00086179707F8F61092E8012F7BF801268B43
:1005B000378B8091E6018F5F8930E8F58093E60103
:1005C000F801828D833009F47FC008F03EC082308C
:1005D00009F458C080E0F801808F0E945A00B401ED
:1005E000C5012AE030E040E050E00E94130F009780
:1005F0007040624009F07FC0F801828D803009F4BC
:1006000065C0CE010196BC01C8010E94F20BF80141
:10061000808191818B3F910538F42C853D85281789
:10062000390710F48C879D87F801928D911151C084
:1006300080E090E05CC09091E7011092E60181E0DB
:10064000911180E08093E701BBCF863031F0873095
:1006500011F08430F9F486E0BECFC8010E94400852
:100660009C0182E02130310559F088E023303105CA
:1006700039F081E02230304009F080E0880F880FA7
:100680008061A9CF86E025FD87E023FD886024FFF7
:10069000A2CFF6CF9091E70125FB882780F921FDB5
:1006A000826022FD846023FD886024FD806142FD1C
:1006B0008068903009F48FCF40FB992795F9892BFA
:1006C00041FF89CF806487CF8FEF85CF1082118261
:1006D0009ECF818D837031F081E02091E70121115F
:1006E00001C080E0963009F09DC082E090E00E9459
:1006F000D3080E94E908B401C50129E130E040E0D7
:1007000050E00E94130F633071058707970709F0C7
:1007100096C0CE010196BC01C8010E94A00CB40194
:10072000C50122E330E040E050E00E94130F009743
:100730007040644019F4C8010E944409B401C50125
:1007400024E630E040E050E00E94130F0097704034
:10075000664009F053C0F801828D8030F9F0809135
:10076000E2019091E301A091E401B091E501448D93
:10077000558D668D778D4F5F5F4F6F4F7F4F448FE5
:10078000558F668F778F0196A11DB11D8093E20171
:100790009093E301A093E401B093E5014090E2015E
:1007A0005090E3016090E4017090E50120E030E0BA
:1007B0004114540464047404F1F0F801268537856B
:1007C00040895189A4E2B0E00E943B0F28966CAFAB
:1007D0007DAF8EAF9FAF2897AAE09201A3010E9440
:1007E0003B0F9B01AC0128966CAD7DAD8EAD9FADEE
:1007F00028970E94130FF801248B358BB401C50193
:1008000024EF31E040E050E00E94130F0097704069
:10081000684011F40E94D80540E066E082E00E9442
:10082000640D85CD9091E801903019F081E090E061
:100830005ECF803009F4FCCE83E090E058CF009783
:100840007040654009F06BCFF70181E111928A9504
:10085000E9F7F60181E111928A95E9F72091DF012C
:10086000F801828D811142C08091E0019091E101F7
:1008700001968093E0019093E101899760F5211141
:1008800006C081E00E94FA0A81E08093DF01F8014E
:1008900085858F9384858F9383858F9382858F93AE
:1008A00081E790E09F938F931F9281E18F93FF9256
:1008B000EF920E944F0F6BE770E0C6010E94460F57
:1008C000A601B70180E00E94040B0FB6F894DEBFCA
:1008D0000FBECDBF24CF203009F421CF80E00E948D
:1008E000FA0A0E94D30A1092DF0119CF1092E00198
:1008F0001092E101211106C081E00E94FA0A81E014
:100900008093DF01F801828D843009F474C070F5A2
:100910008130C9F1833009F45EC0F801838D8330E2
:1009200009F41AC108F0A0C0813009F4CDC08230AA
:1009300009F4F2C0F80181818F9380818F938BE25B
:1009400091E09F938F931F9281E1782E7F92FF9287
:10095000EF920E944F0FF80184811F928F93838141
:100960008F9382818F9388E391E011C1863009F4DF
:100970005BC0873091F662EB70E0C7010E94460FC2
:1009800061EC70E02FC085858F9384858F9383857C
:100990008F9382858F9381E790E09F938F931F922F
:1009A00061E1762E7F92FF92EF920E944F0FF80145
:1009B00081898F9380898F9387858F9386858F9385
:1009C00083E890E09F938F931F927F92DF92CF9264
:1009D0000E944F0F75CF6EE870E0C7010E94460F6E
:1009E00069E970E0C6010E94460FA601B70184E0E4
:1009F0000E94040B94CE66EA70E0C7010E94460F85
:100A0000F80183818F9382818F9386EE90E09F938C
:100A10008F931F9281E18F93DF92CF920E944F0FAD
:100A2000A601B70184E04FCF8DEC90E09F938F93A8
:100A30001F9251E1752E7F92FF92EF920E944F0F0D
:100A4000F80183818F9382818F9381818F9380813D
:100A50008F938FED90E09F938F931F927F92DF9201
:100A6000CF920E944F0FDCCF843009F063CF838197
:100A70008F9382818F9381818F9380818F938FED6C
:100A800090E09F938F931F9291E1792E7F92FF9236
:100A9000EF920E944F0FF80187898F9386898F9379
:100AA0008FE191E09F938F931F927F92DF92CF927D
:100AB0000E944F0F0FB6F894DEBF0FBECDBFA60148
:100AC000B701F801838D94CF81898F9380898F93AB
:100AD00087858F9386858F9383E890E09F938F938C
:100AE0001F9241E1742E7F92FF92EF920E944F0F6E
:100AF000F80183898F9382898F9385898F93848965
:100B00008F938DEE90E09F938F931F927F92DF9251
:100B1000CF920E944F0FCECF86818F9385818F9386
:100B200083818F9382818F938BEF90E09F938F933C
:100B30001F9231E1732E7F92FF92EF920E944F0F2E
:100B4000F80181856AE00E94F30E1F929F931F9225
:100B50008F9388E091E0D7CF80858F9387818F93A3
:100B600085E191E09F938F931F9221E1722E7F92F6
:100B7000FF92EF920E944F0FF80185858F93848535
:100B80008F9383858F9382858F9381E790E09F93E6
:100B90008F931F927F92DF92CF92BBCF903009F458
:100BA0005ACC69CC60E875E280E090E00C948D0E40
:100BB0000F931F93CF93DF93CDB7DEB7C058D10902
:100BC0000FB6F894DEBF0FBECDBF0E946106FC01D8
:100BD000892BC1F187898F9386898F9385858F9320
:100BE00084858F9383858F9382858F9381851F92D0
:100BF0008F9380858F9387818F9386818F93858153
:100C00008F9384811F928F9383818F9382818F939F
:100C100081818F9380818F9386E491E09F938F935E
:100C20001F9280E88F938E010F5F1F4F1F930F93CA
:100C30000E944F0FC8010E94C80E0FB6F894DEBF85
:100C40000FBECDBFC058DF4F0FB6F894DEBF0FBE4A
:100C5000CDBFDF91CF911F910F910895CF93DF9377
:100C60000F92CDB7DEB719820E94DB0E892B71F48B
:100C7000CE0101960E94BB0E892B41F489818035FB
:100C800069F040F4813389F08D34A1F00F90DF9149
:100C9000CF9108958D3671F08037C1F781E090E0F3
:100CA0000E9464068EE991E002C089E891E00E940A
:100CB000C80EECCF80E090E00E9464068AEB91E0E1
:100CC000F6CF8AEE91E00895809305020895FC0125
:100CD000818D8F73818F128E10920C0210920D02F3
:100CE00010920A0210920B0208951F93CF93DF9384
:100CF00000D00F92CDB7DEB78A839B83162F29834E
:100D0000DC015A968C915A97411559F0811531F1B1
:100D10005A961C920F900F900F90DF91CF911F91D8
:100D20000895853079F48A819B810E94400801975B
:100D3000039740F486E0EA81FB81828F818D806891
:100D4000818FE8CFAA81BB815A96EC91E83008F0F8
:100D50008AC0F0E0E75CFD4E0C94350FEA81FB8120
:100D6000818D8F7B818F81E01115A1F2828FD2CF8F
:100D7000111581F283E0AA81BB815A968C9310925F
:100D80000C0210920D02C6CF80910C0290910D02C0
:100D9000019680930C0290930D028C32914008F4DE
:100DA000B9CF82E0EA81FB81E1CFF981F11509F445
:100DB000B1CF84E0AA81BB815A968C9310920C0229
:100DC00010920D0210920A0210920B02A3CF809192
:100DD0000C0290910D02019680930C0290930D02EB
:100DE000EA81FB8122813381253F3140C0F020918F
:100DF0000A0230910B022F5F3F4F20930A0230937B
:100E00000B022233310578F085E0AA81BB815A9626
:100E10008C938E915997806459968C937BCF1092C6
:100E20000A0210920B02843F9140B9CFEA81FB8104
:100E3000828193818C32914028F680910A029091B0
:100E40000B02019680930A0290930B02843691055F
:100E500008F460CF87E0AA81BB815A968C938E916B
:100E600059978F7BD9CFEA81FB81128E53CF4FB731
:100E7000F89420910E0230910F02280F391F309301
:100E80000F0220930E0280910E0290910F02883E75
:100E9000934010F44FBF089580910E0290910F027D
:100EA000885E934090930F0280930E02809114020B
:100EB00090911502A0911602B09117028F3F9F4F9B
:100EC000AF4FBF4F99F08091140290911502A091FD
:100ED0001602B09117020196A11DB11D8093140254
:100EE00090931502A0931602B093170280911002FE
:100EF00090911102A0911202B09113028F3F9F4F67
:100F0000AF4FBF4F09F4BFCF8091100290911102F3
:100F1000A0911202B09113020196A11DB11D809300
:100F2000100290931102A0931202B0931302ABCF60
:100F3000FC01218D26FF3AC081858A30B8F5809169
:100F40002102909122020196809321029093220225
:100F5000889718F081E080932402858196818F36EE
:100F600090404CF180911F02909120020196809355
:100F70001F0290932002CC9718F081E08093230207
:100F80008781908526FD1CC010921D0210921E02C2
:100F900010921C0289392AE39207A8F5843A9843F3
:100FA00010F110921A0210921B023CC01092210202
:100FB00010922202D2CF10921F0210922002E0CF94
:100FC000803E2EE29207B0F480911D0290911E02A5
:100FD000019680931D0290931E028436904018F073
:100FE00081E080931C0210921A0210921B02109250
:100FF000190218C0853D20E3920730F610921D02B9
:1010000010921E02F0CF80911A0290911B0201965D
:1010100080931A0290931B028436904018F081E06E
:101020008093190284818A30F0F481E08093180261
:1010300026893789809124028030D1F02260809106
:1010400023028030B9F0286080911C02909119022F
:10105000892B91F0246080911802803079F0206211
:10106000268B378B08958E3018F310921802E0CF3C
:101070002D7FE5CF277FE8CF2B7FEDCF2F7DF0CFE2
:10108000FC012689378921FD16C022FD17C023FDEA
:1010900018C024FD19C025FD1AC026FD1BC027FD60
:1010A0001CC030FD1DC080E0932F927031FF02C044
:1010B00089E090E0089581E090E0089582E090E07A
:1010C000089583E090E0089584E090E0089585E03D
:1010D00090E0089586E090E0089587E090E008951C
:1010E00088E090E0089541E064E081E00E94F90C1E
:1010F0008130910559F041E064E081E00E94640D87
:1011000021E0019709F020E0822F90E008950F93ED
:101110001F93CF93DF930F92CDB7DEB78C01892B4E
:1011200071F080E00E947B0E019749F040E064E09E
:1011300081E00E94640D019751F40E94890E81E0C4
:1011400090E00F90DF91CF911F910F91089541E0B2
:1011500064E081E00E94640D019779F3BE016F5F46
:101160007F4F8FEF0E945B0E019739F30E94890E2B
:1011700089818095F801808380E090E0E2CF8FE75D
:1011800083BD8CE685BD81E080932502089515BC62
:1011900013BC10922502089541E067E083E00E94AD
:1011A000F90C0C94C70820912802309129022817C5
:1011B000390771F080932802909329021092260239
:1011C00010922702892B11F40C94C7080C94BF08C5
:1011D0000895209128023091290221153105E1F16D
:1011E0008091260290912702019680932602909387
:1011F000270222303105A1F02330310541F12130A1
:10120000310519F48530910511F40C94C708C29783
:1012100018F10E94BF08109226021092270208952A
:101220008333910530F480912502811115C00C940F
:10123000BF088733910549F38639910568F00E940C
:10124000BF0882E38093260210922702089584301B
:101250009105D9F20997DCCF0895009719F08F3FD7
:10126000934049F4FB0190819F5F9A3030F480E015
:10127000FB019083089590E0FACF81E09AE0F8CFE7
:1012800066E081E00C94C50C2F923F924F925F92E2
:101290006F927F928F929F92AF92BF92CF92DF9286
:1012A000EF92FF920F931F93CF93DF93CDB7DEB7EB
:1012B0002A970FB6F894DEBF0FBECDBF8C011F82F8
:1012C00018861D821E821B821C8219821A82CE0100
:1012D0000796BC0180E00E94E10CCE010596BC019E
:1012E00081E00E94E10CCE010396BC0182E00E94E5
:1012F000E10CBE016F5F7F4F83E00E94E10CAF8085
:10130000B8846DE272E0C5010E942D09382ECD80AF
:10131000DE806CE272E0C6010E942D09282EEB806F
:10132000FC806BE272E0C7010E942D0989878980E9
:101330009A806AE272E0C4010E942D098A87F8014E
:1013400086899789232D213051F0222D213039F0C3
:101350002985213021F02A85213009F09BC0806148
:10136000F801868B978B80912E0290E09C01220FD2
:10137000331FF901E15CFD4FA082B182215D3D4F39
:10138000F901C082D1820196877080932E02EFE32B
:10139000F2E0AFE2B2E08FE492E0C12CD12C560132
:1013A0002501350141915191440E551E611C711C5E
:1013B0004D915D91A40EB51EC11CD11C8E179F07C7
:1013C00089F7311014C093E076946794579447944A
:1013D0009A95D1F79201A4E6B0E00E94E40E2FEFB7
:1013E00033E040E050E00E94130FF8012483211005
:1013F00017C083E0D694C794B794A7948A95D1F781
:101400009501AAEAB0E00E94E40E2FEF33E040E03D
:1014100050E00E94130F28523040F8012583368394
:10142000898581110EC09701A0E8BEE30E94E40EF9
:101430002FEF33E040E050E00E94130FF8012783C4
:1014400030878A8581110DC09401A4E6B0E00E9426
:10145000E40E2FEF33E040E050E00E94130FF8015C
:1014600021872A960FB6F894DEBF0FBECDBFDF915D
:10147000CF911F910F91FF90EF90DF90CF90BF9091
:10148000AF909F908F907F906F905F904F903F9024
:101490002F9008958F7E64CFCF93DF93D82FC62FE0
:1014A0000E94F30D892B41F00E94010EC1E0D0E0B3
:1014B000CE01DF91CF9108958EE30E94070E892B14
:1014C00099F78D2F0E94170E892B71F78C2F0E9490
:1014D000170EEC01892B41F70E94010EE9CF91E034
:1014E00020914F02211101C090E0682F892F880FB1
:1014F000880F880F0C944C0A682F80914F02811539
:1015000019F088E40C944C0A80E4FCCF109250024D
:1015100081E080934F0260EA76E890E00E94CD0D72
:10152000019719F481E090E008952FE788E391E0B6
:10153000215080409040E1F700C0000080E30E940D
:101540006F0A892B79F780E30E946F0A892B51F784
:1015500080E30E946F0A892B29F788E30E946F0AB3
:10156000892B01F78CE00E946F0A892BD9F686E05F
:101570000E946F0A892BB1F681E00E946F0A892BC5
:1015800089F6EFE9FFE03197F1F700C0000082E053
:101590000E946F0A009731F6EFE9FFE03197F1F70B
:1015A00000C00000089581E00E946F0A009731F4A6
:1015B000EFE9FFE03197F1F700C0000008950F93C5
:1015C0001F93CF938C01C0E0892B59F481E090E008
:1015D000CF911F910F9108950E947C0A892BB1F73A
:1015E000CF5FF801EC0FF11D80818111F5CF80E014
:1015F00090E0EECF823028F480934F0280E090E0BC
:10160000089581E090E00895EF92FF920F931F9369
:10161000CF93C82F7B018A01853040F081E090E0B4
:10162000CF911F910F91FF90EF900895672BB1F329
:10163000452BA1F30E94D30A892B81F780E80E94F1
:101640006F0A892B59F7C7010E94DF0A892B31F7EE
:1016500080EC0E946F0A892B09F7C8010E94DF0AFB
:101660000097E1F6C0935002DBCFBA98C29810926F
:101670005E0210925D0210925C0210925B02109268
:101680005702109258021092590210925A02109268
:101690005602109254021092550281E08093530238
:1016A00010925202109251021FBC83E08EBD84E062
:1016B00088BF89B7846089BF1DBC1CBC84B78064A7
:1016C00084BF8AB780628ABF8BB780628BBF089560
:1016D00080915B0290915C02019690935C028093F2
:1016E0005B0208951F920F920FB60F9211242F9351
:1016F0003F934F935F936F937F938F939F93AF939A
:10170000BF93EF93FF930E94680BFF91EF91BF91FE
:10171000AF919F918F917F916F915F914F913F9189
:101720002F910F900FBE0F901F9018951F921FB60C
:101730001F9211242F933F934F935F938F939F9307
:10174000AF93BF932CB53DB5809153028115B1F095
:101750001092530230935E0220935D0210925C025D
:1017600010925B02BF91AF919F918F915F914F91CA
:101770003F912F911F901FBE1F90189580915B0283
:1017800090915C0240915D0250915E02DC0190E01C
:1017900080E0841B950BA109B109820F931FA11D45
:1017A000B11D30935E0220935D0210925C02109294
:1017B0005B028093570290935802A0935902B09312
:1017C0005A0281E080935602109254021092550200
:1017D000809151029091520201969093520280930F
:1017E0005102C0CFEF92FF920F931F93CF93DF93DD
:1017F0008C017B01892B09F47EC06115710509F408
:101800007AC0FB018689811509F475C09FB7F894E9
:1018100040915702509158026091590270915A02BA
:101820008091560210925602C0915102D0915202FC
:1018300010925202109251029FBF811509F448C0C4
:10184000411551056105710509F442C09A01AB01CA
:1018500083E0220F331F441F551F8A95D1F760E4A0
:1018600077E78BE190E00E94130FF8012B3F3105E1
:101870004105510550F52083318382899389821770
:10188000930710F4228B338B10925402109255025E
:10189000209789F1F701668970E08789908D0E9411
:1018A000FF0EC536D10510F0C4E6D0E06C9FC00134
:1018B0006D9F900D7C9F900D1124DF91CF911F9112
:1018C0000F91FF90EF900C94370710821182DCCFBC
:1018D00080915402909155028F3F980721F4F801AE
:1018E00010821182D5CF01968093540290935502B5
:1018F0000A9770F2F4CFDF91CF911F910F91FF9073
:10190000EF9008958F938FB78F939F9380915F028D
:101910009091600201969093600280935F029F9184
:101920008F918FBF8F9118958A98929A85B78C7FE7
:1019300085BF85B7836085BF8BB780648BBF0895F3
:10194000CF93DF93EC01FB01892BE1F03097D1F0CD
:10195000818D8115B9F08FB7F89420915F02309195
:1019600060021092600210925F028FBFA0EFB0E0A1
:101970000E94E40E218D30E040E050E00E94130F01
:101980002A833B83DF91CF9108958430B8F49FEF91
:10199000960F973098F43D9897B19F738295880F72
:1019A000880F807C892B87B986B1887F86B986B1FC
:1019B000862B86B9379A80E090E0089581E090E028
:1019C0000895883098F46115710581F097B1907E83
:1019D000982B97B9369A3699FECF349A84B125B1AF
:1019E000FB018083218380E090E0089581E090E016
:1019F0000895843008F059C0683008F056C043306C
:101A000008F053C021E030E0F90101C0EE0F6A9503
:101A1000EAF7823041F18330B9F1813099F04130F9
:101A200031F48AB38E2B8ABB80E090E008959AB39C
:101A30008E2F809598239ABB4230E9F58BB38E2B7D
:101A40008BBBF2CF413021F487B38E2B87BBECCF19
:101A500097B38E2F8095982397BB423079F588B342
:101A60008E2B88BBE1CF413021F484B38E2B84BB15
:101A7000DBCF94B38E2F8095982394BB423009F529
:101A800085B38E2B85BBD0CF413021F481B38E2B13
:101A900081BBCACF91B38E2F8095982391BB4230E2
:101AA00039F482B38E2B82BBBFCF81E090E00895E2
:101AB00092B38923F8CF9BB38923C2CF98B38923EC
:101AC000D0CF95B38923DECF8430E0F56830D0F5F0
:101AD0004230C0F521E030E0F90101C0EE0F6A9517
:101AE000EAF76E2F8230D1F0833011F1813061F04E
:101AF0008BB3413029F48E2B8BBB80E090E00895AE
:101B0000609568236BBBF9CF88B3413019F48E2BF5
:101B100088BBF3CF6095682368BBEFCF85B34130B6
:101B200019F48E2B85BBE9CF6095682365BBE5CFA3
:101B300082B3413019F48E2B82BBDFCF60956823CE
:101B400062BBDBCF81E090E00895FA01843010F5AC
:101B5000683000F53097F1F021E030E0A90101C0D4
:101B6000440F6A95EAF7642F823081F0833081F068
:101B7000813051F089B3862391E0811101C090E05A
:101B8000908380E090E0089586B3F5CF83B3F3CFE0
:101B900080B3F1CF81E090E008959B01AC01211565
:101BA000310541055105E1F060E072E18AE790E01E
:101BB0000E94130FC901DA014097A109B109AC01D4
:101BC000BD0176956795579547959230A105B1056A
:101BD00038F440B911B884E086BF80E090E0089501
:101BE00081E090E0089584EA86BF06B607FEFDCF47
:101BF00091B1987F21E030E0983009F420E0C901EC
:101C0000089584E986BF06B604FCFDCF0895880FC9
:101C100083B984E886BF06B607FEFDCF91B1987FF1
:101C200021E030E0983109F420E0C901089583B93A
:101C300084E886BF06B607FEFDCF91B1987F21E00C
:101C400030E0983209F420E0C9010895789480E0EA
:101C500090E00895CF93C82F843020F081E090E089
:101C6000CF91089541E064E081E00E94F90C019772
:101C7000A9F341E065E081E00E94F90C019771F35E
:101C800040E066E081E00E94F90C019739F341E001
:101C900067E081E00E94F90C019701F341E064E004
:101CA00081E00E94640D0197C9F27098C065CDB9BA
:101CB00080E090E0D5CF6115710549F08FB9779B31
:101CC000FECF8FB1FB01808380E090E0089581E03A
:101CD00090E00895CF93DF930F92CDB7DEB78FB921
:101CE000779BFECF8FB18983898180E090E00F9050
:101CF000DF91CF9108958F3F49F0909170009F3F01
:101D000029F48093700080E090E0089581E090E0F5
:101D100008958FEF809370000895009770406040A1
:101D200009F19B01AC0164E0220F331F441F551FD2
:101D30006A95D1F760E072E18AE790E00E94130FA4
:101D4000C901DA010197A109B1099031A105B105D5
:101D500048F490BD89B986E880BD88E18AB980E001
:101D600090E0089581E090E008955D9BFECF8CB9EE
:101D700080E090E00895009741F05F9BFECF2CB18A
:101D8000FC01208380E090E0089581E090E00895D8
:101D9000CF93DF93EC01892B31F481E090E008C010
:101DA00021960E94B50E88818111FACF80E090E0E3
:101DB000DF91CF9108958BB1880F990B909597FB88
:101DC000882780F990E00895A29FB001B39FC001D9
:101DD000A39F700D811D1124911DB29F700D811D57
:101DE0001124911D0895992778E0880F991F96175F
:101DF00008F0961B881F7A95C9F780950895AA1B4D
:101E0000BB1B51E107C0AA1FBB1FA617B70710F0E5
:101E1000A61BB70B881F991F5A95A9F78095909517
:101E2000BC01CD010895A1E21A2EAA1BBB1BFD0126
:101E30000DC0AA1FBB1FEE1FFF1FA217B307E407A9
:101E4000F50720F0A21BB30BE40BF50B661F771F01
:101E5000881F991F1A9469F76095709580959095E1
:101E60009B01AC01BD01CF010895EE0FFF1F05904E
:101E7000F491E02D09940E94E40EA59F900DB49F6B
:101E8000900DA49F800D911D11240895FB01DC018C
:101E90000C944A0F01900D920020E1F70895AEE0F6
:101EA000B0E0E5E5FFE00C94101286E08C838B89AE
:101EB0009C8989839A838D899E89813020E8920745
:101EC00010F080E090E801978D839E83CE014996C3
:101ED000AC016F89788D48970E94810F4D815E819A
:101EE00057FD0BC0EF81F8854E175F070CF4FA0120
:101EF0002B893C89E20FF31F10822E96E2E00C94AE
:101F00002C12ABE0B0E0E7E8FFE00C9403125C01B8
:101F10006B017A01FC0116821782838181FFC9C19E
:101F2000F5012381F60123FD859123FF81916F0146
:101F3000803009F429C1853239F423FD959123FFBE
:101F400091916F01953229F4B50190E00E947211D0
:101F5000E7CF30E0712C512C00E0003210F59B32BD
:101F6000C9F050F49032B9F09332C9F09E3269F55D
:101F700006FD0AC1006405C09D3279F0903399F4E2
:101F80000160F60123FD959123FF91916F0191115D
:101F9000E4CF24C002600460F4CF0860F2CF006197
:101FA000F0CF07FD1BC0892F80538A30F8F69AE0E6
:101FB00006FF05C0799E800D1124782EE2CF599E30
:101FC000800D1124582E0062DCCF9C3611F400687D
:101FD000D8CF9C3409F448C0983699F2892F8F7D68
:101FE0008554833008F442C0933609F464C09337B3
:101FF00009F468C0933509F474C0943619F0993621
:1020000009F0A0C0F70107FF96C081919191A191BD
:10201000B1917F010F76B7FF08C0B095A09590955C
:1020200081959F4FAF4FBF4F00682AE030E04E01CF
:102030004FEF841A940AA401BC01CD010E94A211A1
:102040008819882E06FFC1C0802F8E7F871408F064
:10205000BBC004FF0CC102FD00C10E7E972C802F77
:10206000867809F4BDC0FEC031E08BCF3030F9F086
:1020700088E0E80EF11C8FE3898381E0682E712CE3
:102080004E018FEF881A980A0F7703FD03C065147D
:102090007104B8F161147604D9F5511409F440CFF4
:1020A000B50180E290E00E9472115A94F6CF84E06C
:1020B000E80EF11CE0CFF7018081898382E0E80E11
:1020C000F11CDBCFF701819091907F01672D70E0CB
:1020D00006FD02C06FEF7FEFC4010E9467113C0153
:1020E000D3CFF701819091907F01672D70E006FDBD
:1020F00002C06FEF7FEFC4010E945C113C010068D9
:10210000C4CFB50180E290E00E9472115A94BFCF13
:10211000F40107FD859107FF81914F01B50190E022
:102120000E94721181E0511001C080E0581A81E0D4
:10213000681A7108AFCF81919191A92FAA0FAA0BAC
:10214000BA2F67CF102F9537B9F41F7E2AE030E001
:10215000F70117FF34C061917191819191917F01D5
:102160004E014FEF841A940AA4010E94A21188190B
:10217000882E1F77012F66CF197F903799F058F47A
:10218000983599F09F36C1F0F501868197812B969D
:10219000EFE00C941F129837B9F704FD04C020E15A
:1021A00030E0D6CF10611460FACF04FF02C0102FC8
:1021B000166020E132E0CCCF28E030E0C9CF619159
:1021C000719180E090E0CBCF082F982C04FF47CF8F
:1021D000FE01E80DF11D8081803309F041C0097EC8
:1021E00003FD0CC000FF4FC0782C951418F4750C3B
:1021F0007918952C951408F048C0952C951408F082
:1022000044C0591804FF43C0B50180E390E00E9428
:10221000721102FF09C088E590E001FD02C088E765
:1022200090E0B5010E9472118714E0F13E018FEF3A
:10223000681A780A882D81504E0192E0890E911C0F
:10224000880E911CF40182914F01B50190E00E942B
:10225000721186149704B1F720CF972C082FB8CFAE
:1022600002FD02C09394BCCF93949394B9CF972C62
:10227000082FF5CEB50180E290E00E9472116394C0
:102280006514C0F3B7CF692CFBCF512CBBCF802F87
:10229000867851F280E201FD8BE207FD8DE2B50107
:1022A00090E0C0CFB50180E390E00E9472117A9473
:1022B000BBCF8FEF9FEF6BCFFC010590615070405B
:1022C0000110D8F7809590958E0F9F1F0895FC01FF
:1022D0006150704001900110D8F7809590958E0F55
:1022E0009F1F08950F931F93CF93DF93182F092FEC
:1022F000EB018B8181FD09C00FEF1FEF812F902F24
:10230000DF91CF911F910F91089582FF14C02E810C
:102310003F818C819D81281739073CF4E881F98140
:10232000CF0101968883998310838E819F810196C6
:102330008E839F83E3CFE885F985812F0995892BCB
:10234000A1F3DACFFA01AA27283051F1203181F127
:10235000E8946F936E7F6E5F7F4F8F4F9F4FAF4FAD
:10236000B1E03ED0B4E03CD0670F781F891F9A1FC0
:10237000A11D680F791F8A1F911DA11D6A0F711D74
:10238000811D911DA11D20D009F468943F912AE080
:10239000269F11243019305D3193DEF6CF01089568
:1023A000462F4770405D4193B3E00FD0C9F7F6CF99
:1023B000462F4F70405D4A3318F0495D31FD405261
:1023C000419302D0A9F7EACFB4E0A69597958795F7
:1023D00077956795BA95C9F70097610571050895D6
:1023E0009B01AC010A2E0694579547953795279582
:1023F000BA95C9F7620F731F841F951FA01D08951A
:102400002F923F924F925F926F927F928F929F9204
:10241000AF92BF92CF92DF92EF92FF920F931F93F2
:10242000CF93DF93CDB7DEB7CA1BDB0B0FB6F894A3
:10243000DEBF0FBECDBF09942A88398848885F84E3
:102440006E847D848C849B84AA84B984C884DF8054
:10245000EE80FD800C811B81AA81B981CE0FD11D38
:102460000FB6F894DEBF0FBECDBFED010895F8940E
:10247000FFCFAE06B806D506C406E70616078A06DD
:02248000D5067F
:10248200FF01010101010001010001010001010040
:10249200FF4F444F3A256C75206D004B4559204F34
:1024A200464600545249503A256C75206D004255FB
:1024B2004C4220434845434B00414C4C204C414D3B
:1024C2005053204F4E004352414E4B494E472E2E01
:1024D2002E00454E47494E452053544F50504544D7
:1024E200005052455353205354415254002121204D
:1024F20053544F5020454E47494E45202121005309
:1025020050443A25752052504D3A257500415647A0
:102512003A2575204D41583A25750052504D3A25BD
:102522007520433A256443004F494C3A25752E25C0
:1025320075626172004241543A2575206D5600570A
:1025420041524E3A307825303458005350443A259F
:102552003375204B4D2F480052504D3A2575204679
:102562003A257525250054454C7C5350443A25752F
:102572007C52504D3A25757C464C3A25757C434C2D
:10258200543A25647C4241543A25757C4F494C3A71
:1025920025757C4F444F3A256C757C5741524E3A13
:1025A2003078253034580D0A00434D443A205445C2
:1025B20053545F4C414D50535F4F4E0D0A00434DF3
:1025C200443A20504147455F4348414E4745445FA6
:1025D200544F5F545249500D0A00434D443A205023
:1025E2004147455F4348414E4745445F544F5F4D25
:0625F20041494E0D0A00F4
:00000001FF
